:02000000422894
:100008007E14803120007F08F900111F3928023042
:100018007D06031D3728FA01FB0121001B08F600A5
:10002800F7017608FA007708FB001C08F600F701CC
:100038007608F700F6017608FA047708FB047A08D0
:100048002000C5077B08C63D0030C73DC83D7C0879
:10005800031D33280330F6007608FD0035282100FB
:100068009D140130FC02200011138B1C3D281D2516
:100078008B1079082000FF007E1009004328852591
:10008800FD008625D500FC01453084000030850040
:10009800103075257E102000372A7D0303199A2910
:1000A80064009A299224031020008C1E0314031C58
:1000B800602820008C16622820008C126300000043
:1000C80000002000031E83196E285508BE003E0854
:1000D800FD00CB014B08CB0ABE0006303E02031CD4
:1000E80008000100080010302000A0000030A10026
:1000F800BF2320002108B9002008B8000A30BE003C
:100108003E08BA004C300D2560250030CA2459300D
:100118002000A0008530A1004C244C302000A00015
:100128000030A1004C24FB240B302000BE003E0808
:10013800FD000800FD01FD0A04302000BE003E0855
:10014800D500080020004A08B9004908B8000A305C
:10015800BE003E08BA004C300D2501302000C9070A
:100168000030CA3D602551302000A0008530A10034
:100178004C244C302000A0000030A1004C24FB246B
:100188000C302000BE003E08FD0008000330F123BB
:100198000D302000BE003E08D50008000730F123CE
:1001A8000F302000BE003E08D50008001D30F123A6
:1001B8000E302000BE003E08D50008001F30F12395
:1001C8000B302000BE003E08D5000800003020009B
:1001D800A3000030A2000930A100C930392900303D
:1001E8002000A3000030A2000930A100C430392942
:1001F80000302000A3000030A2000930A100AB307D
:10020800392900302000A3000030A2000830A100E6
:100218002930A0004808A7004708A6004608A500FE
:100228004508A400FB2220002308C8002208C700B4
:100238002108C6002008C5002830BE000030BF00D5
:100248000030C0000030C1003E08C5023F08C63B70
:100258004008C73B4108C83B5E2900302000A30086
:100268000030A2000030A100FF30A0004808A7001D
:100278004708A6004608A5004508A400FB22200060
:100288002308C8002208C7002108C6002008C500A6
:100298005E2921001D0C890C1F39033A0319EA282D
:1002A800043A0319F3281A3A03190529023A0319DB
:1002B800FC28312920004608B9004508B8000A3052
:1002C800BE003E08BA004C300D2521001D0C890CDB
:1002D8001F392000BE00BF013E08B8003F08B90022
:1002E8000A30C0004008BA0052300D256025803021
:1002F8002000A0008530A1004C2452302000A0002E
:100308000030A1004C2457302000A0008530A10007
:100318004C244C302000A0000030A1004C24FB24C9
:1003280020005508BE003E08FD0008007D08013A7F
:1003380003195628023A03194D29073A0319A62822
:100348000E3A03197728013A03199E28073A031928
:10035800CA28013A0319D228033A0319E228013AB4
:100368000319DA28B7290800F10120303A2534307A
:100378002000A000F130890BBF29A00BBF29003253
:100388002000A1010330A1042108A0002008F100E9
:1003980022303A252000A312A3150630A30423080F
:1003A800A0002008F10026303A2520002414A415C6
:1003B8002415A4142408A0002008F10020303A25B0
:1003C80020002614A6142615A6152616A6162608F5
:1003D800A0002008F10022303A25F10101303A2529
:1003E8002000A0002008A7002710A7102711A71198
:1003F8002712A7122708A0002008F10021303A256B
:10040800F1011D303A252000A0002008A200221585
:100418002208A0002008F1003D303A25F1011C30E7
:100428003A252000A0002008A8002814A8142815A0
:10043800A8152816A8162808A0002008F1003C30A6
:100448003A252000A5012517A51625162508A00080
:100458002008F10027303A25F101E1303A25F10171
:10046800E2303A25080023008C018E010B138B1310
:100478007830210099041908FC3902389900343081
:100488002000C200F130890B472AC20B472A0032EC
:10049800E52421009513220097131708FC39013829
:1004A8009700971797121712971621001D1023000F
:1004B8000C1621000C1624000C1223008E152100A6
:1004C8008E1570309E049E17FC309E0511171D086E
:1004D80083390C389D001D140C150B1615131708BD
:1004E800C139143897008C1220008C120B178B1707
:1004F8001030A0000030A100BF2320002108C40054
:100508002008C3004303343003194406031D902A0E
:100518000130C3000030C4000130C3070030C43DBF
:100528001030A0000030A1004408A3004308A20036
:100538004E2351209D2A2000B0002908AE0028082B
:10054800AD002B08A1002A08A0002E08A3002D0842
:10055800A2008A2320002108AE002008AD00013047
:10056800AC002C08B0072D082E04031DA52A30085E
:100578008600870181010130B0022B08A1002A08FA
:10058800A0002908A3002808A2001F242000200892
:10059800AC002C08AF002B08A1002A08A0002908ED
:1005A800A3002808A2008A2320002108A900200807
:1005B800A8000A302F02031CE52A0730AC002C08DB
:1005C800AF073030AC002C08AF072F08AC0030085C
:1005D800860087012C0881000130B0022808290410
:1005E800031DC12A0130AC002C08B00708000030F8
:1005F8002000AC000030AB000030AA000030A90099
:1006080023082204210420040319452BAD01AD0A57
:10061800A31B1A2B0130A035A10DA20DA30D890B28
:100628000F2B0130A8002808AD070C2B0130A93585
:10063800AA0DAB0DAC0D890B1B2B23082702031D3C
:100648002F2B22082602031D2F2B21082502031D0C
:100658002F2B20082402031C3A2B2008A40221086F
:10066800A53B2208A63B2308A73B29140130A33643
:10067800A20CA10CA00C890B3B2B0130AD02031D71
:100688001A2B2C08A3002B08A2002A08A10029086D
:10069800A00008008B132300950120002008E03EED
:1006A800A4000730213DA500240823009100200064
:1006B8002508230092001516151555309600AA3006
:1006C80096009514000000002300151195012000E4
:1006D8002408230091002000250823009200151209
:1006E80095161515200022082300930020002308E2
:1006F80023009400951255309600AA309600951460
:1007080000000000230015118B1708002000A50128
:10071800A601200821040319BA2BA701A70AA11BC7
:100728009F2B0130A035A10D890B962B0130A40019
:100738002408A707932B0130A535A60D890BA02BFC
:1007480021082302031DAA2B20082202031CB12B17
:100758002008A2022108A33B25140130A136A00CD1
:10076800890BB22B0130A702031D9F2B2608A1007D
:100778002508A00008008B132300950120002008FD
:10078800E03EA7000730213DA8002708230091007C
:100798002000280823009200151400000000200003
:1007A800A501A601230013082000A200A301220826
:1007B800A5002308A600230014082000A200A30116
:1007C8002208A300A2012208A5042308A6048B1767
:1007D8002608A1002508A00008002000A10000307C
:1007E800C8000030C7000030C6000030C500FF3028
:1007F800A0002008FC0021001D0C890C1F392000D6
:1008080021060319172C2108A000A00DA00D210016
:100818001D08200020068339200621009D00A030F5
:100828000032890B142C21009D1402302000A000F6
:100838002008FD0008002000200821040319472C87
:10084800A501A50AA11B322C0130A035A10D890BE9
:10085800292C0130A4002408A507262C21082302EE
:10086800031D382C20082202031C3E2C2008A2025B
:100878002108A33B0130A136A00C890B3F2C013085
:10088800A502031D322C2308A1002208A00008009D
:100898002000A5012108A3002008A200250822079E
:1008A800840023080318230A85001200031908008E
:1008B8002108A3002008A200250822078400230895
:1008C8000318230A85000008462501302000A200ED
:1008D8002208A5074E2C2000B7003708B5003508B8
:1008E800B600B21F872C2D30B50037088600870167
:1008F800350881000130B5003508B707B109B209DC
:10090800B10A0319B20A3208A9003108A80034084C
:10091800AB003308AA0037089F22080020000C10FB
:10092800A0300032890B952CF10100303A252000C7
:10093800A0002008A1002118080021142108A00007
:100948002008F10020303A2520000C14A030003295
:10095800890BAB2C080020000C10A0300032890B4A
:10096800B22CF10100303A252000A0002008A10097
:10097800211C080021102108A0002008F1002030C7
:100988003A25A0300032890BC62C08002000AA00A6
:10099800AC01AC0AAB012A082B07A000A101A10DEC
:1009A800BF2320002008A9002908AC002C0803193F
:1009B80008002C08462501302000A9002908AB07AB
:1009C800CF2C2C2520000C103A302000A900233011
:1009D800890BEC2CA90BEC2CB8210B302000A900BA
:1009E8006230890BF52CA90BF52C000008006E2548
:1009F80020000C1403302000A1000830A00077303C
:100A0800890B042DA00B042DA10B042D20000C1024
:100A180008002000BD003908B2003808B1003A08C3
:100A2800BB00BC013B08B3003C08B4003D086F2480
:100A38000800F10107303A25F4007408F500F51EA6
:100A480008007508F4007408F10027303A250800FA
:100A580021000C108C108E140E110E10240095120B
:100A680015121417F030950595160800F300672540
:100A78007308462571084625F2007208F1006E25B4
:100A880071080800F0007008240091002400141870
:100A98004F2D00004A2D110808002F3443344F34DD
:100AA80055344E3454342F3400342F3442344F34B8
:100AB8004F3454342F340034AF246725A0304625F2
:100AC8000030CA24080020008C100D30890B6A2DD4
:100AD800000008000D30890B6F2D000020008C14D9
:100AE8000800640080010131890B762D0034AD3493
:100AF80087346634BC34BB342F34413444344334F3
:080B080000340A340A342134E0
:100FC00055346E3463346F346E3466346934673448
:100FD000753472346534643432340034003400348F
:100FE0000034003400340034003400340034003461
:100FF0000034003400340034003400340034003451
:020000040001F9
:04000E00DCF9FFFF1B
:00000001FF
