:02000000422894
:100008007E14803120007F08F900111F3928023042
:100018007D06031D3728FA01FB0121001B08F600A5
:10002800F7017608FA007708FB001C08F600F701CC
:100038007608F700F6017608FA047708FB047A08D0
:100048002000C5077B08C63D0030C73DC83D7C0879
:10005800031D33280330F6007608FD0035282100FB
:100068009D140130FC02200011138B1C3D28BD2576
:100078008B1079082000FF007E10090043284C26C9
:10008800FD004D26DC00FC01453084000030850071
:1000980017303C267E1020008E2A7D030319E6299E
:1000A8006400E6296A25031020008C1E0314031C33
:1000B800602820008C16622820008C126300000043
:1000C80000002000031E83196E285C08BE003E084D
:1000D800FD00CB014B08CB0ABE0006303E02031CD4
:1000E80008000100080027302000A8008630A90079
:1000F8004C30872510302000A0000030A100652476
:1001080020002108B9002008B8000A30BE003E08C7
:10011800BA004C302225200020084C3EEA254C30FD
:10012800A5230B302000BE003E08FD000800FD019D
:10013800FD0A04302000BE003E08DC0008001F3025
:100148002000A8008630A9004C30872520004A08E6
:10015800B9004908B8000A30BE003E08BA004C3061
:100168002225200020084C3EEA2501302000C9073E
:100178000030CA3D4C30A5230C302000BE003E089C
:10018800FD0008000330C7240D302000BE003E08E3
:10019800DC0008000730C7240F302000BE003E08EE
:1001A800DC0008001D30C7240E302000BE003E08C9
:1001B800DC0008001F30C7240B302000BE003E08BA
:1001C800DC00080000302000A3000030A20000304E
:1001D800A1006430A0004808A7004708A600460808
:1001E800A5004508A400972420002308C800220879
:1001F800C7002108C6002008C5000030A300003051
:10020800A2000930A100C930832900302000A300D2
:100218000030A2000030A1006430A0004808A70008
:100228004708A6004608A5004508A4009724200012
:100238002308C8002208C7002108C6002008C500F6
:100248000030A3000030A2000930A100C430832987
:1002580000302000A3000030A2000030A10064306C
:10026800A0004808A7004708A6004608A5004508BA
:10027800A400972420002308C8002208C7002108EA
:10028800C6002008C5000030A3000030A2000930D5
:10029800A100AB30832900302000A3000030A20069
:1002A8000830A1002930A0004808A7004708A60088
:1002B8004608A5004508A400522320002308C800CA
:1002C8002208C7002108C6002008C5002830BE0043
:1002D8000030BF000030C0000030C1003E08C50239
:1002E8003F08C63B4008C73B4108C83BA829003027
:1002F8002000A3000030A2000030A100FF30A000C1
:100308004808A7004708A6004608A5004508A40015
:10031800522320002308C8002208C7002108C6006D
:100328002008C500A82921001D0C890C1F39033A93
:100338000319E628043A031909291A3A03194F2917
:10034800023A03192C297B2947302000A80086305F
:10035800A9004C30872521001D0C890C1F3920006D
:10036800BE00BF013E08B8003F08B9000A30C0000F
:100378004008BA004C302225200020084C3EEA25CF
:1003880025302000A8008630A9004C302225200006
:1003980020084C3E872520004608B9004508B800CB
:1003A8000A30BE003E08BA004C3022252000200842
:1003B8004C3EEA254C30A52320005C08BE003E08D0
:1003C800FD0008007D08013A03195628023A03196E
:1003D8009729073A0319A3280E3A03197728013AEF
:1003E80003199B28073A0319C628013A0319CE288E
:1003F800033A0319DE28013A0319D628032A08000C
:10040800F1012030082634302000A000F130890B9B
:100418000B2AA00B0B2A00322000A2010330A204F1
:100428002208A0002008F100223008262000210818
:1004380080395338A1002108A0002008F100253098
:1004480008262000A412A4150630A4042408A0003D
:100458002008F1002630082620002514A5152515AA
:10046800A5142508A0002008F10020300826200047
:100478002714A7142715A7152716A7162708A000BD
:100488002008F10022300826F1010130082620005A
:10049800A0002008A8002810A8102811A8112812C8
:1004A800A8122808A0002008F10021300826F10130
:1004B8001D3008262000A0002008A30023152308CB
:1004C800A0002008F1003D300826F1011C30082664
:1004D8002000A0002008A9002914A9142915A9158D
:1004E8002916A9162908A0002008F1003C30082682
:1004F8002000A6012617A61626162608A000200802
:10050800F10027300826F101E1300826F101E23038
:100518000826080023008C018E010B138B137830FA
:10052800210099041908FC39023899003430200058
:10053800C200F130890B9E2AC20B9E2A0032D425B4
:1005480021009513220097131708FC3901389700EA
:10055800971797121712971621001D1023000C16D3
:1005680021000C1624000C1223008E1521008E1574
:1005780070309E049E17FC309E0511171D088339A4
:100588000C389D001D140C150B1615131708C139CE
:10059800183897008C1220008C120B178B1710300C
:1005A800A0000030A100652420002108C400200814
:1005B800C3004303343003194406031DE72A0130FE
:1005C800C3000030C4000130C3070030C43D103000
:1005D800A0000030A1004408A3004308A200F423AF
:1005E8005120F42A2000B0002908AE002808AD00E8
:1005F8002B08A1002A08A0002E08A3002D08A2009D
:10060800302420002108AE002008AD000130AC00E5
:100618002C08B0072D082E04031DFC2A300886007C
:10062800870181010130B0022B08A1002A08A0002F
:100638002908A3002808A200F52420002008AC00FF
:100648002C08AF002B08A1002A08A0002908A30045
:100658002808A200302420002108A9002008A800AA
:100668000A302F02031C3C2B0730AC002C08AF07C4
:100678003030AC002C08AF072F08AC0030088600DB
:1006880087012C0881000130B00228082904031DC5
:10069800182B0130AC002C08B007080000302000EF
:1006A800AC000030AB000030AA000030A9002308DD
:1006B80022042104200403199C2BAD01AD0AA31BBD
:1006C800712B0130A035A10DA20DA30D890B662B4E
:1006D8000130A8002808AD07632B0130A935AA0D01
:1006E800AB0DAC0D890B722B23082702031D862B3B
:1006F80022082602031D862B21082502031D862BAE
:1007080020082402031C912B2008A4022108A53BE1
:100718002208A63B2308A73B29140130A336A20CC4
:10072800A10CA00C890B922B0130AD02031D712B7B
:100738002C08A3002B08A2002A08A1002908A00061
:1007480008002000AD00A2252E26A0301426200087
:10075800AE0120002E08A900AA012908A0002A0835
:10076800A100652420002008AB002B08AC00013054
:10077800A9002908AE072C080319C52B2C08142634
:10078800AD2B2000AE012E082D07A90029088600F0
:10079800870101080319DE2B2E082D07A900290857
:1007A800860087010108142601302000A9002908C5
:1007B800AE07C72B352620000C148530890BE22B99
:1007C800000020000C1003302000AA000830A90007
:1007D8007730890BED2BA90BED2BAA0BED2B08001D
:1007E8008B132300950120002008E03EA400073069
:1007F800213DA5002408230091002000250823009E
:1008080092001516151555309600AA3096009514C5
:100818000000000023001511950120002408230082
:100828009100200025082300920015129516151531
:1008380020002208230093002000230823009400AE
:10084800951255309600AA309600951400000000C5
:10085800230015118B1708002000A501A601200808
:1008680021040319602CA701A70AA11B452C0130FC
:10087800A035A10D890B3C2C0130A4002408A70742
:10088800392C0130A535A60D890B462C21082302E9
:10089800031D502C20082202031C572C2008A202FA
:1008A8002108A33B25140130A136A00C890B582C34
:1008B8000130A702031D452C2608A1002508A00029
:1008C80008008B132300950120002008E03EA700B4
:1008D8000730213DA80027082300910020002808A0
:1008E800230092001514000000002000A501A601B5
:1008F800230013082000A200A3012208A500230852
:10090800A600230014082000A200A3012208A300C7
:10091800A2012208A5042308A6048B172608A10013
:100928002508A000080000302000AB000030AA0015
:100938000030A9000030A800201CAA2C2408A80711
:100948002508A93D2608AA3D2708AB3D0130A43556
:10095800A50DA60DA70D890BAB2C0130A336A20C53
:10096800A10CA00C890BB22C23082204210420041A
:10097800031DA02C2B08A3002A08A2002908A10007
:100988002808A00008002000A1000030C80000309E
:10099800C7000030C6000030C500FF30A0002008A6
:1009A800FC0021001D0C890C1F39200021060319A9
:1009B800ED2C2108A000A00DA00D21001D0820008D
:1009C80020068339200621009D00A0300032890BC3
:1009D800EA2C21009D1402302000A0002008FD0010
:1009E800080020002008210403191D2DA501A50ACF
:1009F800A11B082D0130A035A10D890BFF2C01305A
:100A0800A4002408A507FC2C21082302031D0E2D91
:100A180020082202031C142D2008A2022108A33B4F
:100A28000130A136A00C890B152D0130A502031D3C
:100A3800082D2308A1002208A00008002000A70014
:100A48002708A2002208A6002608860087010108B8
:100A58000319332D0130A2002208A607282D2708E4
:100A6800A2000030A300A209A309A20A0319A30A3D
:100A78002608A4000030A50022082407A0002308A7
:100A8800253DA10008002000B7003708B50035084B
:100A9800B600B21F5F2D2D30B500370886008701DC
:100AA800350881000130B5003508B707B109B2092A
:100AB800B10A0319B20A3208A9003108A80034089B
:100AC800AB003308AA003708F622080020000C10F3
:100AD800A0300032890B6D2DF1010030082620006E
:100AE800A0002008A1002118080021142108A00056
:100AF8002008F1002030082620000C14A030003215
:100B0800890B832D08002000AC002C08AA002A08B5
:100B1800AB002B0886008701280884002908850077
:100B28000008C03F8908031908000130AA002A08F4
:100B3800AB070130A8070030A93D8D2D20000C100F
:100B4800A0300032890BA52DF101003008262000C5
:100B5800A0002008A100211C080021102108A000E5
:100B68002008F10020300826A0300032890BB92D6A
:100B78000800F10107300826F4007408F500F51E96
:100B8800CB2D7508F4007408F10027300826751F6E
:100B980008007508F4007408F100273008260800DA
:100BA800FA2520000C103A302000AA002330890BC7
:100BB800DB2DAA0BDB2D04220B302000AA006230AB
:100BC800890BE42DAA0BE42D000008002000BD00CD
:100BD8003908B2003808B1003A08BB00BC013B082C
:100BE800B3003C08B4003D084725080021000C105C
:100BF8008C108E140E110E10240095121512141755
:100C0800F030950595160800F3002E267308142673
:100C180071081426F2007208F100352671080800E0
:100C2800F000700824009100240014181D2E000004
:100C3800182E110808002F3443344F3455344E34DD
:100C480054342F3400342F3442344F344F34543416
:100C58002F34003420008C100D30890B312E000009
:100C680008000D30890B362E000020008C14080077
:100C7800640080010131890B3D2E0034AD34873486
:100C88006634BC34BB342F344134443443340034E8
:060C98000A340A34213485
:100FC00055346E3463346F346E3466346934673448
:100FD0007534723465346434313400340034003490
:100FE0000034003400340034003400340034003461
:100FF0000034003400340034003400340034003451
:020000040001F9
:04000E00DCF9FFFF1B
:00000001FF
