:02000000442892
:100008007E14803120007F08A800111F3B28023091
:100018006306031D3A28A901AA0121001B08200034
:10002800A500A6012508A9002608AA0021001C0889
:100038002000A500A6012508A600A5012508A904F9
:100048002608AA042908C8072A08C93D0030CA3D5D
:10005800CB3D5208031D35280330A5002508E300D1
:10006800372821009D1401302000D20211138B1C67
:100078003F28D1258B1020002808FF007E1009009A
:100088004528D427E300D527E40048308400003011
:1000980085001B30BE277E102000502B20006303F4
:1000A8000319FA296400FA296300000000002000FF
:1000B800031E8319662864082100A1002108200076
:1000C800E300D1015108D10A2100A1000630210224
:1000D800031C080001000800A2302000B30087308C
:1000E800B4005330412710302000AB000030AC0082
:1000F8009F2520002C08C4002B08C3000A302100CB
:10010800A10021082000C5005330B72620002B0885
:10011800533E6F272000B401533019220B302100C1
:10012800A10021082000E3000800E301E30A0430ED
:100138002100A10021082000E40008009A30B30043
:100148008730B4005330412720005008C4004F08BE
:10015800C3000A302100A10021082000C500533047
:10016800B72620002B08533E6F272000B4015330D8
:1001780019220C302100A10021082000E30008000A
:10018800033032260D302100A10021082000E400B0
:100198000800073032260F302100A1002108200076
:1001A800E40008001D3032260E302100A10021088D
:1001B8002000E40008001F3032260B302100A10087
:1001C80021082000E400080000302000AE000030C4
:1001D800AD000030AC006430AB004B08B2004A08F8
:1001E800B1004908B0004808AF00022620002E08D8
:1001F800CB002D08CA002C08C9002B08C800003005
:10020800AE000030AD000930AC00C9308D29003097
:100218002000AE000030AD000030AC006430AB0010
:100228004B08B2004A08B1004908B0004808AF00BE
:10023800022620002E08CB002D08CA002C08C90071
:100248002B08C8000030AE000030AD000930AC000B
:10025800C4308D2900302000AE000030AD000030E1
:10026800AC006430AB004B08B2004A08B100490842
:10027800B0004808AF00022620002E08CB002D0849
:10028800CA002C08C9002B08C8000030AE00003096
:10029800AD000930AC00AB308D2900302000AE0035
:1002A8000030AD000830AC002930AB004B08B2007C
:1002B8004A08B1004908B0004808AF001C242000D3
:1002C8002E08CB002D08CA002C08C9002B08C8002E
:1002D80028302100A1000030A2000030A300003027
:1002E800A40021082000C802210022082000C93BE0
:1002F800210023082000CA3B210024082000CB3B12
:10030800B22900302000AE000030AD000030AC0053
:10031800FF30AB004B08B2004A08B1004908B000F2
:100328004808AF001C2420002E08CB002D08CA0066
:100338002C08C9002B08C800B22921001D0C890C03
:100348001F39033A0319E828043A03190B291A3A02
:1003580003195129023A03192E298529CF30200083
:10036800B3008730B4005330412721001D0C890C9D
:100378001F39A100A20121082000C3002100220882
:100388002000C4000A302100A30023082000C50073
:100398005330B72620002B08533E6F27A03020008B
:1003A800B3008730B4005330B72620002B08533EE3
:1003B800412720004908C4004808C3000A3021002A
:1003C800A10021082000C5005330B72620002B08C3
:1003D800533E6F272000B4015330192220006408CF
:1003E8002100A10021082000E30008002000630884
:1003F800013A03195828023A0319A129073A03199F
:10040800A2280E3A03197028013A03199928073AC5
:100418000319C428013A0319CD28033A0319DF2820
:10042800013A0319D628182A08002000B900340810
:10043800031D522A02302000B6000430B500BA303D
:10044800890B242AB50B242AB60B242A0000023073
:100458002000B6000430B500BA30890B312AB50B3C
:10046800312AB60B312A000002302000B6000430D1
:10047800B500BA30890B3E2AB50B3E2AB60B3E2A88
:10048800000002302000B6000430B500BA30890BF5
:100498004B2AB50B4B2AB60B4B2A0000F030200034
:1004A800CE052000CD1E702A4E080F39B500B50ABA
:1004B8004E083506F0393506CE004E080F390F3A8A
:1004C8000319010034302000B500F130890B6A2A85
:1004D800B50B6A2A0032552AE130CD0520004D1CA3
:1004E8008E2A4D0C0F39B500B50AB50D4D083506E5
:1004F800E1393506CD004D0C0F390F3A03190100CB
:1005080006302000B5003030890B882AB50B882AC0
:100518000000722A0030B7270030F8242000CD16DA
:10052800340C031C4D1003184D14A927B0308F2725
:100538002000BA0120003A08B500B6013508AB0022
:100548003608AC009F2520002B08B7003708B800F4
:100558000130B5003508BA0738080319B62A380833
:100568008F279E2A2000BA013A083907B5003508B6
:100578008600870101080319CF2A3A083907B50010
:1005880035088600870101088F2701302000B50053
:100598003508BA07B82AB02720000C141A30890B7E
:1005A800D32A003220000C100130B72708002000A1
:1005B800B1103108AB002B08A00020305C27343084
:1005C8002000AB00F130890BE72AAB0BE72A003299
:1005D80020002E14AE142E15AE152E16AE162E08AB
:1005E800AB002B08A00022305C272000A0010130BE
:1005F8005C272000AB002B08AF002F10AF102F1185
:10060800AF112F12AF122F08AB002B08A00021301A
:100618005C272000A0011D305C272000AB002B08C0
:10062800AC002C152C142C08AB002B08A0003D3076
:100638005C272000A0011C305C272000AB002B08A1
:10064800B0003014B0143015B0153016B01630089C
:10065800AB002B08A0003C305C272000AD012D1713
:10066800AD162D162D08AB002B08A00027305C27EF
:100678002000A001E1305C272000A001E2305C27C7
:1006880020003114B1153115B1143108AB002B0815
:10069800A00020305C27080023008C018E010B137A
:1006A8008B137830210099041908FC390238990015
:1006B80034302100A500F130890B602BA50B602B8D
:1006C8000032232721009513220097131708FC39BD
:1006D80001389700971797121712971621001D10C7
:1006E80023000C1621000C1624000C1223008E1572
:1006F80021008E1570309E049E17FC309E05111740
:100708001D0883390C389D001D140C150B16151384
:100718001708C139183897008C1220008C120B1753
:100728008B171030AB000030AC009F2520002C0840
:100738002100A70020002B082100A6002603343042
:1007480003192706031DAC2B0130A6000030A700B3
:100758000130A6070030A73D10302000AB00003064
:10076800AC00210027082000AE0021002608200048
:10077800AD00BC245220BE2B2000BB003408B900B9
:100788003308B8003608AC003508AB003908AE00AD
:100798003808AD006A2520002C08B9002B08B800DD
:1007A8000130B7003708BB0738083904031DC62BCA
:1007B8003B088600870181010130BB023608AC0086
:1007C8003508AB003408AE003308AD0060262000C1
:1007D8002B08B7003708BA003608AC003508AB005C
:1007E8003408AE003308AD006A2520002C08B40098
:1007F8002B08B3000A303A02031C062C0730B70056
:100808003708BA073030B7003708BA073A08B700D0
:100818003B0886008701370881000130BB02330896
:100828003404031DE22B0130B7003708BB0708006A
:1008380000302000B7000030B6000030B5000030AE
:10084800B4002E082D042C042B040319662CB801BF
:10085800B80AAE1B3B2C0130AB35AC0DAD0DAE0D5F
:10086800890B302C0130B3003308B8072D2C013028
:10087800B435B50DB60DB70D890B3C2C2E083202D8
:10088800031D502C2D083102031D502C2C0830025A
:10089800031D502C2B082F02031C5B2C2B08AF02C6
:1008A8002C08B03B2D08B13B2E08B23B3414013064
:1008B800AE36AD0CAC0CAB0C890B5C2C0130B8021D
:1008C800031D3B2C3708AE003608AD003508AC00D8
:1008D8003408AB0008002000A00160305C27F90054
:1008E80079082000A100A301210823020318B62CCF
:1008F80000308F27F90079082000A2002F30220647
:100908000319B62C2308F900FA017908F0007A08CF
:10091800F1008D2620002208FB00FC0171087C06EE
:10092800031D982C70087B0603199C2C4E12080096
:100938000130F9007908A307782C00308F27F900D7
:1009480079082000A2002208F9005330DC2670083C
:10095800533E86008701790881000130F900790843
:100968002000A30721082302031CA12C4E1608000F
:100978008B132300950120002B08E03EAF000730C1
:100988002C3DB0002F0823009100200030082300E0
:1009980092001516151555309600AA309600951434
:1009A8000000000023001511950120002F082300E6
:1009B8009100200030082300920015129516151595
:1009C80020002D082300930020002E082300940007
:1009D800951255309600AA30960095140000000034
:1009E800230015118B1708002000AC00A00100306F
:1009F8005C272000AB002B08AD002C0C031CCE128A
:100A08000318CE16CE1E0A2D01300B2D0030AB0078
:100A18002D1C102D0130112D00302B060319080054
:100A28000C10A0300032890B162D20002D10CE1A84
:100A38002D1420002D08AB002B08A00020305C27C7
:100A4800A0300032890B252D2000CE1E08000C1482
:100A5800A0300032890B2D2D0800F4002000A001E1
:100A680000305C27F3007308F500740C2000031CA9
:100A7800CE120318CE16CE1E432D0130442D003061
:100A8800F300751C492D01304A2D003073060319F7
:100A980008000C10A0300032890B4F2D7510200073
:100AA800CE1A75147508F30073082000A0002030D2
:100AB8005C27A0300032890B5E2D2000CE1E080076
:100AC8000C14A0300032890B662D08002000B101FB
:100AD800B2012B082C0403199A2DB001B00AAC1BE3
:100AE8007F2D0130AB35AC0D890B762D0130AF0071
:100AF8002F08B007732D0130B135B20D890B802D49
:100B08002C082E02031D8A2D2B082D02031C912D63
:100B18002B08AD022C08AE3B31140130AC36AB0CBF
:100B2800890B922D0130B002031D7F2D3208AC00D5
:100B38003108AB0008008B132300950120002B0817
:100B4800E03EB20007302C3DB3003208230091008C
:100B58002000330823009200151400000000200034
:100B6800B001B101230013082000AD00AE012D082B
:100B7800B0002E08B100230014082000AD00AE011B
:100B88002D08AE00AD012D08B0042E08B1048B1756
:100B98003108AC003008AB0008002000A001073085
:100BA8005C27FD007D082000CC004C0803190100DB
:100BB80020004C0A0319010020004C1FEE2D4D1097
:100BC800A40124172408FD007D08A00027305C2715
:100BD8006F24C4272000CC1E0800A401A4162408F2
:100BE800FD007D08A00027305C272000CD12CE1A1A
:100BF80008000130CF070030D03D08000030200049
:100C0800B6000030B5000030B4000030B3002B1C33
:100C1800152E2F08B3073008B43D3108B53D32080A
:100C2800B63D0130AF35B00DB10DB20D890B162EA2
:100C38000130AE36AD0CAC0CAB0C890B1D2E2E085A
:100C48002D042C042B04031D0B2E3608AE0035088A
:100C5800AD003408AC003308AB0008002000AC003D
:100C68000030CB000030CA000030C9000030C80096
:100C7800FF30AB002B08D20021001D0C890C1F3956
:100C880020002C060319582E2C08AB00AB0DAB0D19
:100C980021001D0820002B0683392B0621009D000A
:100CA800A0300032890B552E21009D1402302000FF
:100CB800AB002B08E300080020002B082C040319C4
:100CC800882EB001B00AAC1B732E0130AB35AC0DC9
:100CD800890B6A2E0130AF002F08B007672E2C0849
:100CE8002E02031D792E2B082D02031C7F2E2B08A4
:100CF800AD022C08AE3B0130AC36AB0C890B802E14
:100D08000130B002031D732E2E08AC002D08AB0075
:100D180008008B13230095017008E03EF7000730A8
:100D2800713DF800770891007808920015140000CA
:100D38000000F501F60123001308F200F301720820
:100D4800F5007308F6001408F200F3017208F300C6
:100D5800F2017208F5047308F6048B177608F1009F
:100D68007508F00008002000B2003208AD002D0818
:100D7800B10031088600870101080319C82E013027
:100D8800AD002D08B107BD2E3208AD000030AE0011
:100D9800AD09AE09AD0A0319AE0A3108AF0000303B
:100DA800B0002D082F07AB002E08303DAC0008001E
:100DB800F6007608F2007208F700770886008701C7
:100DC80001080319EC2E0130F2007208F707E12E32
:100DD8007608F2000030F300F209F309F20A031969
:100DE800F30A7708F4000030F50072087407F00081
:100DF8007308753DF10008002000C2004208C000D9
:100E08004008C100BD1F182F2D30C00042088600C1
:100E18008701400881000130C0004008C207BC09B2
:100E2800BD09BC0A0319BD0A3D08B4003C08B3005B
:100E38003F08B6003E08B5004208C02308008127D5
:100E480020000C103A302000B2002330890B2A2FE2
:100E5800B20B2A2FDB220B302000B2006230890B44
:100E6800332FB20B332F00002000A00107305C277E
:100E78002000B2003208CC0008002000B700370874
:100E8800B5003508B60036088600870133088400A7
:100E9800340885000008C03F89080319080001309C
:100EA800B5003508B6070130B3070030B43D472F09
:100EB800F2000030B727A92772088F2720002008E2
:100EC8008F27F10071082000A000B0270130B72754
:100ED8002000200808002100A00020004408BD00D0
:100EE8004308BC004508C600C7014608BE004708BD
:100EF800BF00210020080027080021000C108C10DA
:100F08008E140E110E102400951215121417F030BD
:100F1800950595160800F00070082400910024003B
:100F28001418982F0000932F110808002F34433409
:100F38004F3455344E3454342F3400342F34423423
:100F48004F344F3454342F34003420008C100D307B
:100F5800890BAC2F000008000D30890BB12F000061
:100F680020008C140800F000700C031C0B120318EE
:100F78000B160800640080010131890BBF2F003473
:100F880020004D104E12003031250800AD34873452
:100F98006634BC34BB342F344134443443340034D5
:060FA8000A340A34213472
:100FC00055346E3463346F346E3466346934673448
:100FD0007534723465346434313400340034003490
:100FE0000034003400340034003400340034003461
:100FF0000034003400340034003400340034003451
:020000040001F9
:04000E00DCF9FFFF1B
:00000001FF
