:020000040000FA
:0400000080313228F1
:10000800803174082000A0007508A1007C08A200B7
:100018007D08A3007F08A400AF3086002230870047
:100028007508A5002700931D1E2888310E208031F1
:10003800270093112000101C25288C316D242000E6
:100048001010111B11132508FF002408FD002308B8
:10005800FC002208F5002108F4000900803134284A
:1000680021008731FF278031E9002000E401E50104
:10007800E601E701E801E901DC3084000030850091
:100088000D30883113208031203084000130850004
:100098002D30883113208031A03084000130850054
:1000A80042308831132020006D30860021308700CF
:1000B8008E31BE2E2000CF003D30FF007F08CA00E1
:1000C8003C08FF003B08FE00BB0A0319BC0A7E0877
:1000D80084007F0885000008FF007F08D4005408CA
:1000E8000319252A25305406031987285408FF00C8
:1000F8004F088400013085007F0880000130FF0030
:100108007F08CF076428D001D101C9013B088400CA
:100118003C0885000008883154208031031CC5281C
:100128002000D001D1010A30F0000030F100200099
:100138005108F3005008F200893114218031710808
:100148002000D1007008D0003B0884003C088500DE
:100158000008D03EFE00FF3003180030FF007E0884
:10016800D0077F08D13D0130BB070030BC3D3B08BC
:1001780084003C0885000008883154208031031829
:10018800972820003B0884003C08850012002E3A7E
:10019800031D03290130BB070030BC3DD201D30148
:1001A8003B0884003C0885000008883154208031D1
:1001B800031C0E2920003B0884003C088500000829
:1001C800FE00FF015308F1005208F0000A30F20067
:1001D8000030F3008931142180317E087007FC005B
:1001E8007F08713DFD007C08D03E2000D200FF3022
:1001F8007D3DD3000130BB070030BC3DD428200032
:10020800D201D3010E2949160E29C030FF007F08FC
:10021800C904262920003C08FF003B08FE00BB0A51
:100228000319BC0A7E0884007F0885000008D400F2
:10023800003A0319252A6C3A03190729193A0319B0
:1002480009296428491E35294A0884008501003F88
:10025800CB00013FCC00023FCD00033FCE0004306D
:1002680043294A0884008501003FFE00013FFF0042
:100278007E08CB007F08CC00CD01CE010230FF0004
:100288007F08CA0752085304031D54294E084D0419
:100298004C044B04031D54290130D2070030D33DD0
:1002A800D401D40A0A305406031987295408FE00D9
:1002B800FF01FE35FF0DFE35FF0D00307E0784007F
:1002C80090307F3D8500003FC500013FC600023FDA
:1002D800C700033FC80048084E02031D7D29470890
:1002E8004D02031D7D2946084C02031D7D29450842
:1002F8004B02031C87290130FF007F08D4070A300E
:100308005406031D5A295308803A803C031D8E2940
:10031800520854020318962920005208FF007F084B
:10032800D400AA2920005308803AC500803045022D
:10033800031DA029540852020318AA2920005408B2
:10034800FE00FF017E08D2007F08D300200051087C
:10035800803A803C031DB229500854020318BD2975
:1003680020005408FE00FF017E08D0027F08D13B20
:10037800C0292000D001D1015008510403191A2ABC
:100388002030FF004F088400013085007F0880007E
:100398000130FF007F08CF07FF30D007FF30D13D85
:1003A800C0290030B6000030B5000030B4000A3073
:1003B800B30053088500520884008435850D8435C0
:1003C800850D003084079030853D003FA600013F31
:1003D800A700023FA800033FA9004E08AD004D0842
:1003E800AC004C08AB004B08AA008C31FA248031D1
:1003F80020002908BA002808B9002708B8002608EC
:10040800B7008B31A423803120003308303EFF0031
:100418007F08D4005408FF004F088400013085008D
:100428007F0880000130FF007F08CF07FF30D20728
:10043800FF30D33D520A031DD529530A03196428F6
:10044800D5294F088400013085008001080000305C
:100458001E000030883182208231FF007F08200092
:10046800E700E71067081E002030883182208231BB
:100478002000A9010330A90429081E00233088316F
:10048800822082312000280880390238A8002808F4
:100498001E0025308831822082312000AB01AB124A
:1004A800AB150630AB042B081E002630883182209D
:1004B8008231FF3089315021823100301E000130F5
:1004C800883182208231FF007F082000AC002C1088
:1004D800AC102C11AC112C12AC122C081E002130BF
:1004E80088318220823100301E001D308831822000
:1004F8008231FF007F082000AA002A152A142A0842
:100508001E003D3088318220823100301E001C30B0
:10051800883182208231FF007F082000AD002D1431
:10052800AD142D15AD152D16AD162D081E003C3039
:100538008831822082312000AE01AF0100302F02C5
:10054800063003192E020318022B8831322082311B
:1005580020002E080A3E20388831622082313E3041
:1005680084009030850000082000A7002E08FF00B6
:100578007F08F0002830840090308500000888311A
:1005880071208231200027078831622082310030B3
:1005980020002F02023003192E020318F32A3D30DF
:1005A80084009030850000088831622082313C3018
:1005B80084009030850000088831622082313B3009
:1005C80084009030850000088831622082313A30FA
:1005D800840090308500000888316220823188319B
:1005E8002920823101302000AE070030AF3D0030B5
:1005F8002F02063003192E02031CA92A00308C3161
:100608002A2482312000E6016617E6166616660877
:100618001E00273088318220823100301E000730CA
:10062800883182208231FF007F082000E6000030F8
:100638001E00E13088318220823100301E00E23015
:1006480088318220823120006714E7156715E71486
:1006580067081E00203088318220080020002B08FF
:10066800FD002C08FE002D08FF0003107E0D7F0DF5
:10067800FF007F08B4002E08FD002F08FE00300898
:10068800FF0003107E0D7F0DFF007F08B3003408C4
:1006980003195A2B330834020318612B3403FF3A29
:1006A8003307B10019303102031C612B2E08AB004F
:1006B8002F08AC003008AD00080033080319080003
:1006C800340833020318702B3303FF3A3407B100A0
:1006D80019303102031808000630FF007F08B20005
:1006E800AD1BB217B01B3217AC17FF30AB05FF308C
:1006F800AC050030AD05AF17FF30AE05FF30AF05D4
:100708000030B005330834020318AC2B0130AE3585
:10071800AF0DB00D890B8B2B0130B30233083406B3
:100728000319A72B0130B202320807390319A72B86
:100738008A2B0130AD36AC0CAB0C890B9E2B0130EB
:10074800FF007F08B407340833060319D12B9D2B0B
:10075800340833020318D12B0130AB35AC0DAD0D85
:10076800890BB12B0130B402330834060319CD2BA1
:100778000130B202320807390319CD2BB02B0130F2
:10078800B036AF0CAE0C890BC42B0130FF007F08CC
:10079800B30734083306031DC32BB21FE32BFF3006
:1007A800AB06FF30AC06FF30AD060130AB070030BA
:1007B80003180130AC07003003180130AD07321FB1
:1007C800F52BFF30AE06FF30AF06FF30B006013024
:1007D800AE07003003180130AF07003003180130AE
:1007E800B007B2012B08AE072C08AF3D2D08B03D6D
:1007F800B01F102CFF30AE06FF30AF06FF30B0063A
:100808000130AE07003003180130AF07003003187D
:100818000130B007B201B20A2E08A6002F08A700BF
:100828003008A8003408FF007F08A9003208FF003C
:100838007F08AA008D314D2520002608AB00270827
:10084800AC002808AD0008002C302100B1000230AF
:10085800B2003430B3009030B4006708F100660885
:10086800F0008831A920843170082100B500710892
:10087800B6007208B7008D31B2258431CF30200020
:10088800CB004630CC004030CD00043087315A27A9
:10089800843120004208CE004308CF004408D0002D
:1008A8008531FC25843120004B082400A600200057
:1008B8004C082400A70020004D082400A8002C3074
:1008C8002100B1000230B2004430B3009030B400CF
:1008D800240026082100B500240027082100B600BE
:1008E800240028082100B7008D31B2258431220068
:1008F80097163D3087315A27843120004208CB00B3
:100908004308CC004408CD008831202084312000E1
:100918004B082400A90020004C082400AA0020004D
:100928004D082400AB0000302000B5000030B600B0
:100938004030B7001230AB000330AC004030AD009F
:10094800240029082000AE0024002A082000AF0057
:1009580024002B082000B00083313223843120008A
:100968002B08B8002C08B9002D08BA008F3157277A
:100978008431200035082400A00020003608240017
:10098800A100200037082400A20022009712A930F5
:100998002000AB00D130AC004330AD000430B500CE
:1009A800AD30B600BA30B700240020082000B800E7
:1009B800240021082000B900240022082000BA00E1
:1009C8008F315727843120003508AE003608AF0034
:1009D8003708B00083313223843120002B082400EB
:1009E800A30020002C082400A40020002D082400C7
:1009F800A5002C302100B1000230B2003F30B30016
:100A08009030B400240023082100B50024002408F5
:100A18002100B600240025082100B7008D31B22539
:100A280008003C30FF007F082100AC0020082000AF
:100A3800A600210021082000A7002100220820008C
:100A4800A8000030A9000030AA000030AB008B31AC
:100A5800682385310318572D2D30FF0021002C08FD
:100A68008400013085007F0880000130FF007F0886
:100A7800AC0720082000CB00210021082000CC0072
:100A8800210022082000CD00883120208531200057
:100A98004B082100A00020004C082100A1002000E4
:100AA8004D082100A200210020082000D7002100C5
:100AB80021082000D800210022082000D9008E310A
:100AC8003726853120005A082100AB00200059083C
:100AD8002100AA00200058082100A900200057087A
:100AE8002100A8002B08F3002A08F2002908F100C9
:100AF8002808F0008A311522853170082000B500D9
:100B08007108B6007208B700210020082000B8005C
:100B1800210021082000B900210022082000BA0085
:100B28008831F6208531200035082100A0002000FA
:100B380036082100A100200037082100A200200863
:100B48002000CE00210021082000CF00210022082B
:100B58002000D0002430CB007430CC004930CD00C8
:100B68008531FC25853120004B08D7004C08D8007A
:100B78004D08D9008E313726853120005A082100CA
:100B8800A700200059082100A600200058082100CD
:100B9800A500200057082100A40029302000BB0030
:100BA8009030BC0021002B082000C00021002A083A
:100BB8002000BF00210029082000BE0021002808CD
:100BC8002000BD00210027082000C40021002608BD
:100BD8002000C300210025082000C20021002408AD
:100BE8002000C10021002C0880315E203C30080024
:100BF80020004B08FD004C08FE004D08FF000310C4
:100C08007E0D7F0DFF007F08D1005108031D132EB4
:100C18000030CB000030CC000030CD0008004E087A
:100C2800FD004F08FE005008FF0003107E0D7F0DE9
:100C3800FF007F08D6005608031D292E0030CB0080
:100C48000030CC000030CD00080056087B3EFF0085
:100C58007F08D1074B08FD004C08FE004D08FF0037
:100C68001030FF36FE0CFD0C890B352E7D08FF0079
:100C78007F08D6004E08FD004F08FE005008FF0010
:100C88001030FF36FE0CFD0C890B452E7D08FF0049
:100C98007F08D6068030FF007F08D605CC17CF170F
:100CA800FF30CE05FF30CF050030D0050030D20030
:100CB8000030D3000030D4000730FF007F08D50093
:100CC8004B1C6C2E4E08D2074F08D33D5008D43D1C
:100CD8000130CD36CC0CCB0C890B6D2E0130CE35C6
:100CE800CF0DD00D890B732E0130D502031D642E54
:100CF8000930FF007F08D5004B1C882E4E08D2070C
:100D08004F08D33D5008D43D0130CD36CC0CCB0C28
:100D1800890B892E0130D436D30CD20C890B8F2E37
:100D28000130D502031D802E5208A6005308A700E3
:100D38005408A8005108FF007F08A9005608FF00C2
:100D48007F08AA008D314D2520002608CB002708F2
:100D5800CC002808CD000800423120006403031DA0
:100D6800BB2E0230E400C1308C31B324863103300D
:100D78006406031DCA2EE803680A031DCA2E210053
:100D8800E60A0319E70A01302000E4006503031DA1
:100D98002E2F20301E0000301E0000301E001E00C6
:100DA800A1301E0001301E008A31C722863123007F
:100DB800A00100301E006030883182208631FE3F5D
:100DC80020000C1088313220863161308831622051
:100DD800863100308831622086312300A0007E3FB2
:100DE800F40001307402FE3F0030FF3F7F3FFF00F8
:100DF8007E3F7F0203180F2F7F3FA13E8400013002
:100E080001308500003088316220863180007F3FC4
:100E1800013EFF3FFA2E88312920863120000C142C
:100E2800660C0739FF00FF0E230020087F068F3964
:100E38007F06A00000301E000930883182208631EC
:100E4800FF00230020087F06FE397F06A00002303D
:100E58002000E50002306506031D4B2F2300A01D6E
:100E68004B2F033020006406031D4B2FC2301E0099
:100E7800A1308931EC21863174087504031D4B2F8C
:100E88002000E401E50100308B312D23863102304A
:100E980020006506031D582F2300201D582F201100
:100EA800A015A0308C31B3247E3108002000C60084
:100EB8000030C8000030C9000030CA006F30FF00A1
:100EC8007F08C7004608C500C50DC50D21001D08CF
:100ED800200045060339450621009D00220097178A
:100EE80021001D140130F0000030F1008A313F224A
:100EF800873101302000C702470A0319B62F2100A5
:100F08009D1421009D1C902F0130F0000030F1004D
:100F18008A313F228731852F1C08FE00FF017E0899
:100F2800FF00FE017E081B04F0007F08F1008931F4
:100F3800CA21873170082000AB007108AC00720824
:100F4800AD004808AE004908AF004A08B000833138
:100F58003223873120002B08C8002C08C9002D082F
:100F6800CA007D2F2200971321001D100030200099
:100F7800B500DE30B6004230B7004808B80049086E
:100F8800B9004A08BA008F31572787312000350841
:100F9800C8003608C9003708CA0021001E080339EE
:100FA800033A0319F02FF72F00302000B500FA306C
:100FB800B6004330B7004808B8004908B9004A08E5
:100FC800BA008F315727873120003508C800360806
:100FD800C9003708CA00F72F220017080339023A58
:100FE8000319D82FF72F20004808C2004908C3006A
:080FF8004A08C400080020347F
:10101C002100E80120001B10080064008001013150
:10102C00890B1428003421001708C139183897008F
:10103C006400080020004D084C044B040319080000
:10104C008030CD0608001A30890B2A280032200087
:10105C008C142100101408002100101020008C109A
:10106C001A30890B372800320800710831009200C1
:10107C0070089100151715140000000031001308BA
:10108C0008002000A6000030F000F1002608FF0048
:10109C007F08F20089318C2101000800F100F00179
:1010AC003A3071020318602830307102031C60283A
:1010BC00F001F00A700C08004131FF3F7F3F240023
:1010CC00910020000E16240014186E2800006928C8
:1010DC0011087F310800F200F101721C79287008A8
:1010EC00FF007F08F1070310F00D0310F20C7208DB
:1010FC00031D7328710808004131FF3F88313220ED
:10110C0088317F3F8831622088317E3F8831622070
:10111C008831FE3F883129207E3F7E310800270030
:10112C009115210010160E1220000E1224008C11A5
:10113C0020001B101B083F3940389B00CF309B050B
:10114C001B159C13080070082000A6007108A7004E
:10115C00A8018E30FF007F08A900AA018D314D2512
:10116C0020002608F0002708F1002808F2000800EB
:10117C002000AB002B08FD00FE01FF017D08A6003E
:10118C007E08A7007F08A8008E30FF007F08A9000A
:10119C00AA018D314D2520002608F0002708F1000A
:1011AC002808F200080071082000A7007008A600AB
:1011BC0072088400730885000008FF00260884006C
:1011CC00270885007F0880000008031908000130FB
:1011DC00A6070030A73D0130F2070030F33DDE28B2
:1011EC0020003708360435040319FE288030B70672
:1011FC003808AB003908AC003A08AD003508AE0031
:10120C003608AF003708B0008331322320002B089A
:10121C00B5002C08B6002D08B70008002000A60168
:10122C00A701701C1E2972082000A6077308A73D91
:10123C000130F235F30D890B1F290130F136F00C1A
:10124C00890B242970087104031D17292000270815
:10125C00F1002608F00008004231FE3F0608840029
:10126C00070885003E31003FFF3F7F3F840001307F
:10127C0085000008031946297F3F013EFF3F3B29AB
:10128C007F3FFF007E3F7F02F400F501F41BF50366
:10129C007E310800F10006307102031C5C297214C7
:1012AC00F2147215F2157216F2166829721472087D
:1012BC00F000710A6229F035890B61297008FF0072
:1012CC007F08F20072081E0022308831822008004C
:1012DC0021000C108C108E140E110E10240095127F
:1012EC003D002108E0391138A1002208E0391938F5
:1012FC00A2002008E0391838A00024001512141799
:10130C001508F039013895009516080000308B1B34
:10131C000130F300710831009200700891007208DE
:10132C009300151715158B1355309600AA3096009F
:10133C009514A129000031009518A0291511730CE2
:10134C00031C8B1303188B17080089316E2189310C
:10135C0020000C100B302000B0006230890BB42937
:10136C00B00BB429000082312B2289310B302000C4
:10137C00B0006230890BC029B00BC02900002000DE
:10138C000C14E401E5010800F301F11FD429F00964
:10139C00F109F00A0319F10AF301F30A70082000AD
:1013AC00A6007108A700A8018E30FF007F08A900D5
:1013BC007308FF007F08AA008D314D2520002608F8
:1013CC00F0002708F1002808F20008004231FE3F27
:1013DC00FC297E3F840001308500000803190E2A89
:1013EC007E3F013EFE3F7D3F013EFD3F7D3F840041
:1013FC00013085000008FF007E3F8400013085002D
:10140C000008F4007F087402FF3F89080319EF29D4
:10141C007F3FF400F501F41BF5037D3108008E309D
:10142C00FF007F082000AB00FF30730503192A2A48
:10143C000130F336F20CF10CF00C890B1F2A013041
:10144C00FF007F08AB071A2A7008A6007108A700D6
:10145C007208A8002B08FF007F08A900AA018D3193
:10146C004D2520002608F0002708F1002808F2007E
:10147C000800F301133073020318682A7108FF0087
:10148C007008FE00730A4C2AFF36FE0C890B4A2AA0
:10149C007E1C602A7308F200F20D210017087206F8
:1014AC00C139720697006300000000002000031E83
:1014BC008319502A0130FF007F08F30713307302A1
:1014CC00031C442A88311920080070087104031980
:1014DC00932A2000A601A60AF11B7E2A0130F035C2
:1014EC00F10D890B752A0130FF007F08A607722ABF
:1014FC0071087302031D842A70087202031C8A2A65
:10150C007008F2027108F33B0130F136F00C890BD4
:10151C008B2A0130A602031D7E2A7308F100720883
:10152C00F000080021002E082000E20021002D0808
:10153C002000E1006108840062088500000803199E
:10154C00B52A0130E1070030E23DA02A0130E10765
:10155C000030E23D01302100AF070030B03D2100EA
:10156C002F088400300885000008FF002000610867
:10157C008400620885007F088000000803190800B9
:10158C00AC2A423106088400070885003C31003F34
:10159C00FE3F013FFF3F783FF40001307402F83FFB
:1015AC00793FF4000030743BF93F783FFF3AF40088
:1015BC00793FFF3AF4040319F72A7A3FFF007E3F84
:1015CC00FC007F3FFD007C0884007D0885007F08BF
:1015DC0080007E3F013EFE3FF4017F3F743DFF3FA4
:1015EC00D12A783108002000A900A801AA01AA017B
:1015FC002908893132218A3120002A08FE00FF0196
:10160C0075087F02031D0C2B74087E0203181E2B19
:10161C002A082907A7002708840001308500000844
:10162C00FF007F08A8070130FF007F08AA07FE2AE9
:10163C000630F0000030F1002808FE00FF017E08A3
:10164C00F2007F08F3008A316B22700808004131E8
:10165C00FF3F7F3F0319372B02302000640603192C
:10166C00662B7F3F031D3F2B0330200064060319BC
:10167C00662B7F3FFF002000670801397F060319A6
:10168C00662B0C10C0300032890B492B7F3F01397F
:10169C002000031D67140319671067081E00203013
:1016AC00883182208B31C0300032890B5A2B7F3F1E
:1016BC000319662B20000C14C0300032890B632BED
:1016CC007F3108002000A81F7F2B2609FD00270969
:1016DC00FE002809FF00FD0A0319FE0A0319FF0A80
:1016EC0000307D07A60000307E3DA70080307F3D96
:1016FC00A800AB1F952B2909FD002A09FE002B0918
:10170C00FF00FD0A0319FE0A0319FF0A00307D07CA
:10171C00A90000307E3DAA0080307F3DAB008030B8
:10172C00A8068030AB062B082802031D08002A08E7
:10173C002702031D0800290826020800200036088D
:10174C003504340433040319DE2BF001F00AB61B04
:10175C00BB2B0130B335B40DB50DB60D890BB02BC9
:10176C000130FF007F08F007AD2B36083A02031D4D
:10177C00C92B35083902031DC92B34083802031D47
:10178C00C92B33083702031CD32B3308B702340898
:10179C00B83B3508B93B3608BA3B0130B636B50C08
:1017AC00B40CB30C890BD42B0130F002031DBB2BF2
:1017BC003A08B6003908B5003808B4003708B30049
:1017CC000800E8302000AA000330AB0020006408B9
:1017DC0003190A2C0130F0000030F1008A313F224D
:1017EC008B318631B0268B3101302000AA020030BB
:1017FC00AB3B2A0A031DEC2B2B0A031DEC2B1530DB
:10180C00883147208B31EC2BC230F0000130F100D5
:10181C002808013EFE000030293DFF007E08F20042
:10182C007F08F3008831D92020002808840029087B
:10183C0085000008FF007F082300C1000130FF0075
:10184C007F082000E40008002000A6008831322028
:10185C008C313030883162208C313E3084009030B5
:10186C0085000008F30028308400903085000008C3
:10187C00FF007F08F00020002608883171208C3191
:10188C007307883162208C313D30840090308500A4
:10189C000008883162208C313C3084009030850007
:1018AC000008883162208C313B30840090308500F8
:1018BC000008883162208C313A30840090308500E9
:1018CC000008883162208C318831292008000030D2
:1018DC001E000730883182208C31FF007F082000E9
:1018EC00E600661F852C6508031D812C0130FF0066
:1018FC007F08E500822C66138631B0268C312000DF
:10190C00E61EAC2C6908840001308500001D9B2C60
:10191C000330FF007F08E400FF30FF007F08E80081
:10192C0001308B312D238C31A92C200069088400C7
:10193C0001308500801DA72C01308B312D238C317B
:10194C00A92C2000E4018631B0268C3120006608D9
:10195C001E0027308831822008004331FD3F7D3F37
:10196C002000E90000308B312D238C31883132205E
:10197C008C31B030883162208C31200069088400B1
:10198C000130013085000008883162208C31200044
:10199C006908013E893132218C317408FF3F0030D7
:1019AC00FE3F7E3FFF007F3F7F020318EE2C7E3F01
:1019BC0020006907FF007F0A840001300130850098
:1019CC000008883162208C317E3F013EFE3FD72CCF
:1019DC00883129208C3120000C142030890BF42CF8
:1019EC0020000C107D31080000302000B1000030C8
:1019FC00B0000030AF000030AE00290828042704E6
:101A0C0026040319442DB201B20AA91B192D013069
:101A1C00A635A70DA80DA90D890B0E2D0130FF00C1
:101A2C007F08B2070B2D0130AE35AF0DB00DB10DE7
:101A3C00890B1A2D29082D02031D2E2D28082C0286
:101A4C00031D2E2D27082B02031D2E2D26082A02DE
:101A5C00031C392D2608AA022708AB3B2808AC3BEF
:101A6C002908AD3B2E140130A936A80CA70CA60CE6
:101A7C00890B3A2D0130B202031D192D3108A90032
:101A8C003008A8002F08A7002E08A6000800200088
:101A9C0029080319562D280827042604031D672D31
:101AAC000030A6000030A7000030A800080001306C
:101ABC00FF007F08A9070130A836A70CA60C890BDC
:101ACC00622DFE3028050319802D5D2D0130FF009D
:101ADC007F08A9070130A607003003180130A707BB
:101AEC00003003180130A8070130A836A70CA60C4B
:101AFC00890B7B2DFF30280503198D2D6C2D0130A2
:101B0C00A9020130A635A70DA80D890B882DA71B9E
:101B1C00932D023029020318852D29189B2DFF3097
:101B2C00A6057F30A705FF30A8050310A90C2908CE
:101B3C00FD00FE01FF011030FD35FE0DFF0D890B80
:101B4C00A22D7D08A6047E08A7047F08A8042A08F5
:101B5C0003190800A817080020301E0000301E00D2
:101B6C0000301E001E0021003108013EFE00003036
:101B7C00323DFF007E081E007F081E008A31C722FE
:101B8C008D3121003108013EF0000030323DF10072
:101B9C006908013EF2000130F3008831D9208D3103
:101BAC0021003108013EAD000030323DAE00523014
:101BBC00AF009030B0008A3198228D31210031086D
:101BCC00013EAD000030323DAE003408B0003308A9
:101BDC00AF008A3198228D3121003108013EAD00D1
:101BEC000030323DAE005230AF009030B0008A3140
:101BFC0098228D3121003108013EAD000030323D7C
:101C0C00AE003508A0003608A1003708A200B83095
:101C1C00FF007F08A300853115258D312100AF0011
:101C2C000130B0008A3198228D31210031088400B6
:101C3C0032088500800131088400320885000015C7
:101C4C0032082000A900210031082000A8008B31A7
:101C5C00E7238D31F430F0000130F1008A313F225E
:101C6C00080020005708FD005808FE005908FF0026
:101C7C0003107E0D7F0DFF007F08E0006008031D40
:101C8C00502E0030DA000030D9000030D80000307F
:101C9C00D70008005708FD005808FE005908FF003F
:101CAC001730FF36FE0CFD0C890B572E7D08FF00FC
:101CBC007F08DB00D817FF30D705FF30D805003080
:101CCC00D9055708DC005808DD005908DE00DF0193
:101CDC008E30E002E01F8E2E6008803A8F3E031893
:101CEC00802E0030DA000030D9000030D8000030EF
:101CFC00D70008000130DF36DE0CDD0CDC0C890B64
:101D0C00812E0130FF007F08E0070319A72E802EDB
:101D1C0018306002031CA42E0030DA000030D90009
:101D2C000030D8000030D70008000130DC35DD0D64
:101D3C00DE0DDF0D890B9C2E0130E0026008031DC7
:101D4C009B2E5B080319B52EDC09DD09DE09DF09C2
:101D5C00DC0A0319DD0A0319DE0A0319DF0A5F081E
:101D6C00DA005E08D9005D08D8005C08D7000800CE
:101D7C0023008C018E0125008C018E0127008C0123
:101D8C008E0124008C018E0121008E120E12200077
:101D9C000E120B138B138F3032009905F03099050E
:101DAC000B302000E3006230890BDA2EE30BDA2EC5
:101DBC00000021006908013EF0000130F1004E30B6
:101DCC00F2009030F3008831D9208E318931AB216B
:101DDC008E3121006908013E8A31F9228E31FF00D3
:101DEC007F082100BA003A088C312A248E31210058
:101DFC003A08893150218E3121001D1020000C121F
:101E0C0021000C1624000C1225000C1623000C16B5
:101E1C008E1521008E15220097161716971317088A
:101E2C00FC3902389700703021009E049E17033055
:101E3C009E041E1111171D0803390C389D000C153A
:101E4C0010140B108C1220008C12883195208E31BE
:101E5C000B178B17BB302100B1000030B20049309A
:101E6C00B3009030B4000030F000F10088313B201A
:101E7C008E318831BE208E3170082100B50071087A
:101E8C00B6007208B7008D31B2258E310030F000EB
:101E9C00F100F20189318C218E31843128248E316C
:101EAC00532F20003808FD003908FE003A08FF00C7
:101EBC0003107E0D7F0DFF007F08C0004008031D3E
:101ECC006E2F0030B5000030B6000030B7000800AF
:101EDC003508FD003608FE003708FF0003107E0DA4
:101EEC007F0DFF007F08C1004108031D842F0030C7
:101EFC00B5000030B6000030B70008000030BD005F
:101F0C000030BE000030BF0089304107BB003B08E9
:101F1C00C0023808FD003908FE003A08FF001030F6
:101F2C00FF36FE0CFD0C890B962F7D08FF007F08F9
:101F3C00C1003508FD003608FE003708FF001030E0
:101F4C00FF36FE0CFD0C890BA62F7D08FF007F08C9
:101F5C00C1068030FF007F08C105B917FF30B805F6
:101F6C00FF30B9050030BA05B617FF30B505FF30A4
:101F7C00B6050030B7051830FF007F08BC000130F3
:101F8C00BD35BE0DBF0D890BC62F37083A02031D98
:101F9C00D52F36083902031DD52F35083802031CFE
:101FAC00DE2F3508B8023608B93B3708BA3B3D146A
:101FBC000130B835B90DBA0D890BDF2F0130BC02D9
:101FCC00031DC52F3D08A6003E08A7003F08A8002A
:101FDC004008FF007F08A9004108FF007F08AA0005
:101FEC008D314D2520002608B5002708B60028089D
:101FFC00B700080001340034003400340A340034D3
:10200C00003400346434003400340034E8340334D5
:10201C00003400341034273400340034A0348634B7
:10202C0001340034403442340F340034803496345C
:10203C00983400340034E134F53405340034CA34B7
:10204C009A343B34213425346C3475342E34253495
:10205C0036342E3436346C347534003443344F34C7
:10206C0055344E3454340034AD3487346634BC3477
:10207C00BB34543445344D3450340034563442342B
:10208C0041345434003442344F344F3454340034DB
:0C209C0055345734543400342F340034D1
:020000040001F9
:08000E008CFF3DFFFFFFFFFF27
:00000001FF
