:020000040000FA
:0400000080310F2814
:1000060020347E1480312000101C0D288A317F2276
:10001600200010107E100900803111282100803147
:1000260003208031EB00E701E801E901EA015130E4
:1000360084000130850015309431ED248031A030E4
:1000460084000130850042309431ED248031203027
:100056008400023085001C309431ED247E1020008F
:100066008B31D12B2000CE003A30C2004208C900A5
:100076003908C3003808C200B80A0319B90A420889
:100086008400430885000008C4004408D3005308D0
:100096000319FC292530530603195E285308C200AC
:1000A6004E08860001308700420881000130C200F8
:1000B6004208CE073B28CF01D001C801380884008A
:1000C600390885000008953120258031031C9C28BD
:1000D6002000CF01D0010A302000A0000030A1008E
:1000E6005008A3004F08A2009531D8258031200082
:1000F6002108D0002008CF00380884003908850080
:100106000008D03EC200FF3003180030C30042088A
:10011600CF074308D03D0130B8070030B93D380855
:1001260084003908850000089531202580310318A0
:100136006E282000380884003908850012002E3AFF
:10014600031DDA280130B8070030B93DD101D201CC
:10015600380884003908850000089531202580314B
:10016600031CE528200038088400390885000008AB
:10017600C200C3015208A1005108A0000A30A20023
:100186000030A3009531D825803120004208200791
:10019600C4004308213DC5004408D03ED100FF30CD
:1001A600453DD2000130B8070030B93DAB282000EC
:1001B600D101D201E5284816E528C030C200420820
:1001C600C804FD2820003908C3003808C200B80A50
:1001D6000319B90A42088400430885000008D300C1
:1001E600003A0319FC296C3A0319DE28193A031957
:1001F600E0283B28481E0C29490886008701403F15
:10020600CA00413FCB00423FCC00433FCD00043003
:100216001A29490886008701403FC200413FC300B2
:100226004208CA004308CB00CC01CD010230C2000F
:100236004208C90751085204031D2B294D084C04D6
:100246004B044A04031D2B290130D1070030D23D4F
:10025600D301D30A0A30530603195E295308C20094
:10026600C301C235C30DC235C30D00304207840039
:100276009830433D8500003FC400013FC500023F62
:10028600C600033FC70047084D02031D5429460810
:100296004C02031D542945084B02031D54294408EA
:1002A6004A02031C5E290130C2004208D3070A3005
:1002B6005306031D31295208803A803C031D6529E7
:1002C6005108530203186D2920005108C200420844
:1002D600D300812920005208803AC20080304202B1
:1002E600031D77295308510203188129200053085A
:1002F600C200C3014208D1004308D20020005008C2
:10030600803A803C031D89294F085302031894291B
:1003160020005308C200C3014208CF024308D03B65
:1003260097292000CF01D0014F0850040319F12965
:100336002030C2004E088600013087004208810046
:100346000130C2004208CE07FF30CF07FF30D03D54
:1003560097290030B1000030B0000030AF000A30FD
:10036600AE0052088500510884008435850D843519
:10037600850D003084079830853D003FA000013F81
:10038600A100023FA200033FA3004D08A7004C08AE
:10039600A6004B08A5004A08A4008A312C22803109
:1003A60020002308B5002208B4002108B300200865
:1003B600B2008831D820803120002E08303EC2009D
:1003C6004208D3005308C2004E0886000130870059
:1003D600420881000130C2004208CE07FF30D10733
:1003E600FF30D23D510A031DAC29520A03193B289E
:1003F600AC294E088600013087008101080035309F
:1004060084009830850000082000AA0021006708B3
:100416000F3920002A06031D2C2AC1308931A2215A
:100426008231363084009830850000082000AA000A
:100436002100670820002A06F0392A062100E70075
:100446009431E12482312030890B272A9431E42427
:100456008231393084009830850000082000AA00D7
:100466002100670E0F3920002A06031DB92AA13084
:10047600A0000130A1000030A200A3002030A4009B
:100486000030A50095316E2582312300A0012000A1
:10049600A001603096316D2682312000AA002A081C
:1004A600AB009431E42482319531022582316130EA
:1004B6009531132582310030953113258231200084
:1004C600AA002A082300A00001302000AB02AC01DC
:1004D6007D2A00309531132582312000AA002C0890
:1004E600A13E8600013087002A0881000130AA005B
:1004F6002A08AC072B082C020318852A20302C0268
:10050600031C6C2A9431F32482319431E124823124
:100516002100680C07392000AA00AA0E2300200833
:1005260020002A068F392A062300A0002000A001F9
:10053600093096316D2682312000AA00230020085A
:1005460020002A06FE392A062300A0003A3084003D
:100556009830850000082000AA00AA0E210067082E
:1005660020002A060F392A062100E7003A308400C7
:100576009830850000082000AA002100670E0F3978
:1005860020002A06031D072B2300A01D072B37304A
:1005960084009830850000082000AA002100670822
:1005A6000F3920002A06031D072BC230AA002A088D
:1005B600A000A13097312427823120002008210491
:1005C600031D072B34308400983085000008AA00EC
:1005D6002100670820002A06F0392A062100E700D4
:1005E600383084009830850000082000AA00AA0E42
:1005F6002100670820002A060F392A062100E70095
:1006060000309731772782313A3084009830850060
:1006160000082000AA002100670E0F3920002A06D4
:10062600031D342B2300201D2B2B2011A015A030D9
:100636008931A22182319431E12482312030890B23
:10064600222B9431E424823101309731772782318D
:1006560001302200D1070030D23D0030D33D0030BA
:10066600D43D373084009830850000082000AA0069
:10067600210067080F3920002A06031D08000130F3
:100686002100EA026A0A031D08003530840098300A
:10069600850000082000AA002100670820002A061D
:1006A600F0392A062100E70008002200540820003D
:1006B600AB00220053082000AA00220052082000A6
:1006C600A900220051082000A80097314D27833148
:1006D600200028082200A600200029082200A700E2
:1006E60020002A082200A80030302100B90001307D
:1006F600BA005030BB009830BC002200260821000A
:10070600BD00220027082100BE0022002808210083
:10071600BF008B3147238331CF302000D7004630CE
:10072600D8004030D90004308D31AC25833120000B
:100736004B08DA004C08DB004D08DC008E315A26E7
:100746008331200057082200A90020005808220003
:10075600AA00200059082200AB0030302100B90061
:100766000130BA005A30BB009830BC00220029087C
:100776002100BD0022002A082100BE0022002B080D
:100786002100BF008B314723833130302100B9006F
:100796000130BA003E30BB009830BC0013308D31BA
:1007A600AC25833120004B082100BD0020004C08F9
:1007B6002100BE0020004D082100BF008B314723D9
:1007C6008331220097163D308D31AC2583312000D0
:1007D6004B08D7004C08D8004D08D90095310A259A
:1007E6008331200057082200AC0020005808220060
:1007F600AD00200059082200AE0000302000BB00EA
:100806000030BC004030BD001230AE000330AF00F7
:100816004030B00022002C082000B10022002D0834
:100826002000B20022002E082000B3008631EF26F9
:10083600833120002E08BE002F08BF003008C000FC
:100846008D310325833120003B082200A0002000C3
:100856003C082200A10020003D082200A2009712B9
:10086600A9302000AE00D130AF004330B0000430D4
:10087600BB00AD30BC00BA30BD002200200820000D
:10088600BE00220021082000BF002200220820000E
:10089600C0008D310325833120003B08B1003C08A0
:1008A600B2003D08B3008631EF26833120002E08C2
:1008B6002200A30020002F082200A40020003008F8
:1008C6002200A50030302100B9000130BA005530B1
:1008D600BB009830BC00220023082100BD00220086
:1008E60024082100BE00220025082100BF008B310C
:1008F600472383312000A001063096316D268331CF
:100906002100C30043082200AF0030302100B900A7
:100916000130BA004530BB009830BC0022002F0CD5
:1009260003399531A2258331200028082100BD0016
:10093600200029082100BE0020002A082100BF004F
:100946008B31472308003530840098308500000835
:10095600FA00210067080F397A06031DCB2CC13037
:10096600883198208431363084009830850000081C
:10097600FA00210067087A06F0397A06E700943112
:10098600E12484312030890BC62C9431E42484314F
:1009960039308400983085000008FA002100670E7F
:1009A6000F397A06031D472DA130F0000130F10002
:1009B6000030F200F3002030F4000030F5009531ED
:1009C600562584312300A001F10160309531872539
:1009D6008431FA007A08FB009431E424843195319D
:1009E60002258431613095311325843100309531EB
:1009F60013258431FA007A082300A0000130FB0297
:100A0600FC01152D0030953113258431FA007C0840
:100A1600A13E8600013087007A0881000130FA0085
:100A26007A08FC077B087C0203181D2D20307C0207
:100A3600031C052D9431F32484319431E12484314F
:100A46002100680C0739FA00FA0E230020087A06FE
:100A56008F397A06A000F101093095318725843156
:100A6600FA00230020087A06FE397A06A0003A30FA
:100A76008400983085000008FA00FA0E2100670805
:100A86007A060F397A06E7003A30840098308500F6
:100A96000008FA00670E0F397A06031D892D230018
:100AA600A01D892D37308400983085000008FA0093
:100AB600210067080F397A06031D892DC230FA0016
:100AC6007A08F000A1309631FC2684317008710452
:100AD600031D892D34308400983085000008FA0003
:100AE600210067087A06F0397A06E7003830840074
:100AF600983085000008FA00FA0E67087A060F3962
:100B06007A06E70000309631AE2684313A3084000A
:100B1600983085000008FA002100670E0F397A0622
:100B2600031DB42D2300201DAB2D2011A015A030D0
:100B36008831982084319431E12484312030890B26
:100B4600A22D9431E424843101309631AE268431CD
:100B560001302200D1070030D23D0030D33D0030B5
:100B6600D43D37308400983085000008FA00210013
:100B760067080F397A06031D08000130EA026A0A7F
:100B8600031D080035308400983085000008FA00FF
:100B960067087A06F0397A06E70008002000A00107
:100BA600003096316D2685312000A70027082100E8
:100BB600E900E91069082000A7002708A0002030F6
:100BC60096316D2685312000AA010330AA042A0831
:100BD600A7002708A000233096316D268531200016
:100BE600290880390238A9002908A7002708A0008B
:100BF600253096316D2685312000AC01AC12AC153E
:100C06000630AC042C08A7002708A0002630963131
:100C16006D268531FF3096318D2685312000A00165
:100C2600013096316D2685312000A7002708AD00DA
:100C36002D10AD102D11AD112D12AD122D08A700DE
:100C46002708A000213096316D2685312000A001AD
:100C56001D3096316D2685312000A7002708AB0090
:100C66002B152B142B08A7002708A0003D30963122
:100C76006D2685312000A0011C3096316D26853108
:100C86002000A7002708AE002E14AE142E15AE15B0
:100C96002E16AE162E08A7002708A0003C30963167
:100CA6006D2685312000AF01B001003030020630DC
:100CB60003192F020318B82E95310225853120001D
:100CC6002F080A3E20389531132585314F30840090
:100CD6009830850000082000A7002F08A8002808E3
:100CE600A0002830840098308500000895312F2513
:100CF60085312000270795311325853100302000E6
:100D06003002023003192F020318A92E4E30840038
:100D16009830850000089531132585314D308400C3
:100D26009830850000089531132585314C308400B4
:100D36009830850000089531132585314B308400A5
:100D46009830850000089531132585319431F324B8
:100D5600853101302000AF070030B03D0030300251
:100D6600063003192F02031C5F2E003089315E21E5
:100D760085312100E8016817E81668166808200022
:100D8600A7002708A000273096316D268531200060
:100D9600A001073096316D2685312000A70027086F
:100DA6002100E8002000A001E13096316D26853152
:100DB6002000A001E23096316D26853121006910B0
:100DC600E9156915E91469082000A7002708A0009D
:100DD600203096316D26080020002E08B4002F081A
:100DE600B5003008B6000310350D360DB7003708CC
:100DF600BA003108B4003208B5003308B600031053
:100E0600350D360DB7003708B9003A080319172F04
:100E160039083A0203181E2F3A03FF3A3907B4007D
:100E260019303402031C1E2F3108AE003208AF0001
:100E36003308B00008003908031908003A083902D7
:100E460003182D2F3903FF3A3A07B400193034023C
:100E5600031808000630B4003408B800B01BB817F1
:100E6600B31B3817AF17FF30AE05FF30AF050030A4
:100E7600B005B217FF30B105FF30B2050030B3053B
:100E860039083A020318692F0130B135B20DB30D96
:100E9600890B482F0130B90239083A060319642F25
:100EA6000130B802380807390319642F472F01307B
:100EB600B036AF0CAE0C890B5B2F0130B400340892
:100EC600BA073A08390603198E2F5A2F3A083902FB
:100ED60003188E2F0130AE35AF0DB00D890B6E2F76
:100EE6000130BA0239083A0603198A2F0130B802CE
:100EF6003808073903198A2F6D2F0130B336B20C23
:100F0600B10C890B812F0130B4003408B9073A08B7
:100F16003906031D802FB81FA02FFF30AE06FF3005
:100F2600AF06FF30B0060130AE07003003180130BF
:100F3600AF07003003180130B007381FB22FFF305B
:100F4600B106FF30B206FF30B3060130B1070030FC
:100F560003180130B207003003180130B307B80197
:100F66002E08B1072F08B23D3008B33DB31FCD2F71
:100F7600FF30B106FF30B206FF30B3060130B107CD
:100F8600003003180130B207003003180130B307F0
:100F9600B801B80A3108A0003208A1003308A2003F
:100FA6003A08B4003408A3003808B5003508A40090
:100FB6008A31E22220002008AE002108AF00220874
:100FC600B000080001302000A5020030A63B250A2B
:100FD6000319260A03190800FA302000A000003081
:100FE600A1009731D0278731EE302000A0000230D3
:0A0FF600A1009731D0278731E52FC5
:101004002000AD01A91F0D28A809A909A80A0319E0
:10101400A90AAD01AD0A2808A0002908A100A2016F
:101024008E30AB002B08A3002D08AC002C08A400C4
:101034008A31E22220002008A8002108A900220801
:10104400AA0008002000A900A801AA01AA012908F1
:10105400A0000230A10096314E26883120002A08D3
:10106400A600A70121082702031D3A28200826020A
:1010740003184C282A082907A600260886000230EF
:1010840087000108A7002708A8070130A600260842
:10109400AA0729280630A0000030A1002808A600CD
:1010A400A7012608A2002708A3009731A327200040
:1010B400200808002000A21F73282009A600210987
:1010C400A7002209A800A60A0319A70A0319A80A57
:1010D40000302607A0000030273DA1008030283DC5
:1010E400A200A51F89282309A6002409A700250911
:1010F400A800A60A0319A70A0319A80A003026079C
:10110400A3000030273DA4008030283DA500803096
:10111400A2068030A50625082202031D0800240823
:101124002102031D0800230820020800F8000030F3
:101134009631AE268831953102258831B03095310B
:10114400132588317808860001308700010895311D
:1011540013258831F901BE287908013E7807F60085
:1011640076088600013087000108953113258831FF
:101174000130F6007608F9077808013EF0000130E6
:10118400F1009531F42588317908F600F7017108EA
:101194007702031DCF28700876020318D528203063
:1011A4007902031CAE289431F3240800200031088E
:1011B40030042F042E0403191229B701B70AB11BF6
:1011C400EF280130AE35AF0DB00DB10D890BE42819
:1011D4000130B6003608B707E12831083502031D8F
:1011E400FD2830083402031DFD282F083302031D97
:1011F400FD282E083202031C07292E08B2022F08EC
:10120400B33B3008B43B3108B53B0130B136B00CC8
:10121400AF0CAE0C890B08290130B702031DEF286F
:101224003508B1003408B0003308AF003208AE000E
:1012340008009631302689319431E4248931033011
:101244002000B2000830B1007730890B2729B10B98
:101254002729B20B27298531D12589310330200074
:10126400B2000830B1007730890B3629B10B36292A
:10127400B20B36299431E12434308400983085004F
:1012840000082000B1002100670820003106F03971
:1012940031062100E70038308400983085000008CA
:1012A4002000B100B10E21006708200031060F397B
:1012B40031062100E70008002000A6009531022530
:1012C400893130309531132589314F30840098307D
:1012D400850000082000A400283084009830850090
:1012E4000008A5002508A000260895312F2589317E
:1012F400200024079531132589314E30840098301D
:10130400850000089531132589314D3084009830CB
:10131400850000089531132589314C3084009830BC
:10132400850000089531132589314B3084009830AD
:10133400850000089531132589319431F324080080
:101344002000A80000309731772789319531022594
:101354008931B03095311325893120002808860061
:101364000130870001089531132589312000A90136
:10137400CC292908013E2807A6002608860001304A
:101384008700010895311325893101302000A6001A
:101394002608A9072808013EA0000130A1009631C3
:1013A4004E26893120002908A600A701210827021A
:1013B400031DDE29200826020318E429203029020F
:1013C400031CBB299431F3240800C2302000A00080
:1013D4000130A1002D08013EAF0000302E3DB000C9
:1013E4002F08A2003008A3009531BD2589312000C3
:1013F4002D0886002E0887000108AF002F0823005F
:10140400C100353084009830850000082000AF000A
:101414002100670820002F06F0392F062100E7007D
:10142400343084009830850000082000AF0021008B
:1014340067080F3920002F06031908000A3020001E
:10144400A0000030A1009731D027893182310222D7
:101454008931122A00302000AC000030AB0000308B
:10146400AA000030A900230822042104200403193F
:10147400762AAD01AD0AA31B4B2A0130A035A10D7C
:10148400A20DA30D890B402A0130A8002808AD073E
:101494003D2A0130A935AA0DAB0DAC0D890B4C2AA0
:1014A40023082702031D602A22082602031D602A3E
:1014B40021082502031D602A20082402031C6B2A2C
:1014C4002008A4022108A53B2208A63B2308A73B29
:1014D40029140130A336A20CA10CA00C890B6C2A90
:1014E4000130AD02031D4B2A2C08A3002B08A200D7
:1014F4002A08A1002908A0000800F101073095314D
:1015040087258A31FD007D082100E800E81EBB2AFA
:1015140036308400983085000008FD0067080F39D4
:101524007D06031DBA2A2300411DAD2A37308400ED
:10153400983085000008FD00210067087D06F03919
:101544007D06E700FF30FD007D08EA00013096319A
:10155400AE268A31BB2A34308400983085000008D6
:10156400FD00210067087D06F0397D06E700BB2AEF
:10157400E8122100681FD72A38308400983085008B
:101584000008FD00670E0F397D06031DD62A393089
:101594008400983085000008FD00FD0E67087D0674
:1015A4000F397D06E700D72A68136808FD007D0817
:1015B400F1002730953187258A318431A62408002B
:1015C400200023080319EB2A220821042004031D08
:1015D400FC2A0030A0000030A1000030A200080066
:1015E4000130A5002508A3070130A236A10CA00CE8
:1015F400890BF72AFE3022050319152BF22A013034
:10160400A5002508A3070130A00700300318013006
:10161400A107003003180130A2070130A236A10C43
:10162400A00C890B102BFF3022050319222B012B50
:101634000130A3020130A035A10DA20D890B1D2B91
:10164400A11B282B0230230203181A2B2318302B3A
:10165400FF30A0057F30A105FF30A2050310A30CC5
:101664002308A500A601A7011030A535A60DA70DD6
:10167400890B372B2508A0042608A1042708A204F7
:10168400240803190800A217080021003908013EA4
:101694002000A000003021003A3D2000A1000030CD
:1016A400A200A3002030A4000030A50095316E25CF
:1016B4008B3121003908013E2000A00000302100B8
:1016C4003A3D2000A10021006B08013E2000A20049
:1016D4000230A3009531BD258B3121003908013E2C
:1016E400B30000303A3DB4006830B5009830B6001D
:1016F4009631D5268B3121003908013EB3000030E4
:101704003A3DB4003C08B6003B08B5009631D526F6
:101714008B3121003908013EB30000303A3DB4005A
:101724006830B5009830B6009631D5268B3121004B
:101734003908013EB30000303A3DB4003D08A6002C
:101744003E08A7003F08A800C130C0004008A90017
:101754008F310E278B312100B5000130B600963150
:10176400D5268B312100390886003A08870081018B
:10177400390886003A08870001153A082000AE00AF
:10178400210039082000AD008931E7218B31033075
:101794002000A5000030A6008731E52708002300BB
:1017A4008C018E0125008C018E0127008C018E0195
:1017B40024008C018E0121008E120E1220000E12C4
:1017C4000B138B138F3032009905F0309905683074
:1017D4002100C400E430890BED2BC40BED2B000079
:1017E40021006B08013E2000A0000230A1006430FB
:1017F400A2009830A3009531BD258B3189311B217E
:101804008B3121006B08013E883124208B3121006B
:10181400C4004408C500450889315E218B3121008C
:101824001D1020000C1221000C1624000C1225009F
:101834000C1623000C168E1521008E152200971607
:10184400171697131708FC390238970070302100D7
:101854009E049E1703309E041E111D0803390C3884
:101864009D000C1510140B108C1220008C120B17F9
:101874008B17C6302100B9000030BA005F30BB00BE
:101884009830BC006B08113E860002308700403F50
:101894002000A800413FA900953141258B3120004B
:1018A40028082100BD00200029082100BE002000D6
:1018B4002A082100BF008B3147238B318331582301
:1018C4008B31602C20006708EB006808EC00690885
:1018D400ED0003106C0D6D0DEE006E082100A500E7
:1018E4002508031D7F2C00302000EA000030E900A9
:1018F4000030E8000030E700080020006708EB0033
:101904006808EC006908ED001730ED36EC0CEB0CC0
:10191400890B872C6B08EE006E082100A0002000C4
:10192400E817FF30E705FF30E8050030E9056708F0
:101934002100A100200068082100A20020006908FD
:101944002100A300A4018E30A502A51FC92C2508DF
:10195400803A8F3E0318B82C00302000EA00003093
:10196400E9000030E8000030E70008000130210001
:10197400A436A30CA20CA10C890BB92C01302000B5
:10198400EB006B082100A5070319E52CB82C1830CF
:101994002502031CE12C00302000EA000030E9009D
:1019A4000030E8000030E700080001302100A135D4
:1019B400A20DA30DA40D890BD82C0130A502210082
:1019C4002508031DD72C20080319F32CA109A2090B
:1019D400A309A409A10A0319A20A0319A30A031952
:1019E400A40A24082000EA00210023082000E900BA
:1019F400210022082000E800210021082000E7003F
:101A0400080020003E08C1003F08C2004008C3008F
:101A14000310420D430DC4004408C9004908031DC6
:101A24001A2D0030BB000030BC000030BD0008009F
:101A34003B08C1003C08C2003D08C3000310420D2E
:101A4400430DC4004408CA004A08031D302D003069
:101A5400BB000030BC000030BD0008000030C600F0
:101A64000030C7000030C80089304A07C10041086F
:101A7400C9023E08C1003F08C2004008C30010303C
:101A8400C336C20CC10C890B422D4108C400440862
:101A9400CA003B08C1003C08C2003D08C300103026
:101AA400C336C20CC10C890B522D4108C400440832
:101AB400CA068030C1004108CA05BF17FF30BE0501
:101AC400FF30BF050030C005BC17FF30BB05FF3039
:101AD400BC050030BD051830C1004108C500013007
:101AE400C635C70DC80D890B722D3D084002031D74
:101AF400812D3C083F02031D812D3B083E02031C3F
:101B04008A2D3B08BE023C08BF3B3D08C03B46143F
:101B14000130BE35BF0DC00D890B8B2D0130C502C0
:101B2400031D712D4608A0004708A1004808A20023
:101B34004908C1004108A3004A08C2004208A400A1
:101B44008A31E22220002008BB002108BC002208C0
:101B5400BD0008002000D3000030D4000030D500C0
:101B64000030D600E830D1000330D2005308CE0054
:101B7400CE0DCE0D21001D0820004E0603394E0661
:101B840021009D002200971721001D140130200020
:101B9400A0000030A1009731D0278D310130200002
:101BA400D1020030D23B510A0319520A0319112EF3
:101BB40021009D1421009D1CE82D01302000A0006F
:101BC4000030A1009731D0278D31DC2D1C08200076
:101BD400CE00CF014E08CF00CE014E0821001B04D9
:101BE4002000A8004F08A900883102208D31200070
:101BF4002808AE002908AF002A08B0005408B10034
:101C04005508B2005608B3008631EF268D31200006
:101C14002E08D4002F08D5003008D600D02D22007D
:101C2400971321001D1000302000BB007A30BC0047
:101C34004430BD005408BE005508BF005608C0001B
:101C44008D3103258D3120003B08D4003C08D5009C
:101C54003D08D60021001E080339033A03194B2E10
:101C6400522E00302000BB00FA30BC004330BD00CF
:101C74005408BE005508BF005608C0008D31032526
:101C84008D3120003B08D4003C08D5003D08D60027
:101C9400522E220017080339023A0319332E522E0A
:101CA40020005408CB005508CC005608CD0008008D
:101CB40020005708DD005808DE005908DF00031033
:101CC4005E0D5F0DE0006008E1006108031D712EE8
:101CD4000030D7000030D8000030D90008005A087E
:101CE400DD005B08DE005C08DF0003105E0D5F0DA5
:101CF400E0006008E6006608031D872E0030D70068
:101D04000030D8000030D900080066087B3EDD00B2
:101D14005D08E1075708DD005808DE005908DF00B8
:101D24001030DF36DE0CDD0C890B932E5D08E000ED
:101D34006008E6005A08DD005B08DE005C08DF008E
:101D44001030DF36DE0CDD0C890BA32E5D08E000BD
:101D54006008E6068030DD005D08E605D817DB176D
:101D6400FF30DA05FF30DB050030DC050030E2002F
:101D74000030E3000030E4000730DD005D08E500DA
:101D8400571CCA2E5A08E2075B08E33D5C08E43D91
:101D94000130D936D80CD70C890BCB2E0130DA356B
:101DA400DB0DDC0D890BD12E0130E502031DC22EA3
:101DB4000930DD005D08E500571CE62E5A08E207ED
:101DC4005B08E33D5C08E43D0130D936D80CD70C00
:101DD400890BE72E0130E436E30CE20C890BED2E7F
:101DE4000130E502031DDE2E6208A0006308A10095
:101DF4006408A2006108DD005D08A3006608DE0037
:101E04005E08A4008A31E22220002008D7002108BD
:101E1400D8002208D900080055302000EF006F08D0
:101E24002100B20026082000A0002100270820007D
:101E3400A100210028082000A2000030A3000030E7
:101E4400A4000030A50088315C208F310318542F82
:101E54002D302000EF002100320886000130870079
:101E640020006F0881000130EF006F082100B207E5
:101E740026082000D700210027082000D8002100D0
:101E840028082000D90095310A258F3120005708F1
:101E94002100A600200058082100A70020005908AE
:101EA4002100A800210026082000E70021002708BF
:101EB4002000E800210028082000E9008C31642477
:101EC4008F3120006A082100B10020006908210038
:101ED400B000200068082100AF002000670821003E
:101EE400AE0031082000AB00210030082000AA0019
:101EF40021002F082000A90021002E082000A8009E
:101F040097314D278F3120002808BB002908BC00D9
:101F14002A08BD00210026082000BE002100270851
:101F24002000BF00210028082000C000963112269E
:101F34008F3120003B082100A60020003C0821002E
:101F4400A70020003D082100A80026082000DA0090
:101F5400210027082000DB00210028082000DC00E5
:101F64002430D7007430D8004930D9008E315A2635
:101F74008F3120005708E7005808E8005908E900A5
:101F84008C3164248F3120006A082100AD002000C8
:101F940069082100AC00200068082100AB00200083
:101FA40067082100AA0029302000B8009830B90041
:101FB400210031082000BD00210030082000BC00B1
:101FC40021002F082000BB0021002E082000BA00A9
:101FD40021002D082000C10021002C082000C00091
:101FE40021002B082000BF0021002A082000BE0089
:0C1FF400210032088031352055300800F3
:1029C20020000C14080020000C10080020008C14B9
:1029D200080020008C100800640080010131890B7E
:1029E200EE2C00341A30890BF42C00329431E72497
:1029F2000800F000700C2100031C101003181014C2
:102A020008009431EA2495311A30890B062D0032E0
:102A120008002000590858045704031908008030A0
:102A2200D9060800F00070082400910020000E165C
:102A3200240014181E2D0000192D11080800200072
:102A4200A100A0013A30210203182D2D30302102BD
:102A5200031C2D2DA001A00A200C08002000A300B9
:102A6200A201231C382D2008A1002108A20703106F
:102A7200A00D0310A30C2308031D322D2208080009
:102A820020002808A0002908A100A2018E30AB0076
:102A92002B08A300A4018A31E22220002008A8000A
:102AA2002108A9002208AA0008007108F70070088E
:102AB200F6000130F4020030F53B740A0319750A7E
:102AC20003190800760886007708870072088100DB
:102AD2000130F6070030F73D5A2D20002108A700EB
:102AE2002008A6000130A4020030A53B240A0319E5
:102AF200250A0319080026088600270887002208ED
:102B020081000130A6070030A73D732DF30000308D
:102B12009431FA2495319531022595317308953116
:102B2200132595317108953113259531F2007208FC
:102B3200F1009431F324953101309431FA24710873
:102B420008002000AF002F08AB00AC01AD012B083C
:102B5200A0002C08A1002D08A2008E30AE002E0885
:102B6200A300A4018A31E22220002008A800210843
:102B7200A9002208AA00080020002108A5002008B8
:102B8200A400240886002508870022088400230860
:102B920085000008C03F8908031908000130A40716
:102BA2000030A53D0130A2070030A33DC22D200018
:102BB200A401A501201CE12D2208A4072308A53D9C
:102BC2000130A235A30D890BE22D0130A136A00CF4
:102BD200890BE72D20082104031DDB2D2508A10008
:102BE2002408A00008007108F5007008F4007408B9
:102BF20086007508870001080319042E0130F407C6
:102C02000030F53DF82D7009F2007109F300F20A67
:102C12000319F30A74087207F0007508733DF10096
:102C2200080020003D083C043B0403191A2E8030A2
:102C3200BD063E08AE003F08AF004008B0003B08AA
:102C4200B1003C08B2003D08B3008631EF262000F7
:102C52002E08BB002F08BC003008BD000800210070
:102C62000C108C108E140E110E10240095123D00C3
:102C72002108E0391138A1002208E0391938A200F0
:102C82002008E0391838A00024001512141715087E
:102C9200F039013895009516080020002108A5009A
:102CA2002008A400240886002508870001080319CB
:102CB2005F2E0130A4070030A53D532E2009A2004B
:102CC2002109A300A20A0319A30A24082207A000CB
:102CD2002508233DA10008002000A2000030943105
:102CE200FA24963195310225963120002208953139
:102CF20013259631200020089531132596312000A6
:102D0200A1002108A0009431F324963101309431BE
:102D1200FA242000200808002000A5000630250221
:102D2200031C9A2E2614A6142615A6152616A616D8
:102D3200A62E26142608A300250AA02EA335890B49
:102D42009F2E2308A4002408A6002608A300230817
:102D5200A000223096316D260800F5002100690896
:102D620001397506031908009431E4249631750C73
:102D72002100031C6910031869146908F40074081F
:102D8200F1002030953187259631C0300032890B11
:102D9200C72E7508031908009431E1249631C0301A
:102DA2000032890BD12E080021003408B800330804
:102DB200B700370886003808870001080319EE2E8D
:102DC2000130B7070030B83DDA2E0130B7070030C6
:102DD200B83D0130B5070030B63D370886003808E7
:102DE200870035088400360885000008C03F89083E
:102DF20003190800E62EF400062F0130F2007208D3
:102E0200F4070130F2007208F007740886000130FE
:102E1200870070088400013085000003FF3A010733
:102E2200F2007208F3007308031D1E2F7408860057
:102E3200013087000108031DFE2E7308F000F10126
:102E4200F01BF10308002000A4002F2F0130A20084
:102E52002208A4070130A2002208A0072408860045
:102E62000130870020088400013085000003FF3A0A
:102E72000107A2002208A3002308031D472F2408EC
:102E82008600013087000108031D272F2308A000B8
:102E9200A101A01BA10308008E302000AC002C0869
:102EA200AD00FF302B050319622F0130AB36AA0C9F
:102EB200A90CA80C890B572F0130AC002C08AD07C8
:102EC200522F2808A0002908A1002A08A2002D08D4
:102ED200AC002C08A300A4018A31E22220002008C1
:102EE200A8002108A9002208AA0008002000A400C6
:102EF20021006908013920002406031908009431D1
:102F0200E42497312000240C2100031C69100318CB
:102F1200691469082000A3002308A000203096311C
:102F22006D269731C0300032890B942F200024087F
:102F3200031908009431E1249731C0300032890B23
:102F42009F2F08002000200821040319CB2FA50180
:102F5200A50AA11BB62F0130A035A10D890BAD2FFB
:102F62000130A4002408A507AA2F21082302031D6B
:102F7200BC2F20082202031CC22F2008A202210813
:102F8200A33B0130A136A00C890BC32F0130A5024F
:102F9200031DB62F2308A1002208A000080020006C
:102FA200A401133024020318F92F2108A3002008DA
:102FB200A200240ADE2FA336A20C890BDC2F221CCE
:102FC200F02F2408A200A20D2100170820002206DB
:102FD200C139220621009700630000000000013081
:102FE2002000A2002208A40713302402031CD62FBB
:102FF20021001708C1391A3897006400080001340B
:103002000034003400340A340034003400346434B0
:10301200003400340034E834033400340034103413
:10302200273400340034A034863401340034403470
:1030320042340F34003480349634983400340034EF
:10304200E134F53405340034CA349A343B34213443
:1030520025346C3475342E34253436342E343634DB
:103062006C347534003400340134023403340034D7
:103072000134023403340434053441344E344334CD
:1030820033346D3456340034523446345034573469
:1030920052340034AD3487346634BC34BB344434E7
:1030A2004234473431340034543445344D3450348E
:1030B20000345634423441345434003442344F34B0
:1030C2004F345434003455344834313400342F34BE
:0230D2000034C8
:020000040001F9
:08000E008CFF3DFFFFFFFFFF27
:00000001FF
