:020000040000FA
:0400000080313228F1
:100006002034803174082000A0007508A1007C0807
:10001600A2007D08A3007F08A400B030860022302D
:1000260087007508A5002700931D1E289731832792
:100036008031270093112000101C25288B31F123D5
:1000460020001010111B11132508FF002408FD00C5
:100056002308FC002208F5002108F400090080317D
:1000660034282100803103208031E5002000E4019E
:10007600E501E601E701E801E901DD308400003031
:100086008500083097318627803120308400013082
:1000960085002D30973186278031A03084000130CD
:1000A6008500423097318627200070308600213047
:1000B60087008E31182E2000CF003D30FF007F08CC
:1000C600CA003C08FF003B08FE00BB0A0319BC0A35
:1000D6007E0884007F0885000008FF007F08D400A2
:1000E60054080319252A253054060319872854086D
:1000F600FF004F088400013085007F088000013032
:10010600FF007F08CF076428D001D101C9013B0851
:1001160084003C08850000089731B8278031031C0D
:10012600C5282000D001D1010A30F0000030F100CE
:1001360020005108F3005008F20088316620803113
:1001460071082000D1007008D0003B0884003C08EC
:1001560085000008D03EFE00FF3003180030FF0087
:100166007E08D0077F08D13D0130BB070030BC3D7B
:100176003B0884003C08850000089731B827803189
:100186000318972820003B0884003C0885001200CD
:100196002E3A031D03290130BB070030BC3DD201B6
:1001A600D3013B0884003C08850000089731B82736
:1001B6008031031C0E2920003B0884003C08850082
:1001C6000008FE00FF015308F1005208F0000A3053
:1001D600F2000030F3008831662080317E08700717
:1001E600FC007F08713DFD007C08D03E2000D20057
:1001F600FF307D3DD3000130BB070030BC3DD42825
:100206002000D201D3010E2949160E29C030FF0065
:100216007F08C904262920003C08FF003B08FE0091
:10022600BB0A0319BC0A7E0884007F088500000803
:10023600D400003A0319252A6C3A03190729193AFA
:10024600031909296428491E35294A0884008501AD
:10025600003FCB00013FCC00023FCD00033FCE0064
:10026600043043294A0884008501003FFE00013F0F
:10027600FF007E08CB007F08CC00CD01CE01023006
:10028600FF007F08CA0752085304031D54294E086D
:100296004D044C044B04031D54290130D207003091
:1002A600D33DD401D40A0A305406031987295408C9
:1002B600FE00FF01FE35FF0DFE35FF0D00307E0707
:1002C600840090307F3D8500003FC500013FC60099
:1002D600023FC700033FC80048084E02031D7D29A0
:1002E60047084D02031D7D2946084C02031D7D2942
:1002F60045084B02031C87290130FF007F08D407FD
:100306000A305406031D5A295308803A803C031DBF
:100316008E29520854020318962920005208FF001D
:100326007F08D400AA2920005308803AC5008030EF
:100336004502031DA029540852020318AA292000C9
:100346005408FE00FF017E08D2007F08D30020007B
:100356005108803A803C031DB22950085402031804
:10036600BD2920005408FE00FF017E08D0027F0848
:10037600D13BC0292000D001D101500851040319F6
:100386001A2A2030FF004F088400013085007F08BC
:1003960080000130FF007F08CF07FF30D007FF3015
:1003A600D13DC0290030B6000030B5000030B400A1
:1003B6000A30B30053088500520884008435850D41
:1003C6008435850D003084079030853D003FA600BA
:1003D600013FA700023FA800033FA9004E08AD0059
:1003E6004D08AC004C08AB004B08AA008C313A24EF
:1003F600803120002908BA002808B9002708B8006B
:100406002608B7008B312423803120003308303E84
:10041600FF007F08D4005408FF004F088400013015
:1004260085007F0880000130FF007F08CF07FF307E
:10043600D207FF30D33D520A031DD529530A0319AB
:100446006428D5294F088400013085008001080002
:100456002F302100B1000230B2002D30B3009830A9
:10046600B4008C318D248231200042082100B50071
:10047600200043082100B600200044082100B700F0
:100486008D310B2582319731AE27823121006008EC
:10049600F3005F08F2005E08F1005D08F0008931A4
:1004A6009121823170082400A6007108A700720805
:1004B600A8002F302100B1000230B2001830B3007E
:1004C6009830B400240026082100B500240027082F
:1004D6002100B600240028082100B7008D310B2525
:1004E6008231CF302000CC004630CD004030CE00E7
:1004F60004308631DF26823120004208CF004308CF
:10050600D0004408D10086312B26823120004C08C9
:100516002400A90020004D082400AA0020004E084F
:100526002400AB002F302100B1000230B200283089
:10053600B3009830B400240029082100B500240037
:100546002A082100B60024002B082100B7008D31AF
:100556000B258231220097163D308631DF26823107
:1005660020004208CC004308CD004408CE00973155
:100576009327823120004C082400AC0020004D084F
:100586002400AD0020004E082400AE0000302000FC
:10059600B5000030B6004030B7001230AB00033073
:1005A600AC004030AD0024002C082000AE00240032
:1005B6002D082000AF0024002E082000B000843152
:1005C6004E24823120002B08B8002C08B9002D08D3
:1005D600BA008F3157278231200035082400A00049
:1005E600200036082400A100200037082400A200BD
:1005F60022009712A9302000AB00D130AC00433066
:10060600AD000430B500AD30B600BA30B7002400F6
:1006160020082000B800240021082000B90024008A
:1006260022082000BA008F31572782312000350872
:10063600AE003608AF003708B00084314E24823150
:1006460020002B082400A30020002C082400A4006E
:1006560020002D082400A5002F302100B100023013
:10066600B2002330B3009830B400240023082100E0
:10067600B500240024082100B60024002508210026
:10068600B7008D310B25080000301E000030873181
:10069600ED278331FF007F082000E700E710670899
:1006A6001E0020308731ED2783312000A901033059
:1006B600A90429081E0023308731ED278331200045
:1006C600280880390238A80028081E0025308731FE
:1006D600ED2783312000AB01AB12AB150630AB041E
:1006E6002B081E0026308731ED278331FF308831F5
:1006F600A220833100301E0001308731ED2783317F
:10070600FF007F082000AC002C10AC102C11AC119F
:100716002C12AC122C081E0021308731ED278331B4
:1007260000301E001D308731ED278331FF007F0822
:100736002000AA002A152A142A081E003D308731F7
:10074600ED27833100301E001C308731ED278331C1
:10075600FF007F082000AD002D14AD142D15AD153A
:100766002D16AD162D081E003C308731ED2783313E
:100776002000AE01AF0100302F02063003192E0211
:1007860003181E2C9731A527833120002E080A3E18
:10079600203888310120833122308400983085004A
:1007A60000082000A7002E08FF007F08F000003098
:1007B60084009830850000089731C62783312000D1
:1007C6002707883101208331003020002F020230B4
:1007D60003192E0203180F2C21308400983085004F
:1007E600000888310120833120308400983085004C
:1007F60000088831012083311F308400983085003D
:1008060000088831012083311E308400983085002D
:10081600000888310120833197319C2783310130CC
:100826002000AE070030AF3D00302F02063003191E
:100836002E02031CC52B00308B3167238331200029
:10084600E6016617E616661666081E00273087312B
:10085600ED27833100301E0007308731ED278331C5
:10086600FF007F082000E60000301E00E1308731DF
:10087600ED27833100301E00E2308731ED278331CA
:1008860020006714E7156715E71467081E00203077
:100896008731ED27080020002B08FD002C08FE00FC
:1008A6002D08FF0003107E0D7F0DFF007F08B400AA
:1008B6002E08FD002F08FE003008FF0003107E0DF5
:1008C6007F0DFF007F08B30034080319762C330828
:1008D600340203187D2C3403FF3A3307B100193074
:1008E6003102031C7D2C2E08AB002F08AC0030080B
:1008F600AD00080033080319080034083302031852
:100906008C2C3303FF3A3407B10019303102031837
:1009160008000630FF007F08B200AD1BB217B01BFF
:100926003217AC17FF30AB05FF30AC050030AD0514
:10093600AF17FF30AE05FF30AF050030B005330806
:1009460034020318C82C0130AE35AF0DB00D890B3B
:10095600A72C0130B302330834060319C32C013027
:10096600B202320807390319C32CA62C0130AD3662
:10097600AC0CAB0C890BBA2C0130FF007F08B40716
:10098600340833060319ED2CB92C34083302031846
:10099600ED2C0130AB35AC0DAD0D890BCD2C0130F6
:1009A600B402330834060319E92C0130B2023208C6
:1009B60007390319E92CCC2C0130B036AF0CAE0C3C
:1009C600890BE02C0130FF007F08B307340833069B
:1009D600031DDF2CB21FFF2CFF30AB06FF30AC0629
:1009E600FF30AD060130AB07003003180130AC070D
:1009F600003003180130AD07321F112DFF30AE064F
:100A0600FF30AF06FF30B0060130AE0700300318E6
:100A16000130AF07003003180130B007B2012B08D0
:100A2600AE072C08AF3D2D08B03DB01F2C2DFF3072
:100A3600AE06FF30AF06FF30B0060130AE0700301D
:100A460003180130AF07003003180130B007B201B8
:100A5600B20A2E08A6002F08A7003008A8003408FE
:100A6600FF007F08A9003208FF007F08AA0087312F
:100A7600882720002608AB002708AC002808AD0010
:100A860008003C30FF007F082100AC002008200051
:100A9600A600210021082000A7002100220820002E
:100AA600A8000030A9000030AA000030AB008A314F
:100AB600E82285310318862D2D30FF0021002C08F1
:100AC6008400013085007F0880000130FF007F0828
:100AD600AC0720082000CC00210021082000CD0012
:100AE600210022082000CE0097319327853120006F
:100AF6004C082100A00020004D082100A100200084
:100B06004E082100A200210020082000D800210064
:100B160021082000D900210022082000DA008D31AA
:100B26009125853120005B082100AB0020005A0882
:100B36002100AA00200059082100A9002000580819
:100B46002100A8002B08F3002A08F2002908F1006A
:100B56002808F00089319121853170082000B50000
:100B66007108B6007208B700210020082000B800FE
:100B7600210021082000B900210022082000BA0027
:100B8600883148208531200035082100A00020004A
:100B960036082100A100200037082100A200200805
:100BA6002000CF00210021082000D00021002208CB
:100BB6002000D1002430CC007430CD004930CE0066
:100BC60086312B26853120004C08D8004D08D900E7
:100BD6004E08DA008D319125853120005B08210011
:100BE600A70020005A082100A6002000590821006D
:100BF600A500200058082100A40001302000BB00F9
:100C06009830BC0021002B082000C00021002A08D3
:100C16002000BF00210029082000BE00210028086E
:100C26002000BD00210027082000C400210026085E
:100C36002000C300210025082000C200210024084E
:100C46002000C10021002C0880315E203C300800C5
:100C560020004C08FD004D08FE004E08FF00031062
:100C66007E0D7F0DFF007F08D2005208031D422E25
:100C76000030CC000030CD000030CE0008004F0818
:100C8600FD005008FE005108FF0003107E0D7F0D89
:100C9600FF007F08D7005708031D582E0030CC00F0
:100CA6000030CD000030CE00080057087B3EFF0024
:100CB6007F08D2074C08FD004D08FE004E08FF00D5
:100CC6001030FF36FE0CFD0C890B642E7D08FF00EC
:100CD6007F08D7004F08FD005008FE005108FF00AE
:100CE6001030FF36FE0CFD0C890B742E7D08FF00BC
:100CF6007F08D7068030FF007F08D705CD17D017AD
:100D0600FF30CF05FF30D0050030D1050030D300CD
:100D16000030D4000030D5000730FF007F08D60031
:100D26004C1C9B2E4F08D3075008D43D5108D53D87
:100D36000130CE36CD0CCC0C890B9C2E0130CF3534
:100D4600D00DD10D890BA22E0130D602031D932E94
:100D56000930FF007F08D6004C1CB72E4F08D3077A
:100D66005008D43D5108D53D0130CE36CD0CCC0CC3
:100D7600890BB82E0130D536D40CD30C890BBE2E78
:100D86000130D602031DAF2E5308A6005408A70053
:100D96005508A8005208FF007F08A9005708FF0061
:100DA6007F08AA008731882720002608CC0027085C
:100DB600CD002808CE0008002000C6000030C9007B
:100DC6000030CA000030CB00E830C7000330C8004E
:100DD6004608C500C50DC50D21001D0820004506A5
:100DE6000339450621009D002200971721001D1496
:100DF6000130F0000030F1008931402186310130A8
:100E06002000C7020030C83B470A0319480A0319E5
:100E16003F2F21009D1421009D1C192F0130F00049
:100E26000030F1008931402186310E2F1C08FE006A
:100E3600FF017E08FF00FE017E081B04F0007F080C
:100E4600F10089311E21863170082000AB0071083F
:100E5600AC007208AD004908AE004A08AF004B0866
:100E6600B00084314E24863120002B08C9002C089E
:100E7600CA002D08CB00022F2200971321001D1057
:100E860000302000B5007A30B6004430B70049087B
:100E9600B8004A08B9004B08BA008F315727863187
:100EA60020003508C9003608CA003708CB002100E3
:100EB6001E080339033A0319792F802F00302000CA
:100EC600B500FA30B6004330B7004908B8004A0802
:100ED600B9004B08BA008F315727863120003508F4
:100EE600C9003608CA003708CB00802F2200170831
:100EF6000339023A0319612F802F20004908C200E6
:100F06004A08C3004B08C40008002000290803193A
:100F1600912F280827042604031DA22F0030A600BF
:100F26000030A7000030A80008000130FF007F084D
:100F3600A9070130A836A70CA60C890B9D2FFE30F9
:100F460028050319BB2F982F0130FF007F08A9073A
:100F56000130A607003003180130A7070030031838
:100F66000130A8070130A836A70CA60C890BB62FAE
:100F7600FF3028050319C82FA72F0130A902013019
:100F8600A635A70DA80D890BC32FA71BCE2F0230A0
:100F960029020318C02F2918D62FFF30A6057F3047
:100FA600A705FF30A8050310A90C2908FD00FE01BE
:100FB600FF011030FD35FE0DFF0D890BDD2F7D087D
:100FC600A6047E08A7047F08A8042A0803190800B7
:100FD600A81708004131FF3F9731A52787317F3F8A
:100FE6008831012087317E3F883101208731FE3FDD
:0A0FF60097319C277E3F7E310800F2
:101002004131FF3F7F3F2400910020000E16240053
:1010120014180D280000082811087F31080020004C
:10102200AB002B08FD00FE01FF017D08A6007E0833
:10103200A7007F08A8008E30FF007F08A900AA0140
:101042008731882720002608F0002708F1002808A9
:10105200F200080071082000A7007008A6007208BC
:101062008400730885000008FF0026088400270812
:1010720085007F0880000008031908000130A607D8
:101082000030A73D0130F2070030F33D3028200048
:10109200370836043504031950288030B70638085B
:1010A200AB003908AC003A08AD003508AE0036088E
:1010B200AF003708B00084314E2420002B08B50061
:1010C2002C08B6002D08B70008002000A601A701D1
:1010D200701C702872082000A6077308A73D013013
:1010E200F235F30D890B71280130F136F00C890BC2
:1010F200762870087104031D692820002708F10072
:101102002608F00008004231FE3F06088400070866
:1011120085003E31003FFF3F7F3F84000130850064
:101122000008031998287F3F013EFF3F8D287F3F2B
:10113200FF007E3F7F02F400F501F41BF5037E31D0
:101142000800F10006307102031CAE287214F2147A
:101152007215F2157216F216BA2872147208F0009D
:10116200710AB428F035890BB3287008FF007F0894
:10117200F20072081E0022308731ED27080021009C
:101182000C108C108E140E110E10240095123D00BE
:101192002108E0391138A1002208E0391938A200EB
:1011A2002008E0391838A000240015121417150879
:1011B200F03901389500951608008831C020883131
:1011C20020000C100B302000B0006230890BE728A1
:1011D200B00BE72800008331472388310B30200011
:1011E200B0006230890BF328B00BF3280000200016
:1011F2000C14E401E501080001302000A6020030D1
:10120200A73B260A0319270A0319080000308A316E
:10121200AD228831C830F0000030F1008931402120
:10122200883100308A31AD228831C830F000003078
:10123200F100893140218831FD28F301F11F28296D
:10124200F009F109F00A0319F10AF301F30A70082F
:101252002000A6007108A700A8018E30FF007F08B9
:10126200A9007308FF007F08AA00873188272000A1
:101272002608F0002708F1002808F2000800F30110
:1012820013307302031865297108FF007008FE000D
:10129200730A4D29FF36FE0C890B4B297E1C5D29F2
:1012A2007308F200F20D210017087206C1397206A6
:1012B20097006300000000000130FF007F08F30781
:1012C20013307302031C452997318C2708004231E1
:1012D200FE3F78297E3F8400013085000008031913
:1012E2008A297E3F013EFE3F7D3F013EFD3F7D3F1D
:1012F2008400013085000008FF007E3F8400013039
:1013020085000008F4007F087402FF3F8908031972
:101312006B297F3FF400F501F41BF5037D310800D2
:101322008E30FF007F082000AB00FF3073050319E9
:10133200A6290130F336F20CF10CF00C890B9B2933
:101342000130FF007F08AB0796297008A6007108DC
:10135200A7007208A8002B08FF007F08A900AA01B5
:101362008731882720002608F0002708F100280886
:10137200F2000800700871040319E3292000A60195
:10138200A60AF11BCE290130F035F10D890BC529D2
:101392000130FF007F08A607C22971087302031DEE
:1013A200D42970087202031CDA297008F20271084B
:1013B200F33B0130F136F00C890BDB290130A60238
:1013C200031DCE297308F1007208F0000800210005
:1013D2002E082000E30021002D082000E200620810
:1013E20084006308850000080319052A0130E2071A
:1013F2000030E33DF0290130E2070030E33D0130E7
:101402002100AF070030B03D21002F0884003008D2
:1014120085000008FF002000620884006308850040
:101422007F088000000803190800FC29C230F00080
:101432000130F10020002808013EFE000030293D65
:10144200FF007E08F2007F08F30088312B208A31EA
:10145200200028088400290885000008FF007F0872
:101462002300C1000130FF007F082000E4002000BB
:101472006408031908000130F0000030F1008931DE
:1014820040218A318E31B2268A31382A4231060809
:101492008400070885003C31003FFE3F013FFF3FCB
:1014A200783FF40001307402F83F793FF4000030D5
:1014B200743BF93F783FFF3AF400793FFF3AF40476
:1014C2000319772A7A3FFF007E3FFC007F3FFD0031
:1014D2007C0884007D0885007F0880007E3F013EF5
:1014E200FE3FF4017F3F743DFF3F512A78310800EF
:1014F2002000A900A801AA01AA0129088831842094
:101502008A3120002A08FE00FF0175087F02031DB0
:101512008C2A74087E0203189E2A2A082907A7002B
:1015220027088400013085000008FF007F08A80713
:101532000130FF007F08AA077E2A0630F000003043
:10154200F1002808FE00FF017E08F2007F08F30088
:101552008931BB21700808004131FF3F7F3F0319E9
:10156200B72A0230200064060319E62A7F3F031DD2
:10157200BF2A0430200064060319E62A7F3FFF00D9
:101582002000670801397F060319E62A0C10C030D3
:101592000032890BC92A7F3F01392000031D6714DD
:1015A2000319671067081E0020308731ED278A3142
:1015B200C0300032890BDA2A7F3F0319E62A200065
:1015C2000C14C0300032890BE32A7F31080020005E
:1015D200A81FFF2A2609FD002709FE002809FF008F
:1015E200FD0A0319FE0A0319FF0A00307D07A6004F
:1015F20000307E3DA70080307F3DA800AB1F152B39
:101602002909FD002A09FE002B09FF00FD0A031922
:10161200FE0A0319FF0A00307D07A90000307E3D53
:10162200AA0080307F3DAB008030A8068030AB0638
:101632002B082802031D08002A082702031D0800A0
:101642002908260208002000360835043404330431
:1016520003195E2BF001F00AB61B3B2B0130B335A8
:10166200B40DB50DB60D890B302B0130FF007F088C
:10167200F0072D2B36083A02031D492B3508390293
:10168200031D492B34083802031D492B3308370246
:10169200031C532B3308B7023408B83B3508B93B57
:1016A2003608BA3B0130B636B50CB40CB30C890B14
:1016B200542B0130F002031D3B2B3A08B6003908C7
:1016C200B5003808B4003708B30008002000A600AF
:1016D2009731A5278B313030883101208B31223070
:1016E2008400983085000008F300003084009830B0
:1016F20085000008FF007F08F000200026089731CF
:10170200C6278B317307883101208B312130840049
:10171200983085000008883101208B312030840008
:10172200983085000008883101208B311F308400F9
:10173200983085000008883101208B311E308400EA
:10174200983085000008883101208B3197319C2721
:1017520008004331FD3F7D3F2000E90000308A311F
:10176200AD228B319731A5278B31B03088310120E2
:101772008B312000690884000130013085000008A7
:10178200883101208B3120006908013E8831842094
:101792008B317408FF3F0030FE3F7E3FFF007F3FEA
:1017A2007F020318E52B7E3F20006907FF007F0AB6
:1017B20084000130013085000008883101208B311E
:1017C2007E3F013EFE3FCE2B97319C278B3120007E
:1017D2000C142030890BEB2B20000C107D310800FB
:1017E20000301E0007308731ED278B31FF007F0864
:1017F2002000E600661F092C6508031D052C013038
:10180200FF007F08E500062C66138E31B2268B316D
:101812002000E61E332C0330FF007F08E400690835
:10182200840001308500001D232C0430FF007F0856
:10183200E400FF30FF007F08E80001308A31AD226A
:101842008B31252C2000E40120006908840001303E
:101852008500801D302C01308A31AD228B318E31D2
:10186200B2268B31200066081E0027308731ED2713
:10187200080000302000B1000030B0000030AF009E
:101882000030AE0029082804270426040319842CFA
:10189200B201B20AA91B592C0130A635A70DA80D19
:1018A200A90D890B4E2C0130FF007F08B2074B2C8B
:1018B2000130AE35AF0DB00DB10D890B5A2C290890
:1018C2002D02031D6E2C28082C02031D6E2C2708E6
:1018D2002B02031D6E2C26082A02031C792C2608D3
:1018E200AA022708AB3B2808AC3B2908AD3B2E14C3
:1018F2000130A936A80CA70CA60C890B7A2C013052
:10190200B202031D592C3108A9003008A8002F0883
:10191200A7002E08A60008000A30FF007F0820005A
:10192200C500C701C6010030C8000030C900003040
:10193200CA000130C5020319EA2C99019A010E1658
:101942001A30890BA22C003220000E121B140A300E
:10195200FF007F08C70020001B1CBB2C0130C70200
:101962000319BB2C0130F0000030F1008931402115
:101972008C31AC2C470803199A2C1A08FE00FF017F
:101982007E08FF00FE0119087E07F0007F08031899
:101992007F0AF1009731EB278C3170082000AB00F1
:1019A2007108AC007208AD004808AE004908AF00EB
:1019B2004A08B00084314E248C3120002B08C80024
:1019C2002C08C9002D08CA000130FF007F08C60795
:1019D2009A2C4608883110208C3170082000B500FE
:1019E2007108B6007208B7004808B8004908B90083
:1019F2004A08BA008F31572720003508C800360838
:101A0200C9003708CA004808C2004908C3004A088A
:101A1200C400080020301E0000301E0000301E00EE
:101A22001E0021003108013EFE000030323DFF0061
:101A32007E081E007F081E008A3147228D31210058
:101A42003108013EF0000030323DF1006508013EF0
:101A5200F2000130F30088312B208D312100310852
:101A6200013EAD000030323DAE003630AF0098305E
:101A7200B0008931E8218D3121003108013EAD00ED
:101A82000030323DAE003408B0003308AF00893177
:101A9200E8218D3121003108013EAD000030323D98
:101AA200AE003630AF009830B0008931E8218D3178
:101AB20021003108013EAD000030323DAE00350854
:101AC200A0003608A1003708A200B830FF007F0846
:101AD200A300853144258D312100AF000130B000D3
:101AE2008931E8218D3121003108840032088500D6
:101AF200800131088400320885000011320820007C
:101B0200A900210031082000A8008A3117228D3156
:101B120001302000A6000030A7008831FD20080017
:101B220020005808FD005908FE005A08FF00031063
:101B32007E0D7F0DFF007F08E1006108031DAA2DC5
:101B42000030DB000030DA000030D9000030D8006D
:101B520008005808FD005908FE005A08FF00173017
:101B6200FF36FE0CFD0C890BB12D7D08FF007F08AE
:101B7200DC00D917FF30D805FF30D9050030DA056F
:101B82005808DD005908DE005A08DF00E0018E30F7
:101B9200E102E11FE82D6108803A8F3E0318DA2D39
:101BA2000030DB000030DA000030D9000030D8000D
:101BB20008000130E036DF0CDE0CDD0C890BDB2D7A
:101BC2000130FF007F08E1070319012EDA2D1830DA
:101BD2006102031CFE2D0030DB000030DA00003011
:101BE200D9000030D80008000130DD35DE0DDF0DF0
:101BF200E00D890BF62D0130E1026108031DF52D80
:101C02005C0803190F2EDD09DE09DF09E009DD0A90
:101C12000319DE0A0319DF0A0319E00A6008DB0070
:101C22005F08DA005E08D9005D08D80008002300CA
:101C32008C018E0125008C018E0127008C018E0102
:101C420024008C018E0121008E120E1220000E1231
:101C52000B138B138F3032009905F03099050B303E
:101C62002100BA006230890B342EBA0B342E0000E8
:101C720021006508013EF0000130F1003230F2002F
:101C82009830F30088312B208E318831DE208E315E
:101C920021006508013E8A3179228E31FF007F08DA
:101CA2002100BB003B088B3167238E3121003B08AA
:101CB2008831A2208E3121001D1020000C1221003B
:101CC2000C1624000C1225000C1623000C168E157F
:101CD20021008E1522009716171697131708FC3944
:101CE20002389700703021009E049E1703309E0434
:101CF2001E1111171D0803390C389D000C15101404
:101D02000B108C1220008C129731D7278E310B17B3
:101D12008B17BC302100B1000030B2000C30B30090
:101D22009830B4000030B500F630B6004230B7004B
:101D32008D310B258E31BC302100B1000030B20054
:101D42001230B3009830B4000030B500E430B60071
:101D52004330B7008D310B258E3182312B228E31EB
:101D6200AE2E423120006403031DBD2E0230E4007A
:101D7200C1308B31AA238E3104306406031DC72E75
:101D8200E803680A031DC72E0130E4006503031D42
:101D92002B2F20301E0000301E0000301E001E00BF
:101DA200A1301E0001301E008A3147228E312300ED
:101DB200A00100301E0060308731ED278E31FE3FDA
:101DC20020000C109731A5278E3161308831012017
:101DD2008E310030883101208E312300A0007E3FF9
:101DE200F40001307402FE3F0030FF3F7F3FFF00EE
:101DF2007E3F7F0203180C2F7F3FA13E84000130FB
:101E0200013085000030883101208E3180007F3F13
:101E1200013EFF3FF72E97319C278E3120000C1494
:101E2200660C0739FF00FF0E230020087F068F395A
:101E32007F06A00000301E0009308731ED278E3169
:101E4200FF00230020087F06FE397F06A000023033
:101E52002000E50002306506031D482F2300A01D67
:101E6200482F043020006406031D482FC2301E0094
:101E7200A130893168218E3174087504031D482F01
:101E82002000E401E50100308A31AD228E310230BA
:101E920020006506031D552F2300201D552F2011FC
:101EA200A015A0308B31AA237E310800200038080B
:101EB200FD003908FE003A08FF0003107E0D7F0D79
:101EC200FF007F08C0004008031D6E2F0030B500E0
:101ED2000030B6000030B70008003508FD003608B3
:101EE200FE003708FF0003107E0D7F0DFF007F0804
:101EF200C1004108031D842F0030B5000030B60038
:101F02000030B70008000030BD000030BE000030D5
:101F1200BF0089304107BB003B08C0023808FD0002
:101F22003908FE003A08FF001030FF36FE0CFD0CA7
:101F3200890B962F7D08FF007F08C1003508FD0040
:101F42003608FE003708FF001030FF36FE0CFD0C8D
:101F5200890BA62F7D08FF007F08C1068030FF0095
:101F62007F08C105B917FF30B805FF30B905003049
:101F7200BA05B617FF30B505FF30B6050030B70514
:101F82001830FF007F08BC000130BD35BE0DBF0D0B
:101F9200890BC62F37083A02031DD52F360839029E
:101FA200031DD52F35083802031CDE2F3508B80271
:101FB2003608B93B3708BA3B3D140130B835B90D84
:101FC200BA0D890BDF2F0130BC02031DC52F3D085E
:101FD200A6003E08A7003F08A8004008FF007F08AF
:101FE200A9004108FF007F08AA0087318827200046
:101FF2002608B5002708B6002808B70008000134F3
:102002000034003400340A340034003400346434C0
:10201200003400340034E834033400340034103423
:10202200273400340034A034863401340034403480
:1020320042340F34003480349634983400340034FF
:0E204200E134F53405340034CA349A343B34AA
:102F060020001B100800640080010131890B872F07
:102F1600003421001708C1391838970064000800EA
:102F260020004E084D044C04031908008030CE06DC
:102F360008001A30890B9D2F003220008C142100C6
:102F4600101408002100101020008C101A30890B74
:102F5600AA2F0032080001302100DD070030DE3DD7
:102F66000030DF3D0030E03D0800F100F0013A306E
:102F760071020318C42F30307102031CC42FF001F4
:102F8600F00A700C0800F200F101721CCE2F7008D6
:102F9600FF007F08F1070310F00D0310F20C720812
:102FA600031DC82F7108080027009115210010166F
:102FB6000E1220000E1224008C1120001B101B087C
:102FC6003F3940389B00CF309B051B159C130800EA
:102FD60070082000A6007108A700A8018E30FF0027
:102FE6007F08A900AA018731882720002608F0005B
:102FF6002708F1002808F2000800213425346C3433
:1030060075342E34253436342E3436346C347534D7
:10301600003442344F344F34543430340034423464
:103026004F344F3454343134003443344F345534F0
:103036004E3454340034AD3487346634BC34BB3437
:10304600543445344D3450340034563442344134CB
:1030560054340034443449345334543400345534ED
:0A3066005734543400342F34003482
:020000040001F9
:08000E008CFF3CFFFFDFFFFF48
:00000001FF
