:020000040000FA
:0400000080313228F1
:10000800803174082000A0007508A1007C08A200B7
:100018007D08A3007F08A400A9308600223087004D
:100028007508A5002700931D1E28883110208031EF
:10003800270093112000101C25288C311124200042
:100048001010111B11132508FF002408FD002308B8
:10005800FC002208F5002108F4000900803134284A
:1000680021008731FF278031DB002000E401E50112
:10007800E601E701E801E9012100D801D901DA0127
:1000880020308400013085003E30883115208031D1
:10009800A0308400013085003D30883115202000D3
:1000A80062308600213087008E31262E2000CF0056
:1000B8003D30FF007F08CA003C08FF003B08FE00F7
:1000C800BB0A0319BC0A7E0884007F088500000863
:1000D800FF007F08D40054080319212A253054064C
:1000E800031983285408FF004F0884000130850055
:1000F8007F0880000130FF007F08CF076028D0010B
:10010800D101C9013B0884003C08850000088831FA
:100118003D208031031CC1282000D001D1010A30C4
:100128002000A6000030A7005108A9005008A80028
:100138008831A920803120002708D1002608D00066
:100148003B0884003C0885000008D03EFE00FF30D4
:1001580003180030FF007E08D0077F08D13D01302A
:10016800BB070030BC3D3B0884003C088500000804
:1001780088313D2080310318932820003B088400F3
:100188003C08850012002E3A031DFF280130BB07EA
:100198000030BC3DD201D3013B0884003C088500F7
:1001A800000888313D208031031C0A2920003B08C3
:1001B80084003C0885000008FE00FF015308A700E2
:1001C8005208A6000A30A8000030A9008831A920EA
:1001D80080317E0820002607FC007F08273DFD00AF
:1001E8007C08D03ED200FF307D3DD3000130BB07F4
:1001F8000030BC3DD0282000D201D3010A2949167D
:100208000A29C030FF007F08C904222920003C08C1
:10021800FF003B08FE00BB0A0319BC0A7E088400E5
:100228007F0885000008D400003A0319212A6C3A97
:1002380003190329193A031905296028491E312988
:100248004A0884008501003FCB00013FCC00023FF3
:10025800CD00033FCE0004303F294A0884008501C1
:10026800003FFE00013FFF007E08CB007F08CC0066
:10027800CD01CE010230FF007F08CA07520853049F
:10028800031D50294E084D044C044B04031D5029EE
:100298000130D2070030D33DD401D40A0A305406C5
:1002A800031983295408FE00FF01FE35FF0DFE35B2
:1002B800FF0D00307E07840090307F3D8500003FB1
:1002C800C500013FC600023FC700033FC8004808F9
:1002D8004E02031D792947084D02031D7929460856
:1002E8004C02031D792945084B02031C8329013060
:1002F800FF007F08D4070A305406031D5629530807
:10030800803A803C031D8A29520854020318922916
:1003180020005208FF007F08D400A62920005308B7
:10032800803AC50080304502031D9C2954085202BA
:100338000318A62920005408FE00FF017E08D200F9
:100348007F08D30020005108803A803C031DAE2965
:10035800500854020318B92920005408FE00FF0170
:100368007E08D0027F08D13BBC292000D001D101F2
:10037800500851040319162A2030FF004F08840042
:10038800013085007F0880000130FF007F08CF071B
:10039800FF30D007FF30D13DBC290030B600003017
:1003A800B5000030B4000A30B30053088500520885
:1003B80084008435850D8435850D003084079030A0
:1003C800853D003FA600013FA700023FA800033F6C
:1003D800A9004E08AD004D08AC004C08AB004B0816
:1003E800AA008C315A24803120002908BA00280834
:1003F800B9002708B8002608B7008B318723803159
:1004080020003308303EFF007F08D4005408FF0066
:100418004F088400013085007F0880000130FF000C
:100428007F08CF07FF30D207FF30D33D520A031DA4
:10043800D129530A03196028D1294F0884000130B3
:1004480085008001080000301E00003088315A20E5
:100458008231FF007F082000E700E71067081E00D0
:10046800203088315A2082312000A9010330A904A4
:1004780029081E00233088315A208231200028089C
:1004880080390238A80028081E00253088315A20F3
:1004980082312000AB01AB12AB150630AB042B0840
:1004A8001E00263088315A208231FF3089311E21C2
:1004B800823100301E00013088315A208231FF001D
:1004C8007F082000AC002C10AC102C11AC112C12A1
:1004D800AC122C081E00213088315A20823100309D
:1004E8001E001D3088315A208231FF007F0820000D
:1004F800AA002A152A142A081E003D3088315A20DD
:10050800823100301E001C3088315A208231FF00B1
:100518007F082000AD002D14AD142D15AD152D1636
:10052800AD162D081E003C3088315A20823120003B
:10053800AE01AF0100302F02063003192E02031856
:10054800FE2A88313420823120002E080A3E2038C5
:1005580088314B208231513084009030850000086A
:100568002000A7002E08FF007F08A600283084007E
:1005780090308500000888316D20823120002707DF
:1005880088314B208231003020002F0202300319BD
:100598002E020318EF2A503084009030850000089E
:1005A80088314B2082314F3084009030850000081C
:1005B80088314B2082314E3084009030850000080D
:1005C80088314B2082314D308400903085000008FE
:1005D80088314B20823188312B2082310130200034
:1005E800AE070030AF3D00302F02063003192E024F
:1005F800031CA52A00308B31452382312000E601F7
:100608006617E616661666081E00273088315A20D7
:10061800823100301E00073088315A208231FF00B5
:100628007F082000E60000301E00E13088315A20A3
:10063800823100301E00E23088315A208231200099
:100648006714E7156715E71467081E00203088311E
:100658005A20080020002E08FD002F08FE00300850
:10066800FF0003107E0D7F0DFF007F08B6003108E4
:10067800FD003208FE003308FF0003107E0D7F0DD9
:10068800FF007F08B50036080319562B35083602D7
:1006980003185D2B3603FF3A3507F1001930710254
:1006A800031C5D2B3108AE003208AF003308B000E0
:1006B80008003508031908003608350203186C2BA2
:1006C8003503FF3A3607F1001930710203180800A4
:1006D8000630FF007F08B400B01BB417B31B3417F3
:1006E800AF17FF30AE05FF30AF050030B005B217C9
:1006F800FF30B105FF30B2050030B30535083602CA
:100708000318A82B0130B135B20DB30D890B872B17
:100718000130B502350836060319A32B0130B4029F
:10072800340807390319A32B862B0130B036AF0CD8
:10073800AE0C890B9A2B0130FF007F08B6073608EC
:1007480035060319CD2B992B360835020318CD2B06
:100758000130AE35AF0DB00D890BAD2B0130B602AF
:10076800350836060319C92B0130B4023408073995
:100778000319C92BAC2B0130B336B20CB10C890B61
:10078800C02B0130FF007F08B50736083506031D6A
:10079800BF2BB41FDF2BFF30AE06FF30AF06FF3094
:1007A800B0060130AE07003003180130AF07003043
:1007B80003180130B007341FF12BFF30B106FF30AA
:1007C800B206FF30B3060130B1070030031801301C
:1007D800B207003003180130B307B4012E08B1077F
:1007E8002F08B23D3008B33DB31F0C2CFF30B106C3
:1007F800FF30B206FF30B3060130B10700300318EE
:100808000130B207003003180130B307B401B40A4D
:100818003108A6003208A7003308A8003608FF00F0
:100828007F08A9003408FF007F08AA008C31AD2496
:1008380020002608AE002708AF002808B0000800EE
:10084800B6302100A4000030A5005730A600903033
:10085800A7008E31C1268431200043082100A8005A
:10086800200044082100A900200045082100AA0012
:100878008D3199258431B6302100A4000030A500BF
:100888004730A6009030A70022002B082000AC00BB
:1008980022002A082000AB008831942084312000EF
:1008A8002B082100A80020002C082100A900200006
:1008B8002D082100AA008D3199258431B6302100F8
:1008C800A4000030A5003430A6009030A7005908D5
:1008D8002000AC00210058082000AB00883194208B
:1008E800843120002B082100A80020002C082100BA
:1008F800A90020002D082100AA008D3199258431F6
:10090800220097163D308531CB25843120004308DD
:10091800CC004408CD004508CE008831222084311F
:1009280020004C082100B30020004D082100B4002D
:1009380020004E082100B50000302000B70000302C
:10094800B8004030B9001230AE000330AF0040307C
:10095800B000210033082000B10021003408200035
:10096800B200210035082000B30083312E238431E2
:1009780020002E08BA002F08BB003008BC008631C2
:1009880075268431200037082100AD002000380882
:100998002100AE00200039082100AF002200971284
:1009A800A9302000AE00D130AF004330B000043091
:1009B800B700AD30B800BA30B90021002D082000CA
:1009C800BA0021002E082000BB0021002F082000BB
:1009D800BC0086317526843120003708B1003808FC
:1009E800B2003908B30083312E23843120002E0849
:1009F8002100B00020002F082100B100200030089D
:100A08002100B200B630A4000030A5005230A60084
:100A18009030A7003008A8003108A9003208AA00C1
:100A28008D319925080020002B08FD002C08FE00B8
:100A38002D08FF0003107E0D7F0DFF007F08B10019
:100A48003108031D2E2D0030AB000030AC00003003
:100A5800AD0008002E08FD002F08FE003008FF003A
:100A680003107E0D7F0DFF007F08B6003608031DBA
:100A7800442D0030AB000030AC000030AD00080061
:100A880036087B3EFF007F08B1072B08FD002C08C5
:100A9800FE002D08FF001030FF36FE0CFD0C890B00
:100AA800502D7D08FF007F08B6002E08FD002F0896
:100AB800FE003008FF001030FF36FE0CFD0C890BDD
:100AC800602D7D08FF007F08B6068030FF007F0894
:100AD800B605AC17AF17FF30AE05FF30AF050030D5
:100AE800B0050030B2000030B3000030B400073069
:100AF800FF007F08B5002B1C872D2E08B2072F0892
:100B0800B33D3008B43D0130AD36AC0CAB0C890BAD
:100B1800882D0130AE35AF0DB00D890B8E2D01300B
:100B2800B502031D7F2D0930FF007F08B5002B1C7F
:100B3800A32D2E08B2072F08B33D3008B43D01306D
:100B4800AD36AC0CAB0C890BA42D0130B436B30C0C
:100B5800B20C890BAA2D0130B502031D9B2D32085A
:100B6800A6003308A7003408A8003108FF007F0852
:100B7800A9003608FF007F08AA008C31AD242000A8
:100B88002608AB002708AC002808AD0008002000A4
:100B9800C6000030C9000030CA000030CB00E83081
:100BA800C7000330C8004608F300F30DF30D210019
:100BB8001D087306033973069D002200971721004C
:100BC8001D1401302000A6000030A70089319B21A8
:100BD800853101302000C7020030C83B470A03199D
:100BE800480A03192C2E21009D1421009D1C052E56
:100BF80001302000A6000030A70089319B218531F3
:100C0800F92D1C08FE00FF017E08FF00FE017E088A
:100C18001B042000AB007F08AC00893179218531A5
:100C280020002B08AE002C08AF002D08B0004908A2
:100C3800B1004A08B2004B08B30083312E23853136
:100C480020002E08C9002F08CA003008CB00ED2D5F
:100C58002200971321001D1000302000B7007A30C1
:100C6800B8004430B9004908BA004A08BB004B082C
:100C7800BC0086317526853120003708C900380840
:100C8800CA003908CB0021001E080339033A0319AA
:100C9800662E6D2E00302000B700FA30B8004330C1
:100CA800B9004908BA004A08BB004B08BC008631A5
:100CB8007526853120003708C9003808CA00390868
:100CC800CB006D2E220017080339023A03194E2E65
:100CD8006D2E20004908C3004A08C4004B08C5000F
:100CE800080020003A08FD003B08FE003C08FF0011
:100CF80003107E0D7F0DFF007F08C1004108031D12
:100D08008C2E0030B7000030B8000030B900080061
:100D18003708FD003808FE003908FF0003107E0D73
:100D28007F0DFF007F08C2004208031DA22E00307D
:100D3800B7000030B8000030B90008000030BE002D
:100D48000030BF000030C00089304207F20072084E
:100D5800C1023A08FD003B08FE003C08FF001030C5
:100D6800FF36FE0CFD0C890BB42E7D08FF007F08B2
:100D7800C2003708FD003808FE003908FF001030AF
:100D8800FF36FE0CFD0C890BC42E7D08FF007F0882
:100D9800C2068030FF007F08C205BB17FF30BA05C6
:100DA800FF30BB050030BC05B817FF30B705FF3072
:100DB800B8050030B9051830FF007F08BD000130C4
:100DC800BE35BF0DC00D890BE42E39083C02031D4A
:100DD800F32E38083B02031DF32E37083A02031C92
:100DE800FC2E3708BA023808BB3B3908BC3B3E1416
:100DF8000130BA35BB0DBC0D890BFD2E0130BD028B
:100E0800031DE32E3E08A6003F08A7004008A800DF
:100E18004108FF007F08A9004208FF007F08AA00D8
:100E28008C31AD2420002608B7002708B800280810
:100E3800B9000800423120006403031D292F023045
:100E4800E400A0308B31CA23873104306406031DC7
:100E5800332FE803680A031D332F0130E4006503CC
:100E6800031D972F20301E0000301E0000301E008A
:100E78001E002D301E0001301E008A31A32287314A
:100E88002200AC0100301E00603088315A208731C2
:100E9800FE3F20000C1088313420873161308831C2
:100EA8004B208731003088314B2087312200AC003D
:100EB8007E3FF40001307402FE3F0030FF3F7F3F69
:100EC800FF007E3F7F020318782F7F3F2D3E84006E
:100ED800013001308500003088314B208731800097
:100EE8007F3F013EFF3F632F88312B208731200051
:100EF8000C14660C0739FF00FF0E22002C087F0631
:100F08008F397F06AC0000301E00093088315A2026
:100F18008731FF0022002C087F06FE397F06AC00CF
:100F280002302000E50002306506031DB42F2200C0
:100F3800AC1DB42F043020006406031DB42FA1306B
:100F48001E002D308931C421873174087504031DB2
:100F5800B42F2000E401E50100308B310A238731EA
:100F6800023020006506031DC12F22002C1DC12F51
:100F78002C11AC152C308B31CA237E31080020008F
:100F8800A81FDA2F2609FD002709FE002809FF00FF
:100F9800FD0A0319FE0A0319FF0A00307D07A6009F
:100FA80000307E3DA70080307F3DA800AB1FF02FAA
:100FB8002909FD002A09FE002B09FF00FD0A031973
:100FC800FE0A0319FF0A00307D07A90000307E3DA4
:100FD800AA0080307F3DAB008030A8068030AB0689
:100FE8002B082802031D08002A082702031D0800F1
:080FF800290826020800C1349B
:101020002100DA0120001B1008006400800101315A
:10103000890B1628003421001708C1391838970089
:101040006400080020004E084D044C0403190800F9
:101050008030CE0608001A30890B2C280032200080
:101060008C142100101408002100101020008C1096
:101070001A30890B392800320800F100F0013A30AB
:1010800071020318492830307102031C4928F0010D
:10109000F00A700C08004131FF3F7F3F24009100AF
:1010A00020000E162400141857280000522811089A
:1010B0007F3108004131FF3F8831342088317F3F44
:1010C00088314B2088317E3F88314B208831FE3F6C
:1010D00088312B207E3F7E310800F100F001711C29
:1010E000762820002608FF007F08F0070310200064
:1010F000A60D0310F10C7108031D6F28700808007D
:1011000027009115210010160E1220000E12240047
:101110008C1120001B101B083F3940389B00CF303A
:101120009B051B159C13080020002B08A6002C080B
:10113000A700A8018E30FF007F08A900AA018C310A
:10114000AD2420002608AB002708AC002808AD001D
:101150000800F001F1012000261CB2282808F00741
:101160002908F13D0130A835A90D890BB3280130BC
:10117000A736A60C890BB82826082704031DAB2820
:101180007108A7007008A600080020002708F100D9
:101190002608F00028088400290885000008FF00C0
:1011A00070088400710885007F088000000803191A
:1011B00008000130F0070030F13D0130A807003091
:1011C000A93DCA2820003908380437040319EA2841
:1011D0008030B9063A08AE003B08AF003C08B000CA
:1011E0003708B1003808B2003908B30083312E2324
:1011F00020002E08B7002F08B8003008B9000800FA
:101200004231FE3F06088400070885003E31003F5A
:10121000FF3F7F3F84000130850000080319142937
:101220007F3F013EFF3F09297F3FFF007E3F7F0256
:10123000F400F501F41BF5037E310800F1000630DF
:101240007102031C2A297214F2147215F215721617
:10125000F216362972147208F000710A3029F0353E
:10126000890B2F297008FF007F08F20072081E000A
:10127000223088315A20080021000C108C108E1466
:101280000E110E10240095123D002108E03911388E
:10129000A1002208E0391938A2002008E0391838E6
:1012A000A0002400151214171508F0390138950014
:1012B0009516080089313C21893120000C100B3033
:1012C0002000B0006230890B6329B00B6329000055
:1012D0008231272289310B302000B0006230890B27
:1012E0006F29B00B6F29000020000C14E401E50108
:1012F0000800F0012000AC1F8429AB09AC09AB0A3F
:101300000319AC0AF001F00A2B08A6002C08A7006C
:10131000A8018E30FF007F08A9007008FF007F0839
:10132000AA008C31AD2420002608AB002708AC00B1
:101330002808AD000800F101133071020318C1291B
:1013400020002708FF002608FE00710AA929FF36A1
:10135000FE0C890BA7297E1CB9297108F000F00D3D
:10136000210017087006C13970069700630000005D
:1013700000000130FF007F08F10713307102031CE9
:10138000A02988311B2008004231FE3FD4297E3F2E
:1013900084000130850000080319E6297E3F013EE4
:1013A000FE3F7D3F013EFD3F7D3F840001308500D3
:1013B0000008FF007E3F8400013085000008F40033
:1013C0007F087402FF3F89080319C7297F3FF40093
:1013D000F501F41BF5037D3108008E30FF007F0816
:1013E000F000FF3020002E050319032A01302000F1
:1013F000AE36AD0CAC0CAB0C890BF7290130FF00FD
:101400007F08F007F1292B08A6002C08A7002D085B
:10141000A8007008FF007F08A900AA018C31AD2444
:1014200020002608AB002708AC002808AD00080003
:101430002000260827040319402AF001F00AA71B00
:101440002B2A0130A635A70D890B222A0130FF0077
:101450007F08F0071F2A27082902031D312A2608C2
:101460002802031C372A2608A8022708A93B0130B6
:10147000A736A60C890B382A0130F002031D2B2A4F
:101480002908A7002808A6000800A1302000A6000F
:101490000130A7007208013EFE000030733DFF00DE
:1014A0007E08A8007F08A9008831C5208A3172080B
:1014B0008400730885000008FF007F082300A00057
:1014C0000130FF007F082000E400200064080319B9
:1014D00008000130A6000030A70089319B218A3125
:1014E00087311E278A31652A210021082000E30068
:1014F000210020082000E2006208840063088500C3
:1015000000080319912A0130E2070030E33D7C2AEC
:101510000130E2070030E33D01302100A207003036
:10152000A33D210022088400230885000008FF0055
:10153000200062088400630885007F08800000089E
:1015400003190800882A423106088400070885002C
:101550003C31003FFE3F013FFF3F783FF400013048
:101560007402F83F793FF4000030743BF93F783F54
:10157000FF3AF400793FFF3AF4040319D32A7A3F83
:10158000FF007E3FFC007F3FFD007C0884007D085B
:1015900085007F0880007E3F013EFE3FF4017F3FD3
:1015A000743DFF3FAD2A783108002000AB00AA014E
:1015B000AC01AC012B08893100218A3120002C08B4
:1015C000FE00FF0175087F02031DE82A74087E02F1
:1015D0000318FA2A2C082B07F10071088400013047
:1015E00085000008FF007F08AA070130FF007F0880
:1015F000AC07DA2A0630A6000030A7002A08FE0051
:10160000FF017E08A8007F08A9008A311822200067
:10161000260808004131FF3F7F3F0319142B023099
:10162000200064060319432B7F3F031D1C2B04304D
:10163000200064060319432B7F3FFF00200067084A
:1016400001397F060319432B0C10C0300032890B7F
:10165000262B7F3F01392000031D671403196710F3
:1016600067081E00203088315A208B31C03000328C
:10167000890B372B7F3F0319432B20000C14C030FC
:101680000032890B402B7F310800F3008831342071
:101690008B31303088314B208B3151308400903089
:1016A00085000008F2002830840090308500000892
:1016B000FF007F082000A600730888316D208B3161
:1016C000720788314B208B31503084009030850078
:1016D000000888314B208B314F30840090308500DA
:1016E000000888314B208B314E30840090308500CB
:1016F000000888314B208B314D30840090308500BC
:10170000000888314B208B3188312B2008002000C5
:1017100036083504340433040319C12BF001F00AF0
:10172000B61B9E2B0130B335B40DB50DB60D890B2C
:10173000932B0130FF007F08F007902B36083A0208
:10174000031DAC2B35083902031DAC2B34083802BD
:10175000031DAC2B33083702031CB62B3308B7022A
:101760003408B83B3508B93B3608BA3B0130B636C9
:10177000B50CB40CB30C890BB72B0130F002031D70
:101780009E2B3A08B6003908B5003808B40037086F
:10179000B30008004331FD3F7D3F2000E9000030E9
:1017A0008B310A238B31883134208B31B030883132
:1017B0004B208B3120006908840001300130850006
:1017C000000888314B208B3120006908013E8931A7
:1017D00000218B317408FF3F0030FE3F7E3FFF0049
:1017E0007F3F7F020318052C7E3F20006907FF0022
:1017F0007F0A8400013001308500000888314B20C9
:101800008B317E3F013EFE3FEE2B88312B208B310A
:1018100020000C142030890B0B2C20000C107D3183
:10182000080000301E00073088315A208C31FF003C
:101830007F082000E600661F292C6508031D252C63
:101840000130FF007F08E500262C661387311E2734
:101850008C312000E61E532C0330FF007F08E4008B
:101860006908840001308500001D432C0430FF000E
:101870007F08E400FF30FF007F08E80001308B3173
:101880000A238C31452C2000E401200069088400E3
:1018900001308500801D502C01308B310A238C31A2
:1018A00087311E278C31200066081E0027308831C2
:1018B0005A20080000302000B1000030B000003095
:1018C000AF000030AE0029082804270426040319BD
:1018D000A42CB201B20AA91B792C0130A635A70DA0
:1018E000A80DA90D890B6E2C0130FF007F08B207EF
:1018F0006B2C0130AE35AF0DB00DB10D890B7A2CCC
:1019000029082D02031D8E2C28082C02031D8E2C65
:1019100027082B02031D8E2C26082A02031C992C53
:101920002608AA022708AB3B2808AC3B2908AD3B98
:101930002E140130A936A80CA70CA60C890B9A2CE2
:101940000130B202031D792C3108A9003008A8002B
:101950002F08A7002E08A600080020002908031958
:10196000B62C280827042604031DC72C0030A60027
:101970000030A7000030A80008000130FF007F08F9
:10198000A9070130A836A70CA60C890BC22CFE3083
:1019900028050319E02CBD2C0130FF007F08A907A2
:1019A0000130A607003003180130A70700300318E4
:1019B0000130A8070130A836A70CA60C890BDB2C38
:1019C000FF3028050319ED2CCC2C0130A902013081
:1019D000A635A70DA80D890BE82CA71BF32C023008
:1019E00029020318E52C2918FB2CFF30A6057F30AF
:1019F000A705FF30A8050310A90C2908FD00FE016A
:101A0000FF011030FD35FE0DFF0D890B022D7D0805
:101A1000A6047E08A7047F08A8042A080319080062
:101A2000A817080020003708FD003808FE00390814
:101A3000FF0003107E0D7F0DFF007F08C0004008EF
:101A4000031D2B2D0030BA000030B9000030B80063
:101A50000030B70008003708FD003808FE003908DC
:101A6000FF001730FF36FE0CFD0C890B322D7D0870
:101A7000FF007F08BB00B817FF30B705FF30B8057F
:101A80000030B9053708BC003808BD003908BE0071
:101A9000BF018E30C002C01F692D4008803A8F3EC2
:101AA00003185B2D0030BA000030B9000030B800D8
:101AB0000030B70008000130BF36BE0CBD0CBC0CB6
:101AC000890B5C2D0130FF007F08C0070319822DB0
:101AD0005B2D18304002031C7F2D0030BA0000300F
:101AE000B9000030B8000030B70008000130BC3544
:101AF000BD0DBE0DBF0D890B772D0130C002400812
:101B0000031D762D3B080319902DBC09BD09BE09A4
:101B1000BF09BC0A0319BD0A0319BE0A0319BF0A8B
:101B20003F08BA003E08B9003D08B8003C08B700BD
:101B3000080020301E0000301E0000301E001E0075
:101B400021002408013EFE000030253DFF007E08F4
:101B50001E007F081E008A31A3228D312100240837
:101B6000013E2000A60000302100253D2000A700F6
:101B700021005B08013E2000A8000130A900883147
:101B8000C5208D3121002408013EA0000030253DF4
:101B9000A1006030A2009030A3008A3174228D3100
:101BA00021002408013EA0000030253DA1002708A7
:101BB000A3002608A2008A3174228D312100240856
:101BC000013EA0000030253DA1006030A200903011
:101BD000A3008A3174228D3121002408013EA00027
:101BE0000030253DA10028082000D500210029084B
:101BF0002000D60021002A082000D700AB30FF00CB
:101C00007F08D8008F315D278D312100A20001307F
:101C1000A3008A3174228D31210024088400250814
:101C2000850080012408840025088500001125080E
:101C3000F3002408F2008A3145228D31C83020009B
:101C4000A6000030A70089319B21080023008C01E9
:101C50008E0125008C018E0127008C018E0124004D
:101C60008C018E0121008E120E1220000E120B1319
:101C70008B138F3032009905F03099050B3021001D
:101C8000D7006230890B422ED70B422E0000210074
:101C90005B08013E2000A6000130A7005C30A800D0
:101CA0009030A9008831C5208E3189315A218E317A
:101CB00021005B08013E8A31D5228E31FF007F086A
:101CC0002400A00020088B3145238E3124002008F9
:101CD00089311E218E3121001D1020000C1221009F
:101CE0000C1624000C1225000C1623000C168E1561
:101CF00021008E1522009716171697131708FC3926
:101D000002389700703021009E049E1703309E0415
:101D10001E1111171D0803390C389D000C151014E5
:101D20000B108C1220008C12883180208E310B1702
:101D30008B1721302100A4000230A5003B30A60003
:101D40009030A7000030A800F630A9004230AA0069
:101D50008D3199258E3121302100A4000230A5005B
:101D60004130A6009030A7000030A800E430A90060
:101D70004330AA008D3199258E31843124248E314F
:101D8000BD2E00302000C6000030C7000030C80063
:101D90002200AA01AB012100D801D90122002B08A1
:101DA000FF002A08FE00AA0A0319AB0A03307F02CB
:101DB000E83003197E0203182D2F200099019A01A3
:101DC0000E161A30890BE22E003220001B1401304F
:101DD000FF007F082100DA0020000E120730A60065
:101DE0000030A70089319B218E3121005A08031D44
:101DF000262F20001A08FE00FF017E08FF00FE01CA
:101E000019087E07AB007F0803187F0AAC008831F1
:101E100094208E3120002B08AE002C08AF002D0836
:101E2000B0004608B1004708B2004808B30083314B
:101E30002E238E3120002E08C6002F08C700300840
:101E4000C80001302100D8070030D93D00305902C8
:101E5000323003195802031CCE2E210059082000ED
:101E6000AC00210058082000AB00883194208E314E
:101E700020002B08B7002C08B8002D08B900460830
:101E8000BA004708BB004808BC00863175268E3171
:101E900020003708C6003808C7003908C8000130DC
:101EA000A6000030A70089319B2120004608C3000E
:101EB0004708C4004808C50008004D30FF007F08EF
:101EC0002000E1005508A6005608A7005708A80002
:101ED0000030A9000030AA000030AB008731C327D2
:101EE0008F310318902F2D30FF00200061088400EF
:101EF000013085007F0880000130FF007F08E10786
:101F00005508CC005608CD005708CE008831222055
:101F10008F3120004C08D5004D08D6004E08D70060
:101F200020005508B7005608B8005708B9008D3191
:101F300012258F3120003A08E0003908DF00380808
:101F4000DE003708DD006008AE005F08AD005E0807
:101F5000AC005D08AB008931ED218F3120002B08EA
:101F6000B7002C08B8002D08B9005508BA0056086B
:101F7000BB005708BC008831E2208F3120003708B1
:101F8000D5003808D6003908D7005508AE005608E5
:101F9000AF005708B0002430AB007430AC004930BB
:101FA000AD00853117258F3120002B08B7002C0894
:101FB000B8002D08B9008D3112258F3120003A0864
:101FC000DC003908DB003808DA003708D90029308E
:101FD000BB009030BC006008C0005F08BF005E0816
:101FE000BE005D08BD005C08C4005B08C3005A0861
:101FF000C2005908C100610880315A204D300800E4
:1020000001340034003400340A3400340034003425
:102010006434003400340034E834033400340034D1
:102020001034273400340034A034863401340034B2
:10203000403442340F3400348034963498340034C1
:102040000034E134F53405340034CA349A343B3476
:10205000213425346C3475342E34253436342E3402
:1020600036346C3475340034723463346F34753400
:102070006E347434003442344F344F34543430347A
:10208000003442344F344F345434313400347234D9
:102090006C346F346F3470340034AD34873466344C
:1020A000BC34BB34543445344D345034003444349F
:1020B0004934533454340034553457345434003490
:0420C0002F34003485
:020000040001F9
:08000E008CFF3CFFFFDFFFFF48
:00000001FF
