:020000040000FA
:1000000080310F28A03008007E1480312000101CA1
:100010000D2889319D21200010107E1009008031AB
:10002000112821008731FF278031EB00FD01E80115
:10003000E901EA0150308400013085001430963126
:1000400039268031A0308400013085003D30963162
:1000500039267E1020008F314B2F2000CE003A3001
:10006000C2004208C9003908C3003808C200B80AF3
:100070000319B90A42088400430885000008C40037
:100080004408D30053080319F429253053060319F3
:1000900056285308C2004E088600013087004208E7
:1000A00081000130C2004208CE073328CF01D001C1
:1000B000C801380884003908850000089631632695
:1000C0008031031C94282000CF01D0010A30200089
:1000D000A0000030A1005008A3004F08A2009731F3
:1000E0002827803120002108D0002008CF003808C0
:1000F0008400390885000008D03EC200FF30031894
:100100000030C3004208CF074308D03D0130B80794
:100110000030B93D38088400390885000008963160
:1001200063268031031866282000380884003908C7
:10013000850012002E3A031DD2280130B807003086
:10014000B93DD101D2013808840039088500000882
:10015000963163268031031CDD2820003808840096
:10016000390885000008C200C3015208A1005108E7
:10017000A0000A30A2000030A30097312827803168
:10018000200042082007C4004308213DC500440860
:10019000D03ED100FF30453DD2000130B8070030DD
:1001A000B93DA3282000D101D201DD284816DD2861
:1001B000C030C2004208C804F52820003908C30036
:1001C0003808C200B80A0319B90A42088400430873
:1001D00085000008D300003A0319F4296C3A03198A
:1001E000D628193A0319D8283328481E0429490863
:1001F00086008701403FCA00413FCB00423FCC0010
:10020000433FCD0004301229490886008701403F52
:10021000C200413FC3004208CA004308CB00CC01E2
:10022000CD010230C2004208C90751085204031D23
:1002300023294D084C044B044A04031D2329013093
:10024000D1070030D23DD301D30A0A305306031937
:1002500056295308C200C301C235C30DC235C30DB0
:100260000030420784009030433D8500003FC400C9
:10027000013FC500023FC600033FC70047084D02CB
:10028000031D4C2946084C02031D4C2945084B020E
:10029000031D4C2944084A02031C56290130C200A0
:1002A0004208D3070A305306031D29295208803A11
:1002B000803C031D5D295108530203186529200065
:1002C0005108C2004208D300792920005208803A20
:1002D000C20080304202031D6F29530851020318E7
:1002E000792920005308C200C3014208D100430805
:1002F000D20020005008803A803C031D81294F081D
:10030000530203188C2920005308C200C30142087D
:10031000CF024308D03B8F292000CF01D0014F08E6
:1003200050040319E9292030C2004E08860001302C
:100330008700420881000130C2004208CE07FF302A
:10034000CF07FF30D03D8F290030B1000030B00022
:100350000030AF000A30AE0052088500510884001A
:100360008435850D8435850D003084079030853DBA
:10037000003FA000013FA100023FA200033FA300F5
:100380004D08A7004C08A6004B08A5004A08A40089
:100390008B31F123803120002308B5002208B400FE
:1003A0002108B3002008B2008A3190228031200059
:1003B0002E08303EC2004208D3005308C2004E0847
:1003C000860001308700420881000130C2004208E7
:1003D000CE07FF30D107FF30D23D510A031DA429BB
:1003E000520A03193328A4294E08860001308700D9
:1003F000810108002F302100B9000130BA003130EE
:10040000BB009830BC00220050082100BD00220033
:1004100051082100BE00220052082100BF00873190
:100420007527813122002F112F302000A7000130C5
:10043000A80086319A268131963196268131D030B6
:100440002000B2000730B3008A311422813122002B
:100450009716171A2D2A04302E2A0230AC000030CD
:10046000AD003D308D314825813120004B08D7004B
:100470004C08D8004D08D900883101208131200076
:1004800057082200A600200058082200A7002000DC
:1004900059082200A8002D082000A90022002C08DD
:1004A0002000A8009731DE27813120002808BB00FA
:1004B0002908BC002A08BD001230AE000330AF008E
:1004C0004030B000220026082000B100220027089A
:1004D0002000B200220028082000B3008431B2249A
:1004E000813120002E08BE002F08BF003008C00058
:1004F0008D31EE25813120003B082200A000200034
:100500003C082200A10020003D082200A200971212
:10051000F0302000AE00CB30AF004330B000803070
:10052000BB00B730BC00BA30BD002200200820005C
:10053000BE00220021082000BF0022002208200067
:10054000C0008D31EE25813120003B08B1003C0810
:10055000B2003D08B3008431B224813120002E085E
:100560002200A30020002F082200A4002000300851
:100570002200A5002F302100B9000130BA001E3042
:10058000BB009830BC00220023082100BD002200DF
:1005900024082100BE00220025082100BF00873169
:1005A0007527813122002F152F302000A700013040
:1005B000A80086319A268131963196268131D03035
:1005C0002000B2000730B3008A3114228131FC30A0
:1005D00021009E0522001708FC3902389700CF3011
:1005E0002000D7004630D8004030D90004308D318B
:1005F0004825813120004B08DA004C08DB004D080B
:10060000DC008E3197268131200057082200A90096
:10061000200058082200AA00200059082200AB0040
:100620002F302100B9000130BA002330BB009830D0
:10063000BC00220029082100BD0022002A08210058
:10064000BE0022002B082100BF00873175278131B1
:1006500022002F152F302000A7000130A80086317E
:100660009A268131963196268131D0302000B20011
:100670000730B3008A31142281312F302100B900B4
:100680000130BA000C30BB009830BC0013308D3103
:100690004825813120004B082100BD0020004C0876
:1006A0002100BE0020004D082100BF0087317527C2
:1006B000813122002F152F302000A7000130A80023
:1006C00086319A268131963196268131D0302000AC
:1006D000B2000730B3008A31142281312000A0011A
:1006E000063097319D2781312100C3004308220045
:1006F000AE002F302100B9000130BA001330BB002A
:100700009830BC0022002E0C033997310D2781311F
:10071000200028082100BD00200029082100BE007B
:1007200020002A082100BF0087317527813122006F
:100730002F152F302000A7000130A80086319A26FF
:100740008131963196268131D0302000B2000730B9
:10075000B3008A31142208002000B0103008A7002E
:100760002708A000203097319D2783312000AA015F
:100770000330AA042A08A7002708A00022309731D6
:100780009D2783312000290880390238A9002908D3
:10079000A7002708A000253097319D27833120002E
:1007A000AC01AC12AC150630AC042C08A70027082D
:1007B000A000263097319D278331FF309731BD2728
:1007C00083312000A001013097319D278331200023
:1007D000A7002708AE002E10AE102E11AE112E125B
:1007E000AE122E08A7002708A000213097319D27C0
:1007F00083312000A0011D3097319D2783312000D7
:10080000A7002708AB002B152B142B08A7002708DF
:10081000A0003D3097319D2783312000A0011C307E
:1008200097319D2783312000A7002708AF002F14A0
:10083000AF142F15AF152F16AF162F08A7002708D6
:10084000A0003C3097319D2783312000B101B201D7
:10085000003032020630031931020318882C963119
:100860004E268331200031080A3E20389631562624
:1008700083311D3084009830850000082000A700D7
:100880003108A8002808A0000030840098308500B6
:1008900000089631722683312000270796315626AC
:1008A0008331003020003202023003193102031874
:1008B000792C1C308400983085000008963156262B
:1008C00083311B308400983085000008963156260D
:1008D00083311A30840098308500000896315626FE
:1008E00083311930840098308500000896315626EF
:1008F000833196313F26833101302000B10700302B
:10090000B23D00303202063003193102031C2F2C95
:1009100000308B31172383312000AD012D17AD1628
:100920002D162D08A7002708A000273097319D27F6
:1009300083312000A001E13097319D2783312000D1
:10094000A001E23097319D27833120003014B0158B
:100950003015B0143008A7002708A00020309731C8
:100960009D27080020002E08B4002F08B50030088D
:10097000B6000310350D360DB7003708BA00310840
:10098000B4003208B5003308B6000310350D360D3B
:10099000B7003708B9003A080319DA2C39083A02C7
:1009A0000318E12C3A03FF3A3907B4001930340236
:1009B000031CE12C3108AE003208AF003308B00050
:1009C00008003908031908003A0839020318F02C06
:1009D0003903FF3A3A07B40019303402031808000B
:1009E0000630B4003408B800B01BB817B31B381772
:1009F000AF17FF30AE05FF30AF050030B005B217BE
:100A0000FF30B105FF30B2050030B30539083A02B6
:100A100003182C2D0130B135B20DB30D890B0B2D00
:100A20000130B90239083A060319272D0130B802FE
:100A3000380807390319272D0A2D0130B036AF0CBD
:100A4000AE0C890B1E2D0130B4003408BA073A08E9
:100A500039060319512D1D2D3A0839020318512D5D
:100A60000130AE35AF0DB00D890B312D0130BA021A
:100A700039083A0603194D2D0130B80238080739F4
:100A800003194D2D302D0130B336B20CB10C890B4A
:100A9000442D0130B4003408B9073A083906031D63
:100AA000432DB81F632DFF30AE06FF30AF06FF3079
:100AB000B0060130AE07003003180130AF07003038
:100AC00003180130B007381F752DFF30B106FF3015
:100AD000B206FF30B3060130B10700300318013011
:100AE000B207003003180130B307B8012E08B10770
:100AF0002F08B23D3008B33DB31F902DFF30B10633
:100B0000FF30B206FF30B3060130B10700300318E2
:100B10000130B207003003180130B307B801B80A3A
:100B20003108A0003208A1003308A2003A08B4003E
:100B30003408A3003808B5003508A4008C314424DB
:100B400020002008AE002108AF002208B0000800F5
:100B500053302000EF006F082100B200260820006B
:100B6000A000210027082000A10021002808200063
:100B7000A2000030A3000030A4000030A50089319D
:100B8000D82185310318EE2D2D302000EF002100F3
:100B9000320886000130870020006F088100013094
:100BA000EF006F082100B20726082000D7002100BF
:100BB00027082000D800210028082000D90088310B
:100BC00001208531200057082100A6002000580888
:100BD0002100A700200059082100A80021002608B4
:100BE0002000E700210027082000E8002100280855
:100BF0002000E9008C31A924853120006A082100F9
:100C0000B100200069082100B00020006808210020
:100C1000AF00200067082100AE0031082000AB00C3
:100C2000210030082000AA0021002F082000A90080
:100C300021002E082000A80088317C20853120006A
:100C40002808BB002908BC002A08BD00210026088E
:100C50002000BE00210027082000BF002100280836
:100C60002000C00097316027853120003B0821001B
:100C7000A60020003C082100A70020003D0821001C
:100C8000A80026082000DA00210027082000DB0049
:100C9000210028082000DC002430D7007430D80060
:100CA0004930D9008E319726853120005708E7005A
:100CB0005808E8005908E9008C31A9248531200042
:100CC0006A082100AD00200069082100AC00200066
:100CD00068082100AB00200067082100AA0001304D
:100CE0002000B8009830B900210031082000BD0074
:100CF000210030082000BC0021002F082000BB008C
:100D000021002E082000BA0021002D082000C1007B
:100D100021002C082000C00021002B082000BF006B
:100D200021002A082000BE002100320880312D2039
:100D300053300800FF302000A9002908AD007D1CB9
:100D4000B02E01302000AD0203199A2E063020008B
:100D5000A9003030890BAA2EA90BAA2E00009F2EC5
:100D6000200028082100E900200027082100E800D1
:100D70007D14003096314626863100308B315B235E
:100D8000863196314E268631B030963156268631E0
:100D900021006808860069088700010896315626F8
:100DA00086312000AD01ED2E2D08013EA900003056
:100DB00003180130AA0029082100680786002000D6
:100DC0002A082100693D87000108963156268631A0
:100DD00001302000A9002908AD0721006808013E64
:100DE0002000A90000302100693D2000AA00290848
:100DF000A0002A08A10097317E27863120002D0807
:100E0000AB00AC0121082C02031D082F20082B0287
:100E100003180E2F20302D02031CD42E96313F26AE
:100E2000863196312D2686313530890B152F0000FD
:100E30009631302686310130963146268631FF3094
:100E40002000A9002908AD007D1C352F01302000AD
:100E5000AD0203199A2E06302000A9003030890B0C
:100E60002F2FA90B2F2F0000242FFF302000A900C7
:100E70002908AD0021006808860069088700011D67
:100E8000080001308B315B23863101302000AD0238
:100E9000031D6B2F03302000AA000830A900773013
:100EA000890B502FA90B502FAA0B502F0330200075
:100EB000AA000830A9007730890B5C2FA90B5C2FA2
:100EC000AA0B5C2F01302000A3000030A4008A315F
:100ED000512286319A2E06302000A9003030890B2D
:100EE0006F2FA90B6F2F00003A2F21003908013E08
:100EF0002000A000003021003A3D2000A100003079
:100F0000A200A3002030A4000030A5009631D9260D
:100F1000873121003908013EB30000303A3DB4006A
:100F20006B08013EB5000130B6008831552087318D
:100F300021003908013EB30000303A3DB40035309D
:100F4000B5009830B6008831552087312100390826
:100F5000013EB30000303A3DB4003C08B6003B0807
:100F6000B50088315520873121003908013EB30092
:100F700000303A3DB4003530B5009830B6008831C5
:100F80005520873121003908013EB30000303A3D39
:100F9000B4003D08A6003E08A7003F08A800C130E5
:100FA000C0004008A9008531A82587312100B5007F
:100FB0000130B600883155202100390886003A08F2
:100FC0008700810108002000A3002308A200220856
:100FD000A40024088600013087002008840021082E
:100FE00085000008C03F8908031908000130A200ED
:100FF0002208A4070130A0070030A13DE92FC13429
:101002002000590858045704031908008030D906F3
:1010120008009731442788319631302688310330D1
:101022002000B4000830B3007730890B1628B30BC8
:101032001628B40B16288331AC23883103302000E4
:10104200B4000830B3007730890B2528B30B25286C
:10105200B40B252896312D26080037280130F007D9
:101062000030F13D0130F3007308F207700886008A
:101072007108870072088400013085000003FF3A7E
:101082000107F3007308F4007408031D4F28700869
:101092008600710887000108031D2F287408F000DC
:1010A200F101F01BF103080021003408B8003308F5
:1010B200B7003708860038088700010803196E2830
:1010C2000130B7070030B83D5A280130B707003069
:1010D200B83D0130B5070030B63D37088600380804
:1010E200870035088400360885000008C03F89085B
:1010F2000319080066288E302000AC002C08AD00D1
:10110200FF302B05031991280130AB36AA0CA90C2C
:10111200A80C890B86280130AC002C08AD07812869
:101122002808A0002908A1002A08A2002D08AC0066
:101132002C08A300A4018C31442420002008A8001C
:101142002108A9002208AA00080020002008210482
:101152000319CE28A501A50AA11BB9280130A03583
:10116200A10D890BB0280130A4002408A507AD28E1
:1011720021082302031DBF2820082202031CC528C0
:101182002008A2022108A33B0130A136A00C890B42
:10119200C6280130A502031DB9282308A100220890
:1011A200A00008002000AF002F0886000130870051
:1011B200010E07398B311723883120002F08860052
:1011C2000130870001112F08860001308700811548
:1011D2002F0886000130870001080139AE002F0870
:1011E200860001308700AE0D01082E06FD392E065D
:1011F20081002F08A7000130A80086319A26080036
:101202002300A01D0800FD1021006808860069085F
:101212008700011D08006808013EF7000030693DA3
:10122200F8007708F0007808F100A130F900790899
:10123200F20088312E20893170087104031D0800E4
:101242002100680886006908870001116808860085
:1012520069088700011100308A31D322080020007A
:10126200A501A6012008210403196029A701A70AE4
:10127200A11B45290130A035A10D890B3C29013064
:10128200A4002408A70739290130A535A60D890B2A
:10129200462921082302031D502920082202031C8B
:1012A20057292008A2022108A33B25140130A136A8
:1012B200A00C890B58290130A702031D45292608D5
:1012C200A1002508A00008002000A900A801AA0189
:1012D200AA012908A0000130A10097317E27893197
:1012E20020002A08A600A70121082702031D7B2946
:1012F2002008260203188D292A082907A600260895
:101302008600013087000108A7002708A8070130DE
:10131200A6002608AA076A290630A0000030A1000C
:101322002808A600A7012608A2002708A3008831E2
:10133200A620200020080800F10107309631F2268D
:101342008931FB007B08FC007C0A031DAC290230BA
:1013520096312B268931FC1A7D107C1FD029FD186D
:10136200CF29FD148B31A4238931F1010930963143
:10137200F2268931FB00230020087B06FE397B061A
:10138200A0007C0C0739FB00FB0E20087B068F397E
:101392007B06A000893101218931D0297C137C0888
:1013A200FB007B08F10027309631F226080020006E
:1013B200A21FEF292009A6002109A7002209A800DF
:1013C200A60A0319A70A0319A80A00302607A000D3
:1013D2000030273DA1008030283DA200A51F052A2C
:1013E2002309A6002409A7002509A800A60A0319B3
:1013F200A70A0319A80A00302607A3000030273DD8
:10140200A4008030283DA5008030A2068030A506C9
:1014120025082202031D080024082102031D0800DA
:10142200230820020800200032083304031D1D2A6D
:1014320000309631AA26080008302000A0000130B2
:10144200A1003308A3003208A200893130218A3179
:1014520020002108B3002008B2000130B20700309A
:10146200B33D01302000B2020030B33B32083304F6
:101472000319080001308B315B238A310330963126
:10148200AA268A3100308B315B238A31FD1C4C2A1B
:10149200963184268A3108309631AA268A31322A38
:1014A2002000A001063097319D278A312000A50037
:1014B2002508A6002408803AA50080302502031DD5
:1014C200642A01302302031C762A2000260C0339E9
:1014D200033A0319762A260C0339A500A50AA50D9D
:1014E20026082506F9392506A6002000A41F882A09
:1014F200260C0339003A0319882A260C0339A50061
:10150200A503A50D26082506F9392506A6002608F5
:10151200A5002508A000263097319D27080020004D
:10152200310830042F042E040319CA2AB701B70A5E
:10153200B11BA72A0130AE35AF0DB00DB10D890B2D
:101542009C2A0130B6003608B707992A31083502BD
:10155200031DB52A30083402031DB52A2F083302B1
:10156200031DB52A2E083202031CBF2A2E08B2021E
:101572002F08B33B3008B43B3108B53B0130B136DC
:10158200B00CAF0CAE0C890BC02A0130B702031DA0
:10159200A72A3508B1003408B0003308AF0032087A
:1015A200AE000800F60076080319D92A7D18080053
:1015B200F10100309631F2268A31F4007408F50008
:1015C2007508013976060319112B963130268A31B6
:1015D200E43000320032890BEA2A00320032760807
:1015E20001397510031D75147508F4007408F100B3
:1015F20020309631F2268A31E43000320032890BF3
:10160200FE2A0032003276080319112B96312D265C
:101612008A31E43000320032890B0B2B0032003267
:10162200760801397D11031D7D1508002000A600F2
:1016320096314E268B313030963156268B311D3005
:1016420084009830850000082000A4000030840047
:10165200983085000008A5002508A00026089631CC
:1016620072268B3120002407963156268B311C308E
:101672008400983085000008963156268B311B3045
:101682008400983085000008963156268B311A3036
:101692008400983085000008963156268B31193027
:1016A2008400983085000008963156268B31963199
:1016B2003F2608002000A50025080319622B7D188B
:1016C2000800A001003097319D278B312000A30034
:1016D2002308A40024080139250603199D2B9631FD
:1016E20030268B31E43000320032890B742B003209
:1016F20000322000250801392410031D2414240877
:10170200A3002308A000203097319D278B31E430BD
:1017120000320032890B892B00320032200025086A
:1017220003199D2B96312D268B31E4300032003285
:10173200890B972B003200322000250801397D11D8
:10174200031D7D150800A130F0000130F1000030CA
:10175200F200F3002030F4000030F5009631C1268B
:101762008B312300A001F10160309631F2268B31DA
:10177200F8007808F900FA01963130268B3196315B
:101782004E268B316130963156268B3100309631A0
:1017920056268B31F80078082300A0000130F902A8
:1017A200FA01E32B0030963156268B31F8007A0885
:1017B200A13E860001308700780881000130F800E0
:1017C2007808FA0779087A020318EB2B20307A029C
:1017D200031CD32B96313F268B3196312D260800E0
:1017E20000302000AC000030AB000030AA00003016
:1017F200A900230822042104200403193B2CAD0173
:10180200AD0AA31B102C0130A035A10DA20DA30D12
:10181200890B052C0130A8002808AD07022C0130E5
:10182200A935AA0DAB0DAC0D890B112C230827028B
:10183200031D252C22082602031D252C2108250222
:10184200031D252C20082402031C302C2008A4028E
:101852002108A53B2208A63B2308A73B29140130F7
:10186200A336A20CA10CA00C890B312C0130AD02C5
:10187200031D102C2C08A3002B08A2002A08A1008B
:101882002908A00008002000230803194D2C220873
:1018920021042004031D5E2C0030A0000030A100B2
:1018A2000030A20008000130A5002508A30701307E
:1018B200A236A10CA00C890B592CFE30220503196B
:1018C200772C542C0130A5002508A3070130A0076E
:1018D200003003180130A107003003180130A207BD
:1018E2000130A236A10CA00C890B722CFF3022050C
:1018F2000319842C632C0130A3020130A035A10D01
:10190200A20D890B7F2CA11B8A2C02302302031803
:101912007C2C2318922CFF30A0057F30A105FF30CC
:10192200A2050310A30C2308A500A601A7011030ED
:10193200A535A60DA70D890B992C2508A00426080C
:10194200A1042708A204240803190800A21708000A
:1019520020006708EB006808EC006908ED0003103E
:101962006C0D6D0DEE006E082100A5002508031D0B
:10197200C42C00302000EA000030E9000030E8000A
:101982000030E700080020006708EB006808EC0060
:101992006908ED001730ED36EC0CEB0C890BCC2C02
:1019A2006B08EE006E082100A0002000E817FF304F
:1019B200E705FF30E8050030E90567082100A100CE
:1019C200200068082100A200200069082100A3006D
:1019D200A4018E30A502A51F0E2D2508803A8F3E48
:1019E2000318FD2C00302000EA000030E90000302E
:1019F200E8000030E700080001302100A436A30C03
:101A0200A20CA10C890BFE2C01302000EB006B080C
:101A12002100A50703192A2DFD2C18302502031CCD
:101A2200262D00302000EA000030E9000030E800F6
:101A32000030E700080001302100A135A20DA30DFE
:101A4200A40D890B1D2D0130A50221002508031DBF
:101A52001C2D20080319382DA109A209A309A409E4
:101A6200A10A0319A20A0319A30A0319A40A240842
:101A72002000EA00210023082000E90021002208BA
:101A82002000E800210021082000E70008002000D3
:101A9200D3000030D4000030D5000030D600E8304A
:101AA200D1000330D2005308CE00CE0DCE0D21005E
:101AB2001D0820004E0603394E0621009D0022001B
:101AC200971721001D1400309631AA268D3101305E
:101AD2002000D1020030D23B510A0319520A0319E5
:101AE200A52D21009D1421009D1C7C2D00309631D6
:101AF200AA268D31742D1C082000CE00CF014E087D
:101B0200CF00CE014E0821001B042000A8004F0880
:101B1200A9009731DE278D3120002808AE00290860
:101B2200AF002A08B0005408B1005508B2005608A8
:101B3200B3008431B2248D3120002E08D4002F0846
:101B4200D5003008D600682D2200971321001D1001
:101B520000302000BB007A30BC004430BD00540885
:101B6200BE005508BF005608C0008D31EE258D31EC
:101B720020003B08D4003C08D5003D08D6002100D7
:101B82001E080339033A0319DF2DE62D0030200029
:101B9200BB00FA30BC004330BD005408BE005508FB
:101BA200BF005608C0008D31EE258D3120003B0864
:101BB200D4003C08D5003D08D600E62D22001708C7
:101BC2000339023A0319C72DE62D20005408CB0031
:101BD2005508CC005608CD00080020003E08C10080
:101BE2003F08C2004008C3000310420D430DC40069
:101BF2004408C9004908031D052E0030BB0000300F
:101C0200BC000030BD0008003B08C1003C08C20017
:101C12003D08C3000310420D430DC4004408CA002E
:101C22004A08031D1B2E0030BB000030BC000030F0
:101C3200BD0008000030C6000030C7000030C800F8
:101C420089304A07C1004108C9023E08C1003F0865
:101C5200C2004008C3001030C336C20CC10C890B4D
:101C62002D2E4108C4004408CA003B08C1003C08AC
:101C7200C2003D08C3001030C336C20CC10C890B30
:101C82003D2E4108C4004408CA068030C100410804
:101C9200CA05BF17FF30BE05FF30BF050030C005C3
:101CA200BC17FF30BB05FF30BC050030BD05183046
:101CB200C1004108C5000130C635C70DC80D890BEA
:101CC2005D2E3D084002031D6C2E3C083F02031DA1
:101CD2006C2E3B083E02031C752E3B08BE023C08DC
:101CE200BF3B3D08C03B46140130BE35BF0DC00DA1
:101CF200890B762E0130C502031D5C2E4608A0001A
:101D02004708A1004808A2004908C1004108A300F1
:101D12004A08C2004208A4008C3144242000200852
:101D2200BB002108BC002208BD00080020005708A3
:101D3200DD005808DE005908DF0003105E0D5F0D5C
:101D4200E0006008E1006108031DAE2E0030D700FC
:101D52000030D8000030D90008005A08DD005B08C6
:101D6200DE005C08DF0003105E0D5F0DE00060081E
:101D7200E6006608031DC42E0030D7000030D800EC
:101D82000030D900080066087B3EDD005D08E107EF
:101D92005708DD005808DE005908DF001030DF3632
:101DA200DE0CDD0C890BD02E5D08E0006008E60039
:101DB2005A08DD005B08DE005C08DF001030DF3609
:101DC200DE0CDD0C890BE02E5D08E0006008E60603
:101DD2008030DD005D08E605D817DB17FF30DA0535
:101DE200FF30DB050030DC050030E2000030E300AC
:101DF2000030E4000730DD005D08E500571C072FC6
:101E02005A08E2075B08E33D5C08E43D0130D9363D
:101E1200D80CD70C890B082F0130DA35DB0DDC0D1D
:101E2200890B0E2F0130E502031DFF2E0930DD0064
:101E32005D08E500571C232F5A08E2075B08E33DC3
:101E42005C08E43D0130D936D80CD70C890B242F1D
:101E52000130E436E30CE20C890B2A2F0130E50253
:101E6200031D1B2F6208A0006308A1006408A200E2
:101E72006108DD005D08A3006608DE005E08A400BC
:101E82008C31442420002008D7002108D8002208E1
:101E9200D9000800200003082100C4004408C5003E
:101EA20023008C018E0125008C018E0127008C01FC
:101EB2008E0124008C018E0121008E120E12200050
:101EC2000E120B138B138F3032009905F0309905E7
:101ED20068302100C400E430890B6D2FC40B6D2FD4
:101EE20000002D302000A0009830A10021006B08D6
:101EF200013E8731E3278F3188310A208F3121005B
:101F02006B08013E893165218F312100C4004408EC
:101F1200C60046088B3117238F31210046089731BE
:101F2200BD278F312100460897310D278F312000C0
:101F320028082200D000200029082200D100200019
:101F42002A082200D20021001D1020000C122100BC
:101F52000C1624000C1225000C1623000C168E15EC
:101F620021008E1522009712171697131708FC39B5
:101F720002389700703021009E049E1703309E04A1
:101F82001E111D0803390C389D000C1510140B107E
:101F92008C1220008C120B178B17C7302100B9004E
:101FA2000030BA002830BB009830BC004508973199
:101FB2000D278F31200028082100BD0020002908AC
:101FC2002100BE0020002A082100BF0087317527AA
:101FD2008F3121004711C7302000A7000030A80030
:101FE20086319A268F31B8302000B2000B30B30010
:101FF2008A3114228F318131FA218F31FC2F013441
:102002000034003400340A340034003400346434C0
:10201200003400340034E834033400340034103423
:10202200273400340034A034863401340034403480
:1020320042340F34003480349634983400340034FF
:0E204200E134F53405340034CA349A343B34AA
:102C56000100080020000C14080020000C100800D9
:102C660020008C14080020008C10080064008001ED
:102C76000131890B3A2E00341A30890B402E00326E
:102C8600963133260800F000700C2100031C10104A
:102C96000318101408009631362696311A30890B1F
:102CA600522E00320800F000700824009100200027
:102CB6000E1624001418612E00005C2E1108080060
:102CC6002000A100A0013A3021020318702E3030F6
:102CD6002102031C702EA001A00A200C080020006F
:102CE600A300A201231C7B2E2008A1002108A20715
:102CF6000310A00D0310A30C2308031D752E220834
:102D060008008031022096312000B0003008B10062
:102D16003108860001308700011D942E3108883164
:102D2600D320FD1008008031022096312000A70034
:102D36002708A8002808860001308700811C0800A3
:102D4600FF30A300FF30A4008A3151220800200082
:102D5600A1002108A000A00D2100170820002006D0
:102D6600C139200621009700630000000000210001
:102D76001708C1391A389700640008007108F7006F
:102D86007008F6000130F4020030F53B740A0319AE
:102D9600750A031908007608860077088700720806
:102DA60081000130F6070030F73DC52E20002108CE
:102DB600A7002008A6000130A4020030A53B240A83
:102DC6000319250A03190800260886002708870024
:102DD600220881000130A6070030A73DDE2EF30051
:102DE600003096314626963196314E269631730836
:102DF6009631562696317108963156269631F2004E
:102E06007208F10096313F269631013096314626FA
:102E1600710808002000AF002F08AB00AC01AD011F
:102E26002B08A0002C08A1002D08A2008E30AE00B1
:102E36002E08A300A4018C31442420002008A800F9
:102E46002108A9002208AA0008002000A401A50163
:102E5600201C312F2208A4072308A53D0130A235E6
:102E6600A30D890B322F0130A136A00C890B372F09
:102E760020082104031D2B2F2508A1002408A000EB
:102E8600080021000C108C108E140E110E10240058
:102E960095123D002108E0391138A1002208E039D9
:102EA6001938A2002008E0391838A00024001512AD
:102EB6001417F03095059516080020003D083C04CF
:102EC6003B040319682F8030BD063E08AE003F085C
:102ED600AF004008B0003B08B1003C08B2003D0816
:102EE600B3008431B22420002E08BB002F08BC009A
:102EF6003008BD00080020002108A5002008A40015
:102F06002408860025088700010803198F2F013041
:102F1600A4070030A53D832F2009A2002109A300A4
:102F2600A20A0319A30A24082207A0002508233DA4
:102F3600A10008002000A2000030963146269731F5
:102F460096314E2697312000220896315626973123
:102F5600200020089631562697312000A10021082E
:102F6600A00096313F269731013096314626200043
:102F7600200808002000A50006302502031CCA2FE1
:102F86002614A6142615A6152616A616D62F26141A
:102F96002608A300250AD02FA335890BCF2F230897
:102FA600A4002408A6002608A3002308A0002230B7
:102FB60097319D2708002000AD01A91FE92FA80918
:102FC600A909A80A0319A90AAD01AD0A2808A00093
:102FD6002908A100A2018E30AB002B08A3002D0802
:102FE600AC002C08A4008C31442420002008A80042
:102FF6002108A9002208AA000800213425346C34CF
:1030060075342E34253436342E3436346C347534D7
:10301600003441344E34433433346D345634003442
:10302600523446345034573452340034AD34873435
:103036006634BC34BB34543445344D3450340034D7
:103046005634423441345434003442344F344F34CD
:103056005434003455344834313400344434423422
:08306600473400342F3400341C
:020000040001F9
:08000E008CFF3DFFFFFFFFFF27
:00000001FF
