:020000040000FA
:0400000080310F2814
:100008007E1480312000101C0D288A3145222000E2
:1000180010107E1009008031112821008731FF2738
:100028008031EB00FD01E701E801E901EA01513007
:100038008400013085001530953149258031A03084
:1000480084000130850042309531492580312030C7
:100058008400023085001C30953149257E1020002F
:100068008B31972B2000CE003A30C2004208C900DD
:100078003908C3003808C200B80A0319B90A420887
:100088008400430885000008C4004408D3005308CE
:100098000319FD292530530603195F285308C200A8
:1000A8004E08860001308700420881000130C200F6
:1000B8004208CE073C28CF01D001C8013808840087
:1000C80039088500000895317C258031031C9D285E
:1000D8002000CF01D0010A302000A0000030A1008C
:1000E8005008A3004F08A2008731E3278031200081
:1000F8002108D0002008CF0038088400390885007E
:100108000008D03EC200FF3003180030C300420888
:10011800CF074308D03D0130B8070030B93D380853
:10012800840039088500000895317C258031031842
:100138006F282000380884003908850012002E3AFC
:10014800031DDB280130B8070030B93DD101D201C9
:100158003808840039088500000895317C258031ED
:10016800031CE628200038088400390885000008A8
:10017800C200C3015208A1005108A0000A30A20021
:100188000030A3008731E327803120004208200790
:10019800C4004308213DC5004408D03ED100FF30CB
:1001A800453DD2000130B8070030B93DAC282000E9
:1001B800D101D201E6284816E628C030C20042081C
:1001C800C804FE2820003908C3003808C200B80A4D
:1001D8000319B90A42088400430885000008D300BF
:1001E800003A0319FD296C3A0319DF28193A031953
:1001F800E1283C28481E0D29490886008701403F10
:10020800CA00413FCB00423FCC00433FCD00043001
:100218001B29490886008701403FC200413FC300AF
:100228004208CA004308CB00CC01CD010230C2000D
:100238004208C90751085204031D2C294D084C04D3
:100248004B044A04031D2C290130D1070030D23D4C
:10025800D301D30A0A30530603195F295308C20091
:10026800C301C235C30DC235C30D00304207840037
:100278009830433D8500003FC400013FC500023F60
:10028800C600033FC70047084D02031D552946080D
:100298004C02031D552945084B02031D55294408E6
:1002A8004A02031C5F290130C2004208D3070A3002
:1002B8005306031D32295208803A803C031D6629E3
:1002C8005108530203186E2920005108C200420841
:1002D800D300822920005208803AC20080304202AE
:1002E800031D782953085102031882292000530856
:1002F800C200C3014208D1004308D20020005008C0
:10030800803A803C031D8A294F0853020318952917
:1003180020005308C200C3014208CF024308D03B63
:1003280098292000CF01D0014F0850040319F22961
:100338002030C2004E088600013087004208810044
:100348000130C2004208CE07FF30CF07FF30D03D52
:1003580098290030B1000030B0000030AF000A30FA
:10036800AE0052088500510884008435850D843517
:10037800850D003084079830853D003FA000013F7F
:10038800A100023FA200033FA3004D08A7004C08AC
:10039800A6004B08A5004A08A4008931F221803143
:1003A80020002308B5002208B4002108B300200863
:1003B800B2008831E020803120002E08303EC20093
:1003C8004208D3005308C2004E0886000130870057
:1003D800420881000130C2004208CE07FF30D10731
:1003E800FF30D23D510A031DAD29520A03193C289A
:1003F800AD294E088600013087008101080035309C
:1004080084009830850000082000A80021006708B3
:100418000F3920002806031D642A00308831132074
:10042800823195315E258231B03095316F25823128
:100438002300410895316F2582312000AB01322A13
:100448002B08C23E860001308700010895316F25D0
:10045800823101302000A8002808AB07C230A00074
:100468000130A10096319326823120002B08A80084
:10047800A90121082902031D432A2008280203187C
:10048800492A20302B02031C242A95314F2582311A
:10049800363084009830850000082000A80021002C
:1004A800670820002806F03928062100E700953162
:1004B8003D2582312030890B5F2A953140258231D4
:1004C800393084009830850000082000A8002100F9
:1004D800670E0F3920002806031DF12AA130A0005D
:1004E8000130A1000030A200A3002030A400003099
:1004F800A5009531CF2582312300A0012000A0015D
:1005080060309631B22682312000A8002808AA005F
:1005180095314025823195315E25823161309531A2
:100528006F258231003095316F2582312000A80077
:1005380028082300A00001302000AA02AB01B52A38
:10054800003095316F2582312000A8002B08A13E8C
:10055800860001308700280881000130A80028089B
:10056800AB072A082B020318BD2A20302B02031CD4
:10057800A42A95314F25823195313D2582312100BC
:10058800680C07392000A800A80E230020082000C6
:1005980028068F3928062300A0002000A001093072
:1005A8009631B22682312000A800230020082000BE
:1005B8002806FE3928062300A0003A308400983027
:1005C800850000082000A800A80E21006708200068
:1005D80028060F3928062100E7003A3084009830B1
:1005E800850000082000A8002100670E0F392000B0
:1005F8002806031D3F2B2300A01D3F2B3730840006
:100608009830850000082000A800210067080F39ED
:1006180020002806031D3F2BC230A8002808A00090
:10062800A1309731AD278231200020082104031D15
:100638003F2B34308400983085000008A800210042
:10064800670820002806F03928062100E70038301E
:1006580084009830850000082000A800A80E21001A
:100668006708200028060F3928062100E700003017
:100678008831132082313A30840098308500000890
:100688002000A8002100670E0F3920002806031D4E
:10069800562B01302200D1070030D23D0030D33D27
:1006A8000030D43D373084009830850000082000A1
:1006B800A800210067080F3920002806031D08003C
:1006C80001302100EA026A0A031D0800353084005F
:1006D8009830850000082000A80021006708200045
:1006E8002806F03928062100E700080022005408EF
:1006F8002000AB00220053082000AA002200520864
:100708002000A900220051082000A8009731D62710
:100718008331200028082200A60020002908220092
:10072800A70020002A082200A80030302100B900C4
:100738000130BA005030BB009830BC0022002608B7
:100748002100BD00220027082100BE002200280841
:100758002100BF008B310D238331CF302000D7001B
:100768004630D8004030D90004308C31C924833158
:1007780020004B08DA004C08DB004D08DC0087310C
:100788002F278331200057082200A900200058088D
:100798002200AA00200059082200AB0030302100B6
:1007A800B9000130BA005A30BB009830BC002200B2
:1007B80029082100BD0022002A082100BE002200CD
:1007C8002B082100BF008B310D23833130302100ED
:1007D800B9000130BA003E30BB009830BC0013307D
:1007E8008C31C924833120004B082100BD00200032
:1007F8004C082100BE0020004D082100BF008B31AD
:100808000D238331220097163D308C31C924833162
:1008180020004B08D7004C08D8004D08D900953166
:1008280066258331200057082200AC0020005808B4
:100838002200AD00200059082200AE000030200040
:10084800BB000030BC004030BD001230AE000330A9
:10085800AF004030B00022002C082000B100220078
:100868002D082000B20022002E082000B3008F318E
:100878000A27833120002E08BE002F08BF00300849
:10088800C0008D316F25833120003B082200A00075
:1008980020003C082200A10020003D082200A20000
:1008A8009712A9302000AE00D130AF004330B0001D
:1008B8000430BB00AD30BC00BA30BD0022002008B7
:1008C8002000BE00220021082000BF0022002208CC
:1008D8002000C0008D316F25833120003B08B10016
:1008E8003C08B2003D08B3008F310A27833120004D
:1008F8002E082200A30020002F082200A4002000B8
:1009080030082200A50030302100B9000130BA00BB
:100918005530BB009830BC00220023082100BD00E0
:10092800220024082100BE00220025082100BF0063
:100938008B310D2383312000A00106309631B22679
:1009480083312100C30043082200AF00303021006A
:10095800B9000130BA004530BB009830BC00220015
:100968002F0C0339963103268331200028082100F3
:10097800BD00200029082100BE0020002A0821000F
:10098800BF008B310D230800353084009830850076
:100998000008F800210067080F397806031D212D8B
:1009A800003097313727843195315E258431B03056
:1009B80095316F2584312300410895316F258431A5
:1009C800FB01F32C7B08C23E86000130870001083A
:1009D80095316F2584310130F8007808FB07C23063
:1009E800F0000130F1009631392684317B08F80097
:1009F800F90171087902031D032D700878020318A4
:100A0800092D20307B02031CE62C95314F258431BB
:100A180036308400983085000008F8002100670807
:100A28007806F0397806E70095313D258431203085
:100A3800890B1C2D9531402584313930840098303C
:100A480085000008F8002100670E0F397806031D9D
:100A58009D2DA130F0000130F1000030F200F300CC
:100A68002030F4000030F5009531B725843123009B
:100A7800A001F10160309531E8258431F80078084B
:100A8800FA0095314025843195315E2584316130F5
:100A980095316F258431003095316F258431F80008
:100AA80078082300A0000130FA02FB016B2D00300A
:100AB80095316F258431F8007B08A13E860001300E
:100AC8008700780881000130F8007808FB077A0869
:100AD8007B020318732D20307B02031C5B2D95319C
:100AE8004F25843195313D2584312100680C073923
:100AF800F800F80E2300200878068F397806A00041
:100B0800F10109309531E8258431F80023002008E7
:100B18007806FE397806A0003A30840098308500BF
:100B28000008F800F80E2100670878060F397806E3
:100B3800E7003A308400983085000008F800670E16
:100B48000F397806031DDF2D2300A01DDF2D373058
:100B58008400983085000008F800210067080F39E4
:100B68007806031DDF2DC230F8007808F000A130A8
:100B780097318527843170087104031DDF2D3430C7
:100B88008400983085000008F8002100670878067E
:100B9800F0397806E700383084009830850000087E
:100BA800F800F80E670878060F397806E700003075
:100BB8009731372784313A3084009830850000080F
:100BC800F8002100670E0F397806031DF42D013057
:100BD8002200D1070030D23D0030D33D0030D43D53
:100BE80037308400983085000008F8002100670835
:100BF8000F397806031D08000130EA026A0A031D4E
:100C0800080035308400983085000008F80067082F
:100C18007806F0397806E70008002000A0010030C7
:100C28009631B22686312000A70027082100E90066
:100C3800E91069082000A7002708A0002030963195
:100C4800B22686312000AA010330AA042A08A70088
:100C58002708A00023309631B226863120002908C3
:100C680080390238A9002908A7002708A0002530E4
:100C78009631B22686312000AC01AC12AC15063094
:100C8800AC042C08A7002708A00026309631B2260D
:100C98008631FF309631D22686312000A0010130FE
:100CA8009631B22686312000A7002708AD002D1006
:100CB800AD102D11AD112D12AD122D08A70027086A
:100CC800A00021309631B22686312000A0011D30C7
:100CD8009631B22686312000A7002708AB002B15D5
:100CE8002B142B08A7002708A0003D309631B22608
:100CF80086312000A0011C309631B22686312000B2
:100D0800A7002708AE002E14AE142E15AE152E1609
:100D1800AE162E08A7002708A0003C309631B22650
:100D280086312000AF01B0010030300206300319CF
:100D38002F020318F82E95315E25863120002F08E2
:100D48000A3E203895316F2586314F30840098301F
:100D5800850000082000A7002F08A8002808A00088
:100D680028308400983085000008883101208631B9
:100D78002000270795316F2586310030200030028A
:100D8800023003192F020318E92E4E3084009830E0
:100D98008500000895316F2586314D3084009830E4
:100DA8008500000895316F2586314C3084009830D5
:100DB8008500000895316F2586314B3084009830C6
:100DC8008500000895316F25863195314F2586318C
:100DD80001302000AF070030B03D0030300206304F
:100DE80003192F02031C9F2E00308931662186319A
:100DF8002100E8016817E816681668082000A700AF
:100E08002708A00027309631B22686312000A0019D
:100E180007309631B22686312000A7002708210026
:100E2800E8002000A001E1309631B226863120008A
:100E3800A001E2309631B226863121006910E91509
:100E48006915E91469082000A7002708A0002030C8
:100E58009631B226080020005708DD005808DE0049
:100E68005908DF0003105E0D5F0DE0006008E10027
:100E78006108031D462F0030D7000030D80000302D
:100E8800D90008005A08DD005B08DE005C08DF00B6
:100E980003105E0D5F0DE0006008E6006608031DA4
:100EA8005C2F0030D7000030D8000030D90008008F
:100EB80066087B3EDD005D08E1075708DD0058083D
:100EC800DE005908DF001030DF36DE0CDD0C890B40
:100ED800682F5D08E0006008E6005A08DD005B083E
:100EE800DE005C08DF001030DF36DE0CDD0C890B1D
:100EF800782F5D08E0006008E6068030DD005D08B8
:100F0800E605D817DB17FF30DA05FF30DB050030C0
:100F1800DC050030E2000030E3000030E400073078
:100F2800DD005D08E500571C9F2F5A08E2075B08A3
:100F3800E33D5C08E43D0130D936D80CD70C890B69
:100F4800A02F0130DA35DB0DDC0D890BA62F01301F
:100F5800E502031D972F0930DD005D08E500571CE9
:100F6800BB2F5A08E2075B08E33D5C08E43D01300B
:100F7800D936D80CD70C890BBC2F0130E436E30CDA
:100F8800E20C890BC22F0130E502031DB32F620862
:100F9800A0006308A1006408A2006108DD005D08E4
:100FA800A3006608DE005E08A4008A31A82220009B
:100FB8002008D7002108D8002208D90008002000FE
:100FC800A401A501201CEC2F2208A4072308A53D95
:100FD8000130A235A30D890BED2F0130A136A00CED
:100FE800890BF22F20082104031DE62F2508A100F4
:080FF8002408A00008002034C9
:101002002000A300A201231C0A282008A100210815
:10101200A2070310A00D0310A30C2308031D04282C
:10102200220808002000A4002100690801392000DC
:101032002406031908009531402588312000240C2C
:101042002100031C69100318691469082000A30019
:101052002308A00020309631B2268831C0300032F9
:10106200890B3028200024080319080095313D25FA
:101072008831C0300032890B3B280800200020084C
:10108200210403196728A501A50AA11B52280130D2
:10109200A035A10D890B49280130A4002408A50719
:1010A200462821082302031D582820082202031C77
:1010B2005E282008A2022108A33B0130A136A00C21
:1010C200890B5F280130A502031D52282308A100C5
:1010D2002208A00008002000A900A801AA01AA0174
:1010E2002908A0000230A100963193268831200001
:1010F2002A08A600A70121082702031D822820082A
:101102002602031894282A082907A6002608860022
:10111200023087000108A7002708A8070130A600AF
:101122002608AA0771280630A0000030A10028086E
:10113200A600A7012608A2002708A30088313F20A5
:101142002000200808002000A21FBB282009A600BA
:101152002109A7002209A800A60A0319A70A031950
:10116200A80A00302607A0000030273DA1008030E9
:10117200283DA200A51FD1282309A6002409A70003
:101182002509A800A60A0319A70A0319A80A00300C
:101192002607A3000030273DA4008030283DA5008B
:1011A2008030A2068030A50625082202031D080011
:1011B20024082102031D0800230820020800200041
:1011C200310830042F042E0403191A29B701B70A73
:1011D200B11BF7280130AE35AF0DB00DB10D890B43
:1011E200EC280130B6003608B707E9283108350285
:1011F200031D052930083402031D05292F08330277
:10120200031D05292E083202031C0F292E08B202E3
:101212002F08B33B3008B43B3108B53B0130B1363F
:10122200B00CAF0CAE0C890B10290130B702031DB4
:10123200F7283508B1003408B0003308AF0032088F
:10124200AE000800963175268931953140258931E5
:1012520003302000B2000830B1007730890B2F290B
:10126200B10B2F29B20B2F29863111268931033078
:101272002000B2000830B1007730890B3E29B10B53
:101282003E29B20B3E2995313D25343084009830F9
:10129200850000082000B100210067082000310607
:1012A200F03931062100E70038308400983085009B
:1012B20000082000B100B10E2100670820003106AD
:1012C2000F3931062100E70008002000A600953101
:1012D2005E258931303095316F2589314F30840058
:1012E2009830850000082000A4002830840098303F
:1012F20085000008A5002508A000260888310120E5
:1013020089312000240795316F2589314E308400C0
:1013120098308500000895316F2589314D30840061
:1013220098308500000895316F2589314C30840052
:1013320098308500000895316F2589314B30840043
:1013420098308500000895316F25893195314F25F8
:101352000800343084009830850000082000AE0078
:10136200210067080F3920002E060319C52906300F
:101372002000AE003030890BBC29AE0BBC29000026
:10138200823103228931AA29C230A0000130A10092
:101392002C08013EAE0000302D3DAF002E08A20009
:1013A2002F08A30096311E26893120002C088600C2
:1013B2002D0887000108AE002E082300C100353039
:1013C20084009830850000082000AE0021006708E4
:1013D20020002E06F0392E062100E700823103227A
:1013E200080000302000AC000030AB000030AA0042
:1013F2000030A900230822042104200403193C2AF6
:10140200AD01AD0AA31B112A0130A035A10DA20D19
:10141200A30D890B062A0130A8002808AD07032A6C
:101422000130A935AA0DAB0DAC0D890B122A230888
:101432002702031D262A22082602031D262A210826
:101442002502031D262A20082402031C312A200813
:10145200A4022108A53B2208A63B2308A73B291486
:101462000130A336A20CA10CA00C890B322A013048
:10147200AD02031D112A2C08A3002B08A2002A0882
:10148200A1002908A0000800F10107309531E825E4
:101492008A31FC007C082100E800E81E812A3630EF
:1014A2008400983085000008FC0067080F397C062C
:1014B200031D802A2300411D732A3730840098308F
:1014C20085000008FC00210067087C06F0397C06D4
:1014D200E700FF30FC007C08EA0001309731372733
:1014E2008A31812A34308400983085000008FC005B
:1014F200210067087C06F0397C06E700812AE812A1
:101502002100681F9D2A3830840098308500000829
:10151200FC00670E0F397C06031D9C2A39308400BB
:10152200983085000008FC00FC0E67087C060F3925
:101532007C06E7009D2A68136808FC007C08F1001D
:1015420027309531E8258A318431C82408002000EB
:1015520023080319B12A220821042004031DC22AE8
:101562000030A0000030A1000030A20008000130CD
:10157200A5002508A3070130A236A10CA00C890BF7
:10158200BD2AFE3022050319DB2AB82A0130A50044
:101592002508A3070130A007003003180130A10776
:1015A200003003180130A2070130A236A10CA00CB2
:1015B200890BD62AFF3022050319E82AC72A0130EF
:1015C200A3020130A035A10DA20D890BE32AA11BB4
:1015D200EE2A023023020318E02A2318F62AFF30EB
:1015E200A0057F30A105FF30A2050310A30C23083C
:1015F200A500A601A7011030A535A60DA70D890BE0
:10160200FD2A2508A0042608A1042708A20424080C
:1016120003190800A217080021003908013E200022
:10162200A000003021003A3D2000A1000030A200BD
:10163200A3002030A4000030A5009531CF258B31C6
:1016420021003908013E2000A000003021003A3D6F
:101652002000A10021006B08013E2000A200023000
:10166200A30096311E268B3121003908013EB300BA
:1016720000303A3DB4006830B5009830B60097317A
:101682005E278B3121003908013EB30000303A3D1C
:10169200B4003C08B6003B08B50097315E278B3199
:1016A20021003908013EB30000303A3DB4006830F1
:1016B200B5009830B60097315E278B31210039088A
:1016C200013EB30000303A3DB4003D08A6003E089A
:1016D200A7003F08A800C130C0004008A9008E3111
:1016E20018268B312100B5000130B60097315E27F4
:1016F2008B312100390886003A08870081013908B8
:1017020086003A08870001153A082000AD00210042
:1017120039082000AC008931AA218B311030200019
:10172200A2002730A30097311527080023008C015F
:101732008E0125008C018E0127008C018E01240070
:101742008C018E0121008E120E1220000E120B133C
:101752008B138F3032009905F030990568302100E3
:10176200C400E430890BB32BC40BB32B000021005F
:101772006B08013E2000A0000230A1006430A200EC
:101782009830A30096311E268B31893123218B316B
:1017920021006B08013E88316C208B312100C4008E
:1017A2004408C5004508893166218B3121001D108E
:1017B20020000C1221000C1624000C1225000C161D
:1017C20023000C168E1521008E152200971617166F
:1017D20097131708FC3902389700703021009E04D5
:1017E2009E1703309E041E111D0803390C389D00FC
:1017F2000C1510140B108C1220008C120B178B1767
:10180200C6302100B9000030BA005F30BB0098300A
:10181200BC006B08113E860002308700403F20006A
:10182200A800413FA90095318B258B312000280863
:101832002100BD00200029082100BE0020002A0846
:101842002100BF008B310D238B3183317A238B3101
:10185200262C20006708EB006808EC006908ED0000
:1018620003106C0D6D0DEE006E082100A500250819
:10187200031D452C00302000EA000030E900003052
:10188200E8000030E700080020006708EB00680865
:10189200EC006908ED001730ED36EC0CEB0C890B0F
:1018A2004D2C6B08EE006E082100A0002000E81706
:1018B200FF30E705FF30E8050030E9056708210041
:1018C200A100200068082100A20020006908210070
:1018D200A300A4018E30A502A51F8F2C2508803AF3
:1018E2008F3E03187E2C00302000EA000030E90011
:1018F2000030E8000030E700080001302100A43683
:10190200A30CA20CA10C890B7F2C01302000EB0050
:101912006B082100A5070319AB2C7E2C1830250279
:10192200031CA72C00302000EA000030E900003040
:10193200E8000030E700080001302100A135A20DC7
:10194200A30DA40D890B9E2C0130A50221002508B0
:10195200031D9D2C20080319B92CA109A209A30972
:10196200A409A10A0319A20A0319A30A0319A40AC2
:1019720024082000EA00210023082000E9002100B9
:1019820022082000E800210021082000E7000800CA
:101992002000D3000030D4000030D5000030D60043
:1019A200E830D1000330D2005308CE00CE0DCE0D68
:1019B20021001D0820004E0603394E0621009D001D
:1019C2002200971721001D1400309531A0258C317B
:1019D20001302000D1020030D23B510A0319520AD1
:1019E2000319262D21009D1421009D1CFD2C003081
:1019F2009531A0258C31F52C1C082000CE00CF019A
:101A02004E08CF00CE014E0821001B042000A80082
:101A12004F08A9009631F3268C3120002808AE0029
:101A22002908AF002A08B0005408B1005508B200D6
:101A32005608B3008F310A278C3120002E08D400BB
:101A42002F08D5003008D600E92C22009713210078
:101A52001D1000302000BB007A30BC004430BD00B5
:101A62005408BE005508BF005608C0008D316F25CE
:101A72008C3120003B08D4003C08D5003D08D6003C
:101A820021001E080339033A0319602D672D003027
:101A92002000BB00FA30BC004330BD005408BE0039
:101AA2005508BF005608C0008D316F258C312000CB
:101AB2003B08D4003C08D5003D08D600672D220023
:101AC20017080339023A0319482D672D20005408DC
:101AD200CB005508CC005608CD00080020003E0877
:101AE200C1003F08C2004008C3000310420D430D6D
:101AF200C4004408C9004908031D862D0030BB00FC
:101B02000030BC000030BD0008003B08C1003C08AA
:101B1200C2003D08C3000310420D430DC400440837
:101B2200CA004A08031D9C2D0030BB000030BC00D7
:101B32000030BD0008000030C6000030C700003091
:101B4200C80089304A07C1004108C9023E08C100E5
:101B52003F08C2004008C3001030C336C20CC10C9B
:101B6200890BAE2D4108C4004408CA003B08C100DD
:101B72003C08C2003D08C3001030C336C20CC10C81
:101B8200890BBE2D4108C4004408CA068030C1003A
:101B92004108CA05BF17FF30BE05FF30BF05003040
:101BA200C005BC17FF30BB05FF30BC050030BD05CA
:101BB2001830C1004108C5000130C635C70DC80D37
:101BC200890BDE2D3D084002031DED2D3C083F022E
:101BD200031DED2D3B083E02031CF62D3B08BE0201
:101BE2003C08BF3B3D08C03B46140130BE35BF0D2B
:101BF200C00D890BF72D0130C502031DDD2D4608EE
:101C0200A0004708A1004808A2004908C1004108F5
:101C1200A3004A08C2004208A4008A31A822200078
:101C22002008BB002108BC002208BD000800553076
:101C32002000EF006F082100B20026082000A0005B
:101C4200210027082000A100210028082000A2006E
:101C52000030A3000030A4000030A5008831A42089
:101C62008E3103185E2E2D302000EF002100320845
:101C720086000130870020006F0881000130EF00EC
:101C82006F082100B20726082000D700210027088C
:101C92002000D800210028082000D90095316625AF
:101CA2008E31200057082100A6002000580821008C
:101CB200A700200059082100A800210026082000C2
:101CC200E700210027082000E80021002808200062
:101CD200E9008C312A248E3120006A082100B100EB
:101CE200200069082100B000200068082100AF0030
:101CF200200067082100AE0031082000AB0021005F
:101D020030082000AA0021002F082000A90021008D
:101D12002E082000A8009731D6278E3120002808EF
:101D2200BB002908BC002A08BD00210026082000AB
:101D3200BE00210027082000BF0021002808200043
:101D4200C000963157268E3120003B082100A600A4
:101D520020003C082100A70020003D082100A80027
:101D620026082000DA00210027082000DB002100DD
:101D720028082000DC002430D7007430D800493015
:101D8200D90087312F278E3120005708E7005808E5
:101D9200E8005908E9008C312A248E3120006A08B3
:101DA2002100AD00200069082100AC002000680875
:101DB2002100AB00200067082100AA002930200082
:101DC200B8009830B900210031082000BD00210080
:101DD20030082000BC0021002F082000BB00210099
:101DE2002E082000BA0021002D082000C100210089
:101DF2002C082000C00021002B082000BF00210079
:101E02002A082000BE0021003208803136205530D9
:101E1200080020002E08B4002F08B5003008B600D4
:101E22000310350D360DB7003708BA003108B4007B
:101E32003208B5003308B6000310350D360DB70071
:101E42003708B9003A080319322F39083A02031841
:101E5200392F3A03FF3A3907B40019303402031C10
:101E6200392F3108AE003208AF003308B000080045
:101E72003908031908003A0839020318482F3903B0
:101E8200FF3A3A07B400193034020318080006304A
:101E9200B4003408B800B01BB817B31B3817AF171B
:101EA200FF30AE05FF30AF050030B005B217FF308E
:101EB200B105FF30B2050030B30539083A02031804
:101EC200842F0130B135B20DB30D890B632F013070
:101ED200B90239083A0603197F2F0130B8023808CF
:101EE200073903197F2F622F0130B036AF0CAE0CC9
:101EF200890B762F0130B4003408BA073A08390644
:101F02000319A92F752F3A0839020318A92F013096
:101F1200AE35AF0DB00D890B892F0130BA023908E9
:101F22003A060319A52F0130B802380807390319F8
:101F3200A52F882F0130B336B20CB10C890B9C2F20
:101F42000130B4003408B9073A083906031D9B2F43
:101F5200B81FBB2FFF30AE06FF30AF06FF30B00612
:101F62000130AE07003003180130AF07003003180C
:101F72000130B007381FCD2FFF30B106FF30B20657
:101F8200FF30B3060130B107003003180130B20749
:101F9200003003180130B307B8012E08B1072F082B
:101FA200B23D3008B33DB31FE82FFF30B106FF301A
:101FB200B206FF30B3060130B1070030031801301A
:101FC200B207003003180130B307B801B80A31086C
:101FD200A0003208A1003308A2003A08B400340875
:101FE200A3003808B5003508A4008A31A8222000D1
:0E1FF2002008AE002108AF002208B000080051
:102A7A0020000C14080020000C10080020008C1400
:102A8A00080020008C100800640080010131890BC5
:102A9A004A2D00341A30890B502D003295314325C6
:102AAA000800F000700C2100031C10100318101409
:102ABA0008009531462595311A30890B622D00326E
:102ACA0008002000590858045704031908008030E8
:102ADA00D9060800F00070082400910020000E16A4
:102AEA00240014187A2D0000752D11080800200002
:102AFA00A100A0013A3021020318892D30302102A9
:102B0A00031C892DA001A00A200C08002000280817
:102B1A00A0002908A100A2018E30AB002B08A30057
:102B2A00A4018A31A82220002008A8002108A900AF
:102B3A002208AA0008002000A1002108A000A00D78
:102B4A002100170820002006C1392006210097001D
:102B5A0063000000000021001708C1391A389700E5
:102B6A00640008007108F7007008F6000130F402EA
:102B7A000030F53B740A0319750A03190800760830
:102B8A00860077088700720881000130F607003056
:102B9A00F73DBB2D20002108A7002008A600013020
:102BAA00A4020030A53B240A0319250A03190800C8
:102BBA002608860027088700220881000130A60718
:102BCA000030A73DD42DF3000030953156259531BC
:102BDA0095315E259531730895316F2595317108C8
:102BEA0095316F259531F2007208F10095314F2524
:102BFA009531013095315625710808002000AF0043
:102C0A002F08AB00AC01AD012B08A0002C08A100D5
:102C1A002D08A2008E30AE002E08A300A4018A312E
:102C2A00A82220002008A8002108A9002208AA003A
:102C3A00080020002108A5002008A4002408860016
:102C4A002508870022088400230885000008C03F61
:102C5A008908031908000130A4070030A53D013096
:102C6A00A2070030A33D232E7108F5007008F40076
:102C7A00740886007508870001080319492E013077
:102C8A00F4070030F53D3D2E7009F2007109F3009A
:102C9A00F20A0319F30A74087207F0007508733D03
:102CAA00F100080020003D083C043B0403195F2E94
:102CBA008030BD063E08AE003F08AF004008B000B5
:102CCA003B08B1003C08B2003D08B3008F310A2727
:102CDA0020002E08BB002F08BC003008BD000800E9
:102CEA0021000C108C108E140E110E102400951257
:102CFA003D002108E0391138A1002208E0391938CD
:102D0A00A2002008E0391838A00024001512141770
:102D1A001508F03901389500951608002000210899
:102D2A00A5002008A40024088600250887000108B9
:102D3A000319A42E0130A4070030A53D982E2009BE
:102D4A00A2002109A300A20A0319A30A2408220740
:102D5A00A0002508233DA10008002000A2000030A1
:102D6A0095315625963195315E25963120002208F7
:102D7A0095316F2596312000200895316F259631BF
:102D8A002000A1002108A00095314F25963101307D
:102D9A00953156252000200808002000A50006309D
:102DAA002502031CDF2E2614A6142615A6152616A0
:102DBA00A616EB2E26142608A300250AE52EA3350F
:102DCA00890BE42E2308A4002408A6002608A300E1
:102DDA002308A00022309631B22608002000AD0157
:102DEA00A91FFE2EA809A909A80A0319A90AAD0153
:102DFA00AD0A2808A0002908A100A2018E30AB0064
:102E0A002B08A3002D08AC002C08A4008A31A822A4
:102E1A0020002008A8002108A9002208AA0008000A
:102E2A0020002308A5002208A4002508A400A50163
:102E3A002408A2002508A3000130A2070030A33D00
:102E4A0001302000A2020030A33B22082304031908
:102E5A00080007309531A025973107309531A02514
:102E6A009731252FF50021006908013975060319E4
:102E7A000800953140259731750C2100031C691013
:102E8A00031869146908F4007408F10020309531B8
:102E9A00E8259731C0300032890B502F7508031985
:102EAA00080095313D259731C0300032890B5A2FE1
:102EBA00080021003408B8003308B7003708860034
:102ECA003808870001080319772F0130B707003047
:102EDA00B83D632F0130B7070030B83D0130B50760
:102EEA000030B63D37088600380887003508840068
:102EFA00360885000008C03F8908031908006F2FAB
:102F0A00F4008F2F0130F2007208F4070130F2004A
:102F1A007208F00774088600013087007008840080
:102F2A00013085000003FF3A0107F2007208F3003E
:102F3A007308031DA72F7408860001308700010853
:102F4A00031D872F7308F000F101F01BF10308003D
:102F5A002000A400B82F0130A2002208A4070130E3
:102F6A00A2002208A0072408860001308700200852
:102F7A008400013085000003FF3A0107A2002208FD
:102F8A00A3002308031DD02F2408860001308700E0
:102F9A000108031DB02F2308A000A101A01BA10353
:102FAA0008008E302000AC002C08AD00FF302B0545
:102FBA000319EB2F0130AB36AA0CA90CA80C890B0C
:102FCA00E02F0130AC002C08AD07DB2F2808A00049
:102FDA002908A1002A08A2002D08AC002C08A30089
:102FEA00A4018A31A82220002008A8002108A900EB
:102FFA002208AA00080001340034003400340A34DC
:10300A000034003400346434003400340034E834CA
:10301A000334003400341034273400340034A0342C
:10302A00863401340034403442340F34003480345E
:10303A009634983400340034E134F53405340034DD
:10304A00CA349A343B34213425346C3475342E34E2
:10305A00253436342E3436346C3475340034003426
:10306A0001340234033400340134023403340434A6
:10307A00053441344E34433433346D3456340034D9
:10308A00523446345034573452340034AD348734D1
:10309A006634BC34BB3444344234473431340034AB
:1030AA00543445344D345034003456344234413467
:1030BA005434003442344F344F3454340034553489
:0A30CA004834313400342F34003450
:020000040001F9
:08000E008CFF3DFFFFFFFFFF27
:00000001FF
