:020000040000FA
:0400000080312D28F6
:10000800803174082000A0007508A1007C08A200B7
:100018007D08A3007E08A4007F08A500A9308600FB
:10002800223087007508A600101C1E288C31A124D8
:1000380020001010111B11132608FF002508FE00D0
:100048002408FD002308FC002208F5002108F4001C
:10005800090080312F2821008731FE278031E900EF
:100068006230840000308500073088311C208031E0
:10007800DF308400003085000A3088311C20803150
:100088004D30840001308500213088311C208031BA
:10009800A0308400013085004E3088311C2080312A
:1000A8002030840002308500213088311C20200057
:1000B80061308600213087008731692F2000D00009
:1000C8003E30FF007F08CB003D08FF003C08FE00E3
:1000D800BC0A0319BD0A7E0884007F088500000851
:1000E800FF007F08D50055080319292A2530550631
:1000F80003198B285508FF0050088400013085003B
:100108007F0880000130FF007F08D0076828D101F0
:10011800D201CA013C0884003D08850000088831E6
:1001280050208031031CC9282000D101D2010A3097
:10013800F0000030F10020005208F3005108F200EE
:100148008831E620803171082000D2007008D10083
:100158003C0884003D0885000008D03EFE00FF30C2
:1001680003180030FF007E08D1077F08D23D013018
:10017800BC070030BD3D3C0884003D0885000008F0
:1001880088315020803103189B2820003C088400C7
:100198003D08850012002E3A031D07290130BC07CF
:1001A8000030BD3DD301D4013C0884003D088500E2
:1001B8000008883150208031031C122920003C0897
:1001C80084003D0885000008FE00FF015408F10086
:1001D8005308F0000A30F2000030F3008831E620BE
:1001E80080317E087007FC007F08713DFD007C08A7
:1001F800D03E2000D300FF307D3DD4000130BC0745
:100208000030BD3DD8282000D301D40112294A1658
:100218001229C030FF007F08CA042A2920003D089F
:10022800FF003C08FE00BC0A0319BD0A7E088400D2
:100238007F0885000008D500003A0319292A6C3A7E
:1002480003190B29193A03190D2968284A1E392957
:100258004B0884008501003FCC00013FCD00023FE0
:10026800CE00033FCF00043047294B0884008501A6
:10027800003FFE00013FFF007E08CC007F08CD0054
:10028800CE01CF010230FF007F08CB07530854048A
:10029800031D58294F084E044D044C04031D5829CA
:1002A8000130D3070030D43DD501D50A0A305506B0
:1002B80003198B295508FE00FF01FE35FF0DFE3599
:1002C800FF0D00307E07840090307F3D8500003FA1
:1002D800C600013FC700023FC800033FC9004908E4
:1002E8004F02031D812948084E02031D8129470832
:1002F8004D02031D812946084C02031C8B2901303D
:10030800FF007F08D5070A305506031D5E295408EB
:10031800803A803C031D92295308550203189A29F4
:1003280020005308FF007F08D500AE29200054089C
:10033800803AC60080304602031DA429550853029E
:100348000318AE2920005508FE00FF017E08D300DF
:100358007F08D40020005208803A803C031DB6294B
:10036800510855020318C12920005508FE00FF0155
:100378007E08D1027F08D23BC4292000D101D201D6
:100388005108520403191E2A2030FF005008840027
:10039800013085007F0880000130FF007F08D0070A
:1003A800FF30D107FF30D23DC4290030B7000030FC
:1003B800B6000030B5000A30B40054088500530870
:1003C80084008435850D8435850D00308407903090
:1003D800853D003FA700013FA800023FA900033F59
:1003E800AA004F08AE004E08AD004D08AC004C08FE
:1003F800AB008C31ED24803120002A08BB0029088D
:10040800BA002808B9002708B8008C3117248031B1
:1004180020003408303EFF007F08D5005508FF0053
:1004280050088400013085007F0880000130FF00FB
:100438007F08D007FF30D307FF30D43D530A031D90
:10044800D929540A03196828D92950088400013089
:1004580085008001080000301E00003088316D20C2
:100468008231FF007F082000E500E51065081E00C6
:10047800203088316D2082312000A8010330A80483
:1004880028081E00233088316D208231200027087B
:1004980080390238A70027081E00253088316D20D2
:1004A80082312000AA01AA12AA150630AA042A0835
:1004B8001E00263088316D208231FF30893122219B
:1004C800823100301E00013088316D208231FF00FA
:1004D8007F082000AB002B10AB102B11AB112B1297
:1004E800AB122B081E00213088316D20823100307C
:1004F8001E001D3088316D208231FF007F082000EA
:10050800A9002915291429081E003D3088316D20BD
:10051800823100301E001C3088316D208231FF008E
:100528007F082000AC002C14AC142C15AC152C162C
:10053800AC162C081E003C3088316D20823120001A
:10054800AD01AE0100302E02063003192D0203184A
:10055800032B88313B20823120002D080A3E2038A9
:1005680088315E2082313E3084009030850000085A
:10057800F30020002D081E002830840090308500EC
:100588000008883195208231730788315E208231D6
:10059800003020002E02023003192D020318F42A1D
:1005A8003D30840090308500000888315E2082311B
:1005B8003C30840090308500000888315E2082310C
:1005C8003B30840090308500000888315E208231FD
:1005D8003A30840090308500000888315E208231EE
:1005E80088313220823101302000AD070030AE3D25
:1005F80000302E02063003192D02031CAD2A0030EC
:100608008B319A2382312000E4016417E4166416C2
:1006180064081E00273088316D20823100301E00AA
:10062800073088316D208231FF007F082000E40008
:1006380000301E00E13088316D20823100301E000C
:10064800E23088316D20823120006514E51565158A
:10065800E51465081E00203088316D200800200050
:100668002C08FD002D08FE002E08FF0003107E0D4B
:100678007F0DFF007F08B5002F08FD003008FE0041
:100688003108FF0003107E0D7F0DFF007F08B400C6
:10069800350803195B2B340835020318622B350320
:1006A800FF3A3407B20019303202031C622B2F08BC
:1006B800AC003008AD003108AE000800340803195A
:1006C8000800350834020318712B3403FF3A350744
:1006D800B20019303202031808000630FF007F0804
:1006E800B300AE1BB317B11B3317AD17FF30AC0502
:1006F800FF30AD050030AE05B017FF30AF05FF3055
:10070800B0050030B105340835020318AD2B0130AF
:10071800AF35B00DB10D890B8C2B0130B402340804
:1007280035060319A82B0130B3023308073903191A
:10073800A82B8B2B0130AE36AD0CAC0C890B9F2B44
:100748000130FF007F08B507350834060319D22B9E
:100758009E2B350834020318D22B0130AC35AD0D71
:10076800AE0D890BB22B0130B502340835060319DA
:10077800CE2B0130B302330807390319CE2BB12B26
:100788000130B136B00CAF0C890BC52B0130FF001E
:100798007F08B40735083406031DC42BB31FE42BA8
:1007A800FF30AC06FF30AD06FF30AE060130AC07B7
:1007B800003003180130AD07003003180130AE07D0
:1007C800331FF62BFF30AF06FF30B006FF30B106FF
:1007D8000130AF07003003180130B00700300318AC
:1007E8000130B107B3012C08AF072D08B03D2E0822
:1007F800B13DB11F112CFF30AF06FF30B006FF30FE
:10080800B1060130AF07003003180130B0070030DF
:1008180003180130B107B301B30A2F08A700300845
:10082800A8003108A9003508FF007F08AA0033088E
:10083800FF007F08AB008D31402520002708AC0061
:100848002808AD002908AE0008002C302100B300AC
:100858000130B4003430B5009030B6006808F100BB
:100868006708F00088318020843170082100B700C3
:100878007108B8007208B9008D31A5258431CF30D0
:100888002000CC004630CD004030CE0004308E3100
:10089800B226843120004308CF004408D000450820
:1008A800D1008631B526843120004C082200A600EC
:1008B80020004D082200A70020004E082200A800B2
:1008C8002C302100B3000130B4004430B500903022
:1008D800B600220026082100B700220027082100C0
:1008E800B800220028082100B9008D31A5258431DF
:1008F800220097163D308E31B226843120004308FD
:10090800CC004408CD004508CE0088312920843128
:1009180020004C082200A90020004D082200AA004F
:1009280020004E082200AB0000302000B600003046
:10093800B7004030B8001230AC000330AD00403092
:10094800AE00220029082000AF0022002A0820005B
:10095800B00022002B082000B100833133238431FA
:1009680020002C08B9002D08BA002E08BB008F31D2
:1009780057278431200036082200A00020003708BD
:100988002200A100200038082200A2009712A930F6
:100998002000AC00D130AD004330AE000430B600CA
:1009A800AD30B700BA30B800220020082000B900E6
:1009B800220021082000BA00220022082000BB00E3
:1009C8008F315727843120003608AF003708B00030
:1009D8003808B10083313323843120002C082200E9
:1009E800A30020002D082200A40020002E082200C9
:1009F800A5002C302100B3000130B4003F30B50011
:100A08009030B600220023082100B70022002408F5
:100A18002100B800220025082100B9008D31A52544
:100A28000800DD30FF007F082100AC00200820000E
:100A3800A700210021082000A8002100220820008A
:100A4800A9000030AA000030AB000030AC008B31A8
:100A58005E2385310318572D2D30FF0021002C0807
:100A68008400013085007F0880000130FF007F0886
:100A7800AC0720082000CC00210021082000CD0070
:100A8800210022082000CE0088312920853120004D
:100A98004C082100A00020004D082100A1002000E2
:100AA8004E082100A200210020082000D8002100C3
:100AB80021082000D900210022082000DA008E3108
:100AC8002B26853120005B082100AB0020005A0846
:100AD8002100AA00200059082100A9002000580878
:100AE8002100A8002B08F3002A08F2002908F100C9
:100AF8002808F0008A311022853170082000B600DD
:100B08007108B7007208B800210020082000B90059
:100B1800210021082000BA00210022082000BB0083
:100B28008831C8208531200036082100A000200027
:100B380037082100A100200038082100A200200861
:100B48002000CF00210021082000D0002100220829
:100B58002000D1002430CC007430CD004930CE00C4
:100B68008631B526853120004C08D8004D08D900BB
:100B78004E08DA008E312B26853120005B082100D3
:100B8800A70020005A082100A600200059082100CB
:100B9800A500200058082100A40029302000BC002E
:100BA8009030BD0021002B082000C10021002A0838
:100BB8002000C000210029082000BF0021002808CB
:100BC8002000BE00210027082000C50021002608BB
:100BD8002000C400210025082000C30021002408AB
:100BE8002000C20021002C0880316220DD3008007E
:100BF800423120006203031D072E0230E200A030BC
:100C08008C315A24853103306206031D112EE60308
:100C1800660A031D112E0130E2006303031D842EB2
:100C280020301E0000301E0000301E001E004E3016
:100C38001E0001301E008A31BD2285312200CD01FF
:100C480000301E00603088316D208531FE3F200065
:100C58000C1088313B208531613088315E20853128
:100C6800003088315E2085312200CD007E3FF400BF
:100C780001307402FE3F0030FF3F7F3FFF007E3FA0
:100C88007F020318562E7F3F4E3E8400013001300C
:100C98008500003088315E20853180007F3F013E2D
:100CA800FF3F412E88313220853120000C14640C1E
:100CB8000739FF00FF0E22004D087F068F397F0697
:100CC800CD0000301E00093088316D208531FF00CD
:100CD80022004D087F06FE397F06CD004E301E00EB
:100CE80001301E0021301E0002301E008A313A22D7
:100CF800853122004D082400A00002302000E300C6
:100D080002306306031DA12E2200CD1DA12E033043
:100D180020006206031DA12EA1301E004E3089312D
:100D2800BE21853174087504031DA12E2000E2013F
:100D3800E30100308B312323853102302000630624
:100D4800031DB32E22004D1DB32E4D11CD154D0E92
:100D580007398B319A2385314D308C315A247E31B5
:100D6800080020004C08FD004D08FE004E08FF005A
:100D780003107E0D7F0DFF007F08D2005208031D6F
:100D8800CC2E0030CC000030CD000030CE00080062
:100D98004F08FD005008FE005108FF0003107E0DAB
:100DA8007F0DFF007F08D7005708031DE22E003093
:100DB800CC000030CD000030CE00080057087B3E44
:100DC800FF007F08D2074C08FD004D08FE004E08C2
:100DD800FF001030FF36FE0CFD0C890BEE2E7D084F
:100DE800FF007F08D7004F08FD005008FE0051089B
:100DF800FF001030FF36FE0CFD0C890BFE2E7D081F
:100E0800FF007F08D7068030FF007F08D705CD1781
:100E1800D017FF30CF05FF30D0050030D1050030A6
:100E2800D3000030D4000030D5000730FF007F0821
:100E3800D6004C1C252F4F08D3075008D43D510825
:100E4800D53D0130CE36CD0CCC0C890B262F013088
:100E5800CF35D00DD10D890B2C2F0130D602031DB3
:100E68001D2F0930FF007F08D6004C1C412F4F086A
:100E7800D3075008D43D5108D53D0130CE36CD0CAE
:100E8800CC0C890B422F0130D536D40CD30C890BEE
:100E9800482F0130D602031D392F5308A7005408E4
:100EA800A8005508A9005208FF007F08AA005708A3
:100EB800FF007F08AB008D31402520002708CC00BB
:100EC8002808CD002908CE00080023008C018E01D7
:100ED80025008C018E0127008C018E0124008C01D5
:100EE8008E0121008E120E1220000E120B138B138E
:100EF8008F3032009905F03099050B302100BC0085
:100F08006230890B852FBC0B852F00004E301E00E8
:100F180090301E0021006908013E1E0001301E00AD
:100F28008A313A22873189317D2187312100690848
:100F3800013E8A31EF228731FF007F082100BD0082
:100F48003D088B319A2387313D0889312221873129
:100F580021001D1020000C1221000C1624000C1278
:100F680025000C1623000C168E1521008E15220064
:100F78009716171697131708FC3902389700703020
:100F880021009E049E1703309E041E1111171D0890
:100F980003390C389D000C1510140B108C1220000E
:100FA8008C120B178B17BE302100B3000030B40031
:100FB8004930B5009030B6000030F000F1008831BB
:100FC800442087318831AD20873170082100B7006F
:100FD8007108B8007208B9008D31A5258731003035
:100FE800F000F100F20189315E2187318431292432
:060FF8008731FA2FC1341D
:10103800640080010131890B1D2800342100170844
:10104800C139183897006400080020004E084D0484
:101058004C04031908008030CE0608001A30890BAA
:101068003328003220008C142100101408002100BD
:10107800101020008C101A30890B4028003208000C
:1010880071083100920070089100151715140000BE
:101098000000310013080800F100F0013A30710235
:1010A80003185C2830307102031C5C28F001F00A38
:1010B800700C08004131FF3F7F3F24009100200061
:1010C8000E16240014186A280000652811087F31BC
:1010D80008004131FF3F88313B2088317F3F88310C
:1010E8005E2088317E3F88315E208831FE3F88311E
:1010F80032207E3F7E31080070082000A70071086A
:10110800A800A9018E30FF007F08AA00AB018D312D
:10111800402520002708F0002808F1002908F200DF
:1011280008004231FE3F0030FF3F7E3F091CA128E6
:101138007D3FFF007F3F7F07FF3F7D3F8935FD3FB4
:101148007E3F8936FE3F7E3F031D99287F3F7D31D4
:1011580008002000AC002C08FD00FE01FF017D08FE
:10116800A7007E08A8007F08A9008E30FF007F082E
:10117800AA00AB018D31402520002708F00028087F
:10118800F1002908F2000800200038083704360466
:101198000319D0288030B8063908AC003A08AD00E9
:1011A8003B08AE003608AF003708B0003808B10079
:1011B8008331332320002C08B6002D08B7002E08F1
:1011C800B80008002000A701A801701CF0287208C8
:1011D8002000A7077308A83D0130F235F30D890BED
:1011E800F1280130F136F00C890BF62870087104EB
:1011F800031DE92820002808F1002708F00008004E
:101208004231FE3F06088400070885003E31003F52
:10121800FF3F7F3F8400013085000008031918292B
:101228007F3F013EFF3F0D297F3FFF007E3F7F024A
:10123800F400F501F41BF5037E310800F1000630D7
:101248007102031C2E297214F2147215F21572160B
:10125800F2163A2972147208F000710A3429F0352E
:10126800890B33297008FF007F08F20072081E00FE
:10127800223088316D20080021000C108C108E144B
:101288000E110E10240095123D002108E039113886
:10129800A1002208E0391938A2002008E0391838DE
:1012A800A0002400151214171508F039013895000C
:1012B8009516080000308B1B0130F30071083100CF
:1012C80092007008910072089300151715158B137A
:1012D80055309600AA309600951473290000310005
:1012E800951872291511730C031C8B1303188B178F
:1012F800080089314021893120000C100B30200072
:10130800AF006230890B8629AF0B86290000823135
:101318002F2289310B302000AF006230890B9229CF
:10132800AF0B9229000020000C14E201E301080031
:10133800F301F11FA629F009F109F00A0319F10ACE
:10134800F301F30A70082000A7007108A800A9019A
:101358008E30FF007F08AA007308FF007F08AB00EB
:101368008D31402520002708F0002808F1002908C1
:10137800F20008004231FE3FCE297E3F8400013052
:10138800850000080319E0297E3F013EFE3F7D3FAE
:10139800013EFD3F7D3F8400013085000008FF00CD
:1013A8007E3F8400013085000008F4007F08740245
:1013B800FF3F89080319C1297F3FF400F501F41B99
:1013C800F5037D31080021002E08B2002D08B10078
:1013D800310884003208850000080319002A01300A
:1013E800B1070030B23DEC290130B1070030B23D01
:1013F8000130AF070030B03D2F0884003008850069
:101408000008FF0031088400320885007F0880004A
:10141800000803190800F8298E30FF007F08200013
:10142800AC00FF3073050319252A0130F336F20C9E
:10143800F10CF00C890B1A2A0130FF007F08AC0769
:10144800152A7008A7007108A8007208A9002C08BE
:10145800FF007F08AA00AB018D3140252000270836
:10146800F0002808F1002908F200080042310608B7
:101478008400070885003C31003FFE3F013FFF3FE5
:101488007A3F84007B3F85000008FF007E3F840090
:101498007F3F85007F08800000080319622A7E3F8D
:1014A800013EFE3FF4017F3F743DFF3F7A3F013E1E
:1014B800FA3FF4017B3F743DFB3F442A7A31080030
:1014C800F3011330730203188D2A7108FF007008A6
:1014D800FE00730A712AFF36FE0C890B6F2A7E1CE8
:1014E800852A7308F200F20D210017087206C13927
:1014F800720697006300000000002000031E831995
:10150800752A0130FF007F08F30713307302031CAC
:10151800692A883122200800700871040319B82A42
:101528002000A701A70AF11BA32A0130F035F10D0D
:10153800890B9A2A0130FF007F08A707972A7108AC
:101548007302031DA92A70087202031CAF2A7008CF
:10155800F2027108F33B0130F136F00C890BB02A26
:101568000130A702031DA32A7308F1007208F000D6
:101578000800423106088400070885003C31003F16
:10158800FE3F013FFF3F783FF40001307402F83F0F
:10159800793FF4000030743BF93F783FFF3AF4009C
:1015A800793FFF3AF4040319ED2A7A3FFF007E3FA2
:1015B800FC007F3FFD007C0884007D0885007F08D3
:1015C80080007E3F013EFE3FF4017F3F743DFF3FB8
:1015D800C72A783108002000AA00A901AB01AB0195
:1015E8002A08893104218A3120002B08FE00FF01D6
:1015F80075087F02031D022B74087E020318142B42
:101608002B082A07A8002808840001308500000854
:10161800FF007F08A9070130FF007F08AB07F42A05
:101628000630F0000030F1002908FE00FF017E08B6
:10163800F2007F08F3008A319022700808004131D7
:10164800FF3F7F3F03192D2B02302000620603194C
:101658005C2B7F3F031D352B0330200062060319E6
:101668005C2B7F3FFF002000650801397F060319C6
:101678005C2B0C10C0300032890B3F2B7F3F0139A7
:101688002000031D65140319651065081E0020302D
:1016980088316D208B31C0300032890B502B7F3F51
:1016A80003195C2B20000C14C0300032890B592B15
:1016B8007F3108002000A91F752B2709FD00280984
:1016C800FE002909FF00FD0A0319FE0A0319FF0A93
:1016D80000307D07A70000307E3DA80080307F3DA8
:1016E800A900AC1F8B2B2A09FD002B09FE002C0931
:1016F800FF00FD0A0319FE0A0319FF0A00307D07DF
:10170800AA0000307E3DAB0080307F3DAC008030C9
:10171800A9068030AC062C082902031D08002B08F6
:101728002802031D08002A08270208004131FF3F4C
:1017380088313B208B31303088315E208B313E3010
:101748008400903085000008FE0021301E007E3F96
:10175800883195208B317E0788315E208B313D3072
:10176800840090308500000888315E208B313C3041
:10177800840090308500000888315E208B313B3032
:10178800840090308500000888315E208B313A3023
:10179800840090308500000888315E208B318831C4
:1017A80032207F310800E8302000A7000330A8006D
:1017B80062080319F52B0B30F2006230890BE22B1B
:1017C800F20BE22B00328531FC258B3101302000F1
:1017D800A7020030A83B270A031DDC2B280A031D9B
:1017E800DC2B7008013EFE000030713DFF007E08D2
:1017F8001E007F081E00A1301E0001301E008A3125
:101808003A228B3170088400710885000008FF00B7
:101818007F082300A0000130FF007F082000E200BD
:101828008531FC25080020003708360435043404C7
:101838000319512CF001F00AB71B2E2C0130B435D6
:10184800B50DB60DB70D890B232C0130FF007F08AD
:10185800F007202C37083B02031D3C2C36083A02BF
:10186800031D3C2C35083902031D3C2C3408380272
:10187800031C462C3408B8023508B93B3608BA3B75
:101888003708BB3B0130B736B60CB50CB40C890B26
:10189800472C0130F002031D2E2C3B08B7003A08F4
:1018A800B6003908B5003808B40008004331FD3FD8
:1018B8007D3F2000E80000308B3123238C318831B4
:1018C8003B208C31B03088315E208C312000680894
:1018D8008400013001308500000888315E208C3199
:1018E80020006808013E893104218C317408FF3FCB
:1018F8000030FE3F7E3FFF007F3F7F020318952C9C
:101908007E3F20006807FF007F0A84000130013015
:101918008500000888315E208C317E3F013EFE3F05
:101928007E2C883132208C3120000C142030890B19
:101938009B2C20000C107D31080000301E00073061
:1019480088316D208C31FF007F082000E4000130D1
:101958002100E7070030E83D2000641FBF2C630822
:10196800031DBB2C0130FF007F08E300BC2C64136F
:101978008531FC258C312000E41EE62C68088400A3
:1019880001308500001DD52C0330FF007F08E200E0
:10199800FF30FF007F08E60001308B3123238C31B4
:1019A800E32C20006808840001308500801DE12CAC
:1019B80001308B3123238C31E32C2000E201853167
:1019C800FC258C31200064081E00273088316D20EA
:1019D800080000302000B2000030B1000030B00034
:1019E8000030AF002A082904280427040319372DDA
:1019F800B301B30AAA1B0C2D0130A735A80DA90DF8
:101A0800AA0D890B012D0130FF007F08B307FE2CBA
:101A18000130AF35B00DB10DB20D890B0D2D2A086F
:101A28002E02031D212D29082D02031D212D280812
:101A38002C02031D212D27082B02031C2C2D2708FF
:101A4800AB022808AC3B2908AD3B2A08AE3B2F1453
:101A58000130AA36A90CA80CA70C890B2D2D013032
:101A6800B302031D0C2D3208AA003108A900300862
:101A7800A8002F08A700080020002A080319492DEC
:101A8800290828042704031D5A2D0030A700003018
:101A9800A8000030A90008000130FF007F08AA074D
:101AA8000130A936A80CA70C890B552DFE30290545
:101AB8000319732D502D0130FF007F08AA0701304C
:101AC800A707003003180130A807003003180130B9
:101AD800A9070130A936A80CA70C890B6E2DFF3079
:101AE80029050319802D5F2D0130AA020130A73581
:101AF800A80DA90D890B7B2DA81B862D02302A0263
:101B08000318782D2A188E2DFF30A7057F30A805D9
:101B1800FF30A9050310AA0C2A08FD00FE01FF01E9
:101B28001030FD35FE0DFF0D890B952D7D08A7049E
:101B38007E08A8047F08A9042B0803190800A91720
:101B4800080020301E0000301E0000301E001E005D
:101B580021003308013EFE000030343DFF007E08BE
:101B68001E007F081E008A31BD228D3121006908C0
:101B7800013E1E0001301E003308013EFE00003009
:101B8800343DFF007E081E007F081E008A313A227D
:101B98008D3121003308013EAD000030343DAE00E8
:101BA8005230AF009030B0008931E7218D312100EB
:101BB8003308013EAD000030343DAE003608B000B9
:101BC8003508AF008931E7218D3121003308013E06
:101BD800AD000030343DAE005230AF009030B00060
:101BE8008931E7218D3121003308013EAD000030F5
:101BF800343DAE003708A0003808A1003908A2001B
:101C0800BA30FF007F08A300853115258D312100EA
:101C1800AF000130B0008931E7218D312100330850
:101C28008400340885008001330884003408850066
:101C380000153408F1003308F0008B31D7238D31BB
:101C4800D030F0000730F1008A316422080020000B
:101C58005808FD005908FE005A08FF0003107E0DC1
:101C68007F0DFF007F08E1006108031D442E00304E
:101C7800DB000030DA000030D9000030D80008005E
:101C88005808FD005908FE005A08FF001730FF36B3
:101C9800FE0CFD0C890B4B2E7D08FF007F08DC0035
:101CA800D917FF30D805FF30D9050030DA055808B4
:101CB800DD005908DE005A08DF00E0018E30E1023D
:101CC800E11F822E6108803A8F3E0318742E00307F
:101CD800DB000030DA000030D9000030D8000800FE
:101CE8000130E036DF0CDE0CDD0C890B752E01307F
:101CF800FF007F08E10703199B2E742E183061023C
:101D0800031C982E0030DB000030DA000030D900C8
:101D18000030D80008000130DD35DE0DDF0DE00DA4
:101D2800890B902E0130E1026108031D8F2E5C089B
:101D38000319A92EDD09DE09DF09E009DD0A031907
:101D4800DE0A0319DF0A0319E00A6008DB005F08EE
:101D5800DA005E08D9005D08D80008002000C70036
:101D68000030C9000030CA000030CB006F30FF00DF
:101D78007F08C8004708C600C60DC60D21001D080B
:101D8800200046060339460621009D0022009717C9
:101D980021001D140130F0000030F1008A31642266
:101DA8008E3101302000C802480A03190E2F210085
:101DB8009D1421009D1CE82E0130F0000030F10038
:101DC8008A3164228E31DD2E1C08FE00FF017E0858
:101DD800FF00FE017E081B04F0007F08F100893136
:101DE8009C218E3170082000AC007108AD0072088B
:101DF800AE004908AF004A08B0004B08B100833173
:101E080033238E3120002C08C9002D08CA002E0863
:101E1800CB00D52E2200971321001D100030200082
:101E2800B600DE30B7004230B8004908B9004A08A9
:101E3800BA004B08BB008F3157278E312000360877
:101E4800C9003708CA003808CB0021001E0803392A
:101E5800033A0319482F4F2F00302000B600FA30FC
:101E6800B7004330B8004908B9004A08BA004B081F
:101E7800BB008F3157278E3120003608C90037083C
:101E8800CA003808CB004F2F220017080339023A3E
:101E98000319302F4F2F20004908C3004A08C400F7
:101EA8004B08C500080020003908FD003A08FE006C
:101EB8003B08FF0003107E0D7F0DFF007F08C10067
:101EC8004108031D6E2F0030B6000030B700003007
:101ED800B80008003608FD003708FE003808FF0083
:101EE80003107E0D7F0DFF007F08C2004208031D0E
:101EF800842F0030B6000030B7000030B80008006A
:101F08000030BE000030BF000030C00089304207FA
:101F1800BC003C08C1023908FD003A08FE003B0835
:101F2800FF001030FF36FE0CFD0C890B962F7D0844
:101F3800FF007F08C2003608FD003708FE00380899
:101F4800FF001030FF36FE0CFD0C890BA62F7D0814
:101F5800FF007F08C2068030FF007F08C205BA175D
:101F6800FF30B905FF30BA050030BB05B717FF30A1
:101F7800B605FF30B7050030B8051830FF007F08F8
:101F8800BD000130BE35BF0DC00D890BC62F380806
:101F98003B02031DD52F37083A02031DD52F3608FB
:101FA8003902031CDE2F3608B9023708BA3B380855
:101FB800BB3B3E140130B935BA0DBB0D890BDF2F81
:101FC8000130BD02031DC52F3E08A7003F08A80029
:101FD8004008A9004108FF007F08AA004208FF0046
:101FE8007F08AB008D31402520002708B60028085F
:101FF800B7002908B8000800013400340034003460
:102008000A340034003400346434003400340034BA
:10201800E8340334003400341034273400340034F6
:10202800A034863401340034403442340F34003450
:1020380080349634983400340034E134F53405346F
:102048000034CA349A343B34213425346C34753422
:102058002E34253436342E3436346C34753400340A
:1020680043344F3455344E3454340034AD3487340B
:102078006634BC34BB34543445344D3450340034A5
:102088005634423441345434003442344F344F349B
:102098005434003455345734543400342F34003415
:020000040001F9
:08000E008CFF3DFFFFFFFFFF27
:00000001FF
