:020000040000FA
:0400000080310F2814
:100008007E1480312000101C0D2887311027200015
:1000180010107E10090080311128593084000030FA
:10002800850016308D31D32580312100E301E401AC
:10003800E501E601203084000130850041308D3132
:10004800D3257E1020008331D02B2000B110310839
:10005800A5002508A10020308F312B2780312000F2
:10006800A9010330A9042908A5002508A100223008
:100078008F312B2780312000270880390238A700CC
:100088002708A5002508A10025308F312B278031AE
:100098002000AB01AB12AB150630AB042B08A50052
:1000A8002508A10026308F312B27803120002D1400
:1000B800AD142D15AD152D16AD162D08A500250866
:1000C800A10022308F312B2780312000A10101307F
:1000D8008F312B2780312000A5002508AE002E1077
:1000E800AE102E11AE112E12AE122E08A500250844
:1000F800A10021308F312B2780312000A1011D3034
:100108008F312B2780312000A5002508AA002A1549
:100118002A142A08A5002508A1003D308F312B2775
:1001280080312000A1011C308F312B278031200025
:10013800A5002508AF002F14AF142F15AF152F16E3
:10014800AF162F08A5002508A1003C308F312B27BA
:1001580080312000B201B3010030330206300319A8
:1001680032020318192932080A3EA5002508A800FA
:100178001D308400903085000008A5002508B000D7
:100188003208A5002508A100403084009030850081
:1001980000088E310F2680312000A6002608B007FF
:1001A8008D31E82580312000280820388D31F02550
:1001B8008031200030088D31F0258031003020005A
:1001C800330202300319320203180A291C30840052
:1001D8009030850000088D31F02580311B30840077
:1001E8009030850000088D31F02580311A30840068
:1001F8009030850000088D31F02580311930840059
:100208009030850000088D31F02580318D31D92559
:10021800803101302000B2070030B33D0030330296
:10022800063003193202031CB7281D3084009030B1
:1002380085000008A5002508B000403084009030F3
:10024800850000080907A5002508B0078D31E825B5
:10025800803130308D31F0258031200030088D31EB
:10026800F02580311C3084009030850000088D31E5
:10027800F02580311B3084009030850000088D31D6
:10028800F02580311A3084009030850000088D31C7
:10029800F0258031193084009030850000088D31B8
:1002A800F02580318D31D92580312000AC012C1703
:1002B800AC162C162C08A5002508A10027308F3174
:1002C8002B2780312000A101E1308F312B2780318D
:1002D8002000A101E2308F312B278031200031141A
:1002E800B1153115B1143108A5002508A100203039
:1002F8008F312B270800640036302000BD00903075
:10030800BE00210066082000C20021006508200008
:10031800C100210064082000C000210063082000FB
:10032800BF00A1308531392581312100A10121117A
:10033800A1308231932281318E31212681318D3154
:10034800FD25813128302000BD009030BE000030EE
:10035800B2000030B1000930B000DE30AF00043028
:1003680084315824813120003208C2003108C1008C
:100378003008C0002F08BF00A130853139258131F0
:100388002100A1012111A1308231932281318E31C6
:10039800212681318D31FD2581311E302000BD009F
:1003A8009030BE000030B2000030B1000930B0001B
:1003B800C430AF0013308431582481312000320812
:1003C800C2003108C1003008C0002F08BF00A130AA
:1003D8008531392581312100A1012111A1308231D6
:1003E800932281318E31212681318D31FD25813154
:1003F8003A302000BD009030BE000030B20000301E
:10040800B1000930B000C430AF003F308431582407
:10041800813120003208C2003108C1003008C00014
:100428002F08BF00A1308531392581312100A10174
:100438002111A1308231932281318E3121268131DF
:100448008D31FD25813123302000BD009030BE0064
:10045800C030D4006330D500FF30D600FF30D7005D
:100468000030B2000030B1000030B000A230AF0060
:100478003D3084315824813120002F08D4073008BA
:10048800D53D3108D63D3208D73D5708C200560839
:10049800C1005508C0005408BF00A1308531392576
:1004A80081312100A1012111A130823193228131B2
:1004B8008E31212681318D31FD2581312000A10128
:1004C80006308F312B2781312000D40054082100B9
:1004D800A00013302000BD009030BE002100200C89
:1004E80003392000D400D501D601D7015708C2002E
:1004F8005608C1005508C0005408BF00A130853116
:10050800392581312100A1012111A13082319322A5
:1005180081318E31212681318D31FD250800200061
:10052800AB002B08A9002908D900FF302000A9003A
:100538002908AC0020005B1CAA2A0130AC02031970
:10054800992A8530890BA62A00009E2A5B14003060
:100558008D31E0258231003086319E2682318D3101
:10056800E8258231B0308D31F025823120005908DC
:100578008600870101088D31F02582312000AC0109
:10058800D52A2C08013E5907A900290886008701A9
:1005980001088D31F025823101302000A900290899
:1005A800AC075908013E8F318F27823120002C0873
:1005B800A900AA0122082A02031DE42A2108290207
:1005C8000318EA2A20302C02031CC52A8D31D925AC
:1005D80082318D31C72582311A30890BF12A0032D8
:1005E8008D31CA25823101308D31E0258231FF30CD
:1005F8002000A9002908AC0020005B1C142B013046
:10060800AC02031D0F2B0130A4000030A500863179
:1006180023268231992A8530890B102B0000002B64
:10062800FF30A9002908AC0020005908860087017E
:10063800011D08000130AC02031D3D2B02302000D3
:10064800AA000430A900BA30890B282BA90B282B43
:10065800AA0B282B000002302000AA000430A900B1
:10066800BA30890B352BA90B352BAA0B352B00007B
:10067800992A06302000A9003030890B412BA90B9C
:10068800412B0000182B2000BB003208B9003108AC
:10069800B8003008B7002F08B6003308A1003408A6
:1006A800A200890D893B8909A300A4003908A80084
:1006B8003808A7003708A6003608A50085318D251B
:1006C800833120002408B9002308B8002208B700A5
:1006D8002108B6000130B5003508BB0739083804D1
:1006E80037043604031D512B3B088600870181011E
:1006F8000130BB023308A1003408A200890D893BF0
:100708008909A300A4003208A8003108A70030080E
:10071800A6002F08A5008531E02583312000210897
:10072800B5003508BA003308A1003408A200890DC5
:10073800893B8909A300A4003208A8003108A70052
:100748003008A6002F08A50085318D2583312000AB
:100758002408B2002308B1002208B0002108AF0025
:100768000A303A02031CBC2B0730B5003508BA071B
:100778003030B5003508BA073A08B5003B0886009E
:100788008701350881000130BB023208310430048A
:100798002F04031908007E2B23008C018E012500ED
:1007A8008C018E0127008C018E0124008C018E01A2
:1007B80021008E120E1220000E120B138B138F3095
:1007C80032009905F030990534302000D800F13016
:1007D800890BEC2BD80BEC2B00328F310B27833194
:1007E800073020005C0603190B2C0730D800580886
:1007F800DC003230A1009030A2005D308E31B4268A
:1008080083312000ED01EE018F316C278331873170
:10081800D827833121001D1023000C1621000C1647
:1008280024000C1223008E1521008E152200971229
:100838001712971697131708FC390138970097175E
:10084800703021009E049E171E11FC309E051D0865
:1008580003390C389D001D140C1510140B101708C3
:10086800C139163897008C1220008C120B178B1781
:100878002D30BD009030BE006D08BF006E08C0006E
:10088800C101C201C2308531392583312100C2013D
:100898004211C2308231932283318D31FD2583315B
:1008A80081317F218331542C2000B7000030BC00F7
:1008B8000030BB000030BA000030B900FF30B30090
:1008C8003308B8003708B300B30DB30D21001D0875
:1008D800200033060339330621009D00A030003282
:1008E800890B732C01302000B8020319A02C2100B9
:1008F8009D1421009D1C822C00007D2C1B082000CB
:10090800B300B401B501B6013308B9073408BA3DDC
:100918003508BB3D3608BC3D21001C082000B3004B
:10092800B4013308B400B3013308B9073408BA3D39
:100938000030BB3DBC3D762C0030A4000030A30045
:100948000030A2006430A1003C08A8003B08A700C2
:100958003A08A6003908A500873178278431200095
:100968002408BC002308BB002208BA002108B900EB
:100978003208A4003108A3003008A2002F08A10003
:100988003C08A8003B08A7003A08A6003908A500BB
:1009980085318D2520002408BC002308BB002208CF
:1009A800BA002108B9003C08B2003B08B1003A0877
:1009B800B0003908AF0008004130F0000130F10004
:1009C8000030F200F3002030F4000030F5008E31E2
:1009D8004D2684312200C001F10160308E31992604
:1009E8008431F8007808F900FA018D31CA2584317C
:1009F8008D31E825843161308D31F0258431003026
:100A08008D31F0258431F80078082200C0000130CB
:100A1800F902FA011F2D00308D31F0258431F800DC
:100A28007A08413E8600013087007808810001304D
:100A3800F8007808FA0779087A020318272D203079
:100A48007A02031C0F2D8D31D9258431F10109302B
:100A58008E3199268431F800220040087806FE3944
:100A68007806C0008D31C72508002000D300530840
:100A7800013EA1000030A2000030A300A4002030F5
:100A8800A5000030A6008E31652685315D30200036
:100A9800A1000030A2005308013E8F31DA278531CA
:100AA8003E302000A1009030A2005308013E8F3153
:100AB800DA27853120003E08A2003D08A10053082E
:100AC800013E8F31DA27853120004208B200410803
:100AD800B1004008B0003F08AF000A30B300003052
:100AE800B40043308331472385313E302000A100D4
:100AF8009030A2005308013E8F31DA278531433008
:100B08002000A1000030A2005308013E8F31DA27EF
:100B1800080000302000AD000030AC000030AB0011
:100B28000030AA0024082304220421040319D72D25
:100B3800AE01AE0AA41BAC2D0130A135A20DA30D48
:100B4800A40D890BA12D0130A9002908AE079E2DFF
:100B58000130AA35AB0DAC0DAD0D890BAD2D2408B8
:100B68002802031DC12D23082702031DC12D2208B9
:100B78002602031DC12D21082502031CCC2D2108A6
:100B8800A5022208A63B2308A73B2408A83B2A1451
:100B98000130A436A30CA20CA10C890BCD2D013079
:100BA800AE02031DAC2D2D08A4002C08A3002B08B1
:100BB800A2002A08A1000800200024082304220417
:100BC800210403191A2EAA01AA0AA41BF72D013021
:100BD800A135A20DA30DA40D890BEC2D0130A900A0
:100BE8002908AA07E92D24082802031D052E230831
:100BF8002702031D052E22082602031D052E2108A3
:100C08002502031C0F2E2108A5022208A63B230853
:100C1800A73B2408A83B0130A436A30CA20CA10CC6
:100C2800890B102E0130AA02031DF72D2808A400F5
:100C38002708A3002608A2002508A1000800200014
:100C4800A10106308F312B2786312000A600260807
:100C5800A7002508803AA60080302602031D362EFC
:100C680001302402031C482E2000270C0339033AC4
:100C78000319482E270C0339A600A60AA60D270833
:100C88002606F9392606A7002000A51F5A2E270C8C
:100C98000339003A03195A2E270C0339A600A60374
:100CA800A60D27082606F9392606A7002708A60054
:100CB8002608A10026308F312B2708008B1331001E
:100CC800950120002108E03EA5001F30223DA60026
:100CD80025083100910020002608310092001516E1
:100CE800151555309600AA3096009514000000009E
:100CF80031001511950120002508310091002000D0
:100D080026083100920015129516151520002308A3
:100D180031009300200024083100940095125530CA
:100D28009600AA30960095140000000031001511B5
:100D38008B1708002000A600A10100308F312B2757
:100D480086312000A4002408A500250801392606BC
:100D58000319D22E8D31CA258631A0300032890B75
:100D6800B22E2000260801392510031D2514250858
:100D7800A4002408A10020308F312B278631A03011
:100D88000032890BC42E200026080319D22E8D317B
:100D9800C7258631A0300032890BCF2E20002608C7
:100DA80001395B11031D5B150800F600F1010030E5
:100DB8008E3199268631F4007408F50075080139DA
:100DC80076060319092F8D31CA258631A0300032E5
:100DD800890BEB2E760801397510031D75147508FB
:100DE800F4007408F10020308E3199268631A03045
:100DF8000032890BFC2E76080319092F8D31C7257F
:100E08008631A0300032890B062F76080139200080
:100E18005B11031D5B150800F10107308E3199261F
:100E28008731FD007D082000A000200A031D202F27
:100E380002308E31352687312000A01E2F2F5B10FF
:100E48005B192F2F590886008701011D2F2F0130AC
:100E58008631D92687312000201F3D2FDB183C2FF3
:100E6800DB148431E02487318E31EB2687313D2F26
:100E7800201320002008FD007D08F10027308E3166
:100E8800992608008B133100950120002108E03EC7
:100E9800A8001F30223DA900280831009100200039
:100EA8002908310092001514000000002000A60156
:100EB800A701310013082000A300A4012308A600FD
:100EC8002408A700310014082000A300A401230867
:100ED800A400A3012308A6042408A7048B17270845
:100EE800A2002608A100080000302000AC00003055
:100EF800AB000030AA000030A900211C8B2F250868
:100F0800A9072608AA3D2708AB3D2808AC3D0130B3
:100F1800A535A60DA70DA80D890B8C2F0130A43679
:100F2800A30CA20CA10C890B932F240823042204E0
:100F38002104031D812F2C08A4002B08A3002A08D4
:100F4800A2002908A10008008B1331009501700840
:100F5800E03EF4001F30713DF500740891007508FB
:100F680092001516151555309600AA30960095145E
:100F780000000000310015119501740891007508F2
:100F880092001512951615157208930073089400AF
:100F9800951255309600AA3096009514000000006E
:100FA800310015118B1708008E31CF2687318D310E
:100FB800CA25873102302000B5000430B400BA30A9
:100FC800890BE42FB40BE42FB50BE42F000080311C
:100FD8002920873102302000B5000430B400BA302F
:100FE800890BF42FB40BF42FB50BF42F00008D31BF
:080FF800C72508004030080085
:101B8E0020000C14080020000C10080020008C14FB
:101B9E00080020008C100800640080010131890BC0
:101BAE00D42D00340D30890BDA2D00008D31CD256A
:101BBE000800F000700C2100031C10100318101404
:101BCE0008008D31D0258D310D30890BEC2D0000A4
:101BDE000800F00070082400910020000E1624006A
:101BEE001418FB2D0000F62D1108080001302100FD
:101BFE00E3070030E43D0030E53D0030E63D630094
:101C0E00000000002000031AFD2D831D0800FD2D8D
:101C1E002000A400A301241C182E2108A2002208D3
:101C2E00A3070310A10D0310A40C2408031D122EEC
:101C3E00230808008731FE278E312000A8002808CF
:101C4E00A9002908860001308700811C0800FF309A
:101C5E00A400FF30A500863123260800FC007C0876
:101C6E00FA00FB017A08F0007B08F1000A30F2005E
:101C7E000030F3008E317E268E3171082000EE008A
:101C8E007008ED008F314B27010008007108F70036
:101C9E007008F6000130F4020030F53B740A0319A7
:101CAE00750A0319080076088600770887007208FF
:101CBE0081000130F6070030F73D512E200022083A
:101CCE00A8002108A7000130A5020030A63B250A76
:101CDE000319260A0319080027088600280887001A
:101CEE00230881000130A7070030A83D6A2EF401B9
:101CFE00F501701C862E7208F4077308F53D01304D
:101D0E00F235F30D890B872E0130F136F00C890B6D
:101D1E008C2E70087104031D802E7508F100740856
:101D2E00F0000800F30000308D31E0258E318D314A
:101D3E00E8258E3173088D31F0258E3171088D3185
:101D4E00F0258E31F2007208F1008D31D9258E31D9
:101D5E0001308D31E025710808002000A400240810
:101D6E00A3002308A500250886008701210884000A
:101D7E00220885000008C03F8908031908000130B9
:101D8E00A3002308A5070130A1070030A23DBA2EFB
:101D9E0021000C108C108E140E110E1024009512B2
:101DAE003D002108E0391138A1002208E039193828
:101DBE00A2002008E0391838A000240015121417CC
:101DCE00F0309505951608002200C01D0800200071
:101DDE00DB10590886008701011D08004130F7000D
:101DEE007708F0005908013E8F31B4278E31700804
:101DFE007104031D08002000590886008701011197
:101E0E0000308631D92608002000AB01AC0100302D
:101E1E002C02203003192B02031808002C08A200F4
:101E2E002B08A100873146278F3120002108AA00F8
:101E3E002B08203E8600013087002A0881000130E1
:101E4E00AB070030AC3D0E2F2000A30000308D31CB
:101E5E00E0258F318D31E8258F31200023088D311B
:101E6E00F0258F31200021088D31F0258F31200093
:101E7E00A2002208A1008D31D9258F3101308D317C
:101E8E00E025200021080800F801F9010030790250
:101E9E00203003197802031808007908F100780839
:101EAE00F0007808203E8600013087000108F60019
:101EBE00F7017608F2007708F3008731A8278F31F3
:101ECE000130F8070030F93D4D2F2000A901AA017D
:101EDE0000302A02203003192902031808002A08AC
:101EEE00A2002908A1002908203E860001308700A3
:101EFE000108A700A8012708A3002808A40086311E
:101F0E0062268F3101302000A9070030AA3D6F2FC5
:101F1E002000A7002708A3002308A8002808860091
:101F2E00870101080319A02F0130A3002308A80779
:101F3E00952F2708A3000030A400A309A409A30A23
:101F4E000319A40A2808A5000030A60023082507B7
:101F5E00A1002408263DA2000800F400BE2F013087
:101F6E00F2007208F4070130F2007208F0077408EC
:101F7E008600870170088400013085000003FF3A57
:101F8E000107F2007208F3007308031DD42F7408C2
:101F9E00860087010108031DB62F7308F000F101BA
:101FAE00F01BF10308002000A5002508A30023085C
:101FBE00A40024088600870101080319F32F0130BD
:101FCE00A3002308A407E02F0130A3002308A407D1
:101FDE000130A1070030A23D2408860087012108A8
:101FEE008400220885000008C03F890803190800F4
:101FFE00EB2FAA3455346E3463346F346E3466343A
:10200E0069346734753472346534643400340034A2
:10201E0000340034003400345234463450345734D3
:10202E0052340034AD3487346634BC34BB3441345E
:10203E004E34433433340034543445344D345034F8
:10204E0000345634423441345434003442344F3424
:10205E004F3454340034553457343234003444340D
:10206E0042344734003446345634523400342F341C
:04207E0000342134D5
:103FC0000034003400340034003400340034003451
:103FD0000034003400340034003400340034003441
:103FE0000034003400340034003400340034003431
:103FF0000034003400340034003400340034003421
:020000040001F9
:08000E008CFF3DFFFFFFFFFF27
:00000001FF
