:020000040000FA
:1000000080310F28A03008007E1480312000101CA1
:100010000D288B31B923200010107E10090080318B
:100020001128210097313F278031EE00FD01E73094
:10003000840000308500073097314C2780314E30E6
:10004000840001308500113097314C278031A03079
:100050008400013085003D3097314C277E10200010
:100060008E310E2E2000CE003A30C2004208C90068
:100070003908C3003808C200B80A0319B90A42088F
:100080008400430885000008C4004408D3005308D6
:100090000319F9292530530603195B285308C200B8
:1000A0004E08860001308700420881000130C200FE
:1000B0004208CE073828CF01D001C8013808840093
:1000C00039088500000897317F278031031C992863
:1000D0002000CF01D0010A302000A0000030A10094
:1000E0005008A3004F08A20088314D208031200025
:1000F0002108D0002008CF00380884003908850086
:100100000008D03EC200FF3003180030C300420890
:10011000CF074308D03D0130B8070030B93D38085B
:10012000840039088500000897317F278031031843
:100130006B282000380884003908850012002E3A08
:10014000031DD7280130B8070030B93DD101D201D5
:100150003808840039088500000897317F278031EE
:10016000031CE228200038088400390885000008B4
:10017000C200C3015208A1005108A0000A30A20029
:100180000030A30088314D20803120004208200734
:10019000C4004308213DC5004408D03ED100FF30D3
:1001A000453DD2000130B8070030B93DA8282000F5
:1001B000D101D201E2284816E228C030C20042082C
:1001C000C804FA2820003908C3003808C200B80A59
:1001D0000319B90A42088400430885000008D300C7
:1001E000003A0319F9296C3A0319DB28193A031963
:1001F000DD283828481E0929490886008701403F24
:10020000CA00413FCB00423FCC00433FCD00043009
:100210001729490886008701403FC200413FC300BB
:100220004208CA004308CB00CC01CD010230C20015
:100230004208C90751085204031D28294D084C04DF
:100240004B044A04031D28290130D1070030D23D58
:10025000D301D30A0A30530603195B295308C2009D
:10026000C301C235C30DC235C30D0030420784003F
:100270009030433D8500003FC400013FC500023F70
:10028000C600033FC70047084D02031D5129460819
:100290004C02031D512945084B02031D51294408F6
:1002A0004A02031C5B290130C2004208D3070A300E
:1002B0005306031D2E295208803A803C031D6229F3
:1002C0005108530203186A2920005108C20042084D
:1002D000D3007E2920005208803AC20080304202BA
:1002E000031D74295308510203187E292000530866
:1002F000C200C3014208D1004308D20020005008C8
:10030000803A803C031D86294F0853020318912927
:1003100020005308C200C3014208CF024308D03B6B
:1003200094292000CF01D0014F0850040319EE2971
:100330002030C2004E08860001308700420881004C
:100340000130C2004208CE07FF30CF07FF30D03D5A
:1003500094290030B1000030B0000030AF000A3006
:10036000AE0052088500510884008435850D84351F
:10037000850D003084079030853D003FA000013F8F
:10038000A100023FA200033FA3004D08A7004C08B4
:10039000A6004B08A5004A08A4008C314F248031E8
:1003A00020002308B5002208B4002108B30020086B
:1003B000B2008A31EE22803120002E08303EC20089
:1003C0004208D3005308C2004E088600013087005F
:1003D000420881000130C2004208CE07FF30D10739
:1003E000FF30D23D510A031DA929520A03193828AA
:1003F000A9294E0886000130870081010800CF300E
:100400002000D7004630D8004030D90004308E316B
:10041000B226813120004B08DA004C08DB004D0881
:10042000DC00873114278131200057082200A60004
:10043000200058082200A700200059082200A80028
:100440002D302100B9000130BA002330BB009830B4
:10045000BC00220026082100BD0022002708210040
:10046000BE00220028082100BF008D310725813100
:100470002200AD012D152D302000A7000130A8006D
:1004800086314C2681319731A02781310A3088315D
:10049000322081312D302100B9000130BA000C30FA
:1004A000BB009830BC0013308E31B2268131200061
:1004B0004B082100BD0020004C082100BE00200098
:1004C0004D082100BF008D31072581312200AD018B
:1004D0002D152D302000A7000130A80086314C26B4
:1004E00081319731A02781310A3088313220813122
:1004F000220097163D308E31B226813120004B0804
:10050000D7004C08D8004D08D900973169278131B0
:10051000200057082200A900200058082200AA0045
:10052000200059082200AB0000302000BB00003042
:10053000BC004030BD001230AE000330AF00403090
:10054000B000220029082000B10022002A08200063
:10055000B20022002B082000B300843164248131D2
:1005600020002E08BE002F08BF003008C0008F31C9
:100570005727813120003B082200A00020003C08C2
:100580002200A10020003D082200A200971229307D
:100590002000AE00D830AF004330B0000430BB00C4
:1005A000AD30BC00BA30BD00220020082000BE00E3
:1005B000220021082000BF00220022082000C000E5
:1005C0008F315727813120003B08B1003C08B20031
:1005D0003D08B30084316424813120002E082200BC
:1005E000A30020002F082200A400200030082200D1
:1005F000A5002D302100B9000130BA001E30BB002B
:100600009830BC00220023082100BD0022002408ED
:100610002100BE00220025082100BF008D310725E2
:1006200081312200AD012D152D302000A7000130B1
:10063000A80086314C2681319731A02781310A30BC
:100640008831322081312000A00106308831DE203F
:1006500081312100C30043082200AC002D3021006D
:10066000B9000130BA001330BB009830BC00220042
:100670002C0C0339883117208131200028082100F3
:10068000BD00200029082100BE0020002A0821000A
:10069000BF008D31072581312200AD012D152D3090
:1006A0002000A7000130A80086314C268131973107
:1006B000A02781310A308831322008002000B01094
:1006C0003008A7002708A00020308831DE208331C1
:1006D0002000AA010330AA042A08A7002708A000C6
:1006E00022308831DE208331200029088039023809
:1006F000A9002908A7002708A00025308831DE209E
:1007000083312000AC01AC12AC150630AC042C08CF
:10071000A7002708A00026308831DE208331FF3073
:100720008831FE2083312000A00101308831DE2095
:1007300083312000A7002708AE002E10AE102E1126
:10074000AE112E12AE122E08A7002708A0002130ED
:100750008831DE2083312000A0011D308831DE2069
:1007600083312000A7002708AB002B152B142B0882
:10077000A7002708A0003D308831DE20833120000B
:10078000A0011C308831DE2083312000A70027081B
:10079000AF002F14AF142F15AF152F16AF162F085B
:1007A000A7002708A0003C308831DE2083312000DC
:1007B000B101B201003032020630031931020318D0
:1007C0003A2C973161278331200031080A3E2038C6
:1007D0009731722783311D308400983085000008DE
:1007E0002000A7003108A8002808A00000308400DD
:1007F00098308500000897318E2783312000270725
:100800009731722783310030200032020230031901
:10081000310203182B2C1C3084009830850000080E
:100820009731722783311B3084009830850000088F
:100830009731722783311A30840098308500000880
:100840009731722783311930840098308500000871
:10085000973172278331973152278331013020003D
:10086000B1070030B23D00303202063003193102C8
:10087000031CE12B00308B31752383312000AD0147
:100880002D17AD162D162D08A7002708A00027301C
:100890008831DE2083312000A001E1308831DE2064
:1008A00083312000A001E2308831DE208331200036
:1008B0003014B0153015B0143008A7002708A00078
:1008C00020308831DE20080020002E08B4002F08D8
:1008D000B5003008B6000310350D360DB7003708E7
:1008E000BA003108B4003208B5003308B60003106E
:1008F000350D360DB7003708B9003A0803198C2CAE
:1009000039083A020318932C3A03FF3A3907B40026
:1009100019303402031C932C3108AE003208AF00AA
:100920003308B00008003908031908003A083902F2
:100930000318A22C3903FF3A3A07B40019303402E5
:10094000031808000630B4003408B800B01BB8170C
:10095000B31B3817AF17FF30AE05FF30AF050030BF
:10096000B005B217FF30B105FF30B2050030B30556
:1009700039083A020318DE2C0130B135B20DB30D3F
:10098000890BBD2C0130B90239083A060319D92C5C
:100990000130B802380807390319D92CBC2C0130B2
:1009A000B036AF0CAE0C890BD02C0130B40034083B
:1009B000BA073A0839060319032DCF2C3A08390231
:1009C0000318032D0130AE35AF0DB00D890BE32CAC
:1009D0000130BA0239083A060319FF2C0130B80277
:1009E000380807390319FF2CE22C0130B336B20C5A
:1009F000B10C890BF62C0130B4003408B9073A0861
:100A00003906031DF52CB81F152DFF30AE06FF303B
:100A1000AF06FF30B0060130AE07003003180130DA
:100A2000AF07003003180130B007381F272DFF3003
:100A3000B106FF30B206FF30B3060130B107003017
:100A400003180130B207003003180130B307B801B2
:100A50002E08B1072F08B23D3008B33DB31F422D19
:100A6000FF30B106FF30B206FF30B3060130B107E8
:100A7000003003180130B207003003180130B3070B
:100A8000B801B80A3108A0003208A1003308A2005A
:100A90003A08B4003408A3003808B5003508A400AB
:100AA0008C31A22420002008AE002108AF002208CB
:100AB000B00008004E302000EF006F082100B200A7
:100AC00026082000A000210027082000A100210006
:100AD00028082000A2000030A3000030A40000304D
:100AE000A5008A31342285310318A02D2D30200035
:100AF000EF002100320886000130870020006F08D7
:100B000081000130EF006F082100B20726082000A5
:100B1000D700210027082000D80021002808200045
:100B2000D900973169278531200057082100A60098
:100B3000200058082100A700200059082100A80023
:100B4000210026082000E700210027082000E800F7
:100B5000210028082000E9008D316F258531200013
:100B60006A082100B100200069082100B0002000BF
:100B700068082100AF00200067082100AE0031089E
:100B80002000AB00210030082000AA0021002F081F
:100B90002000A90021002E082000A8008931DD21B5
:100BA000853120002808BB002908BC002A08BD00A8
:100BB000210026082000BE00210027082000BF00D9
:100BC000210028082000C0008831A12085312000A4
:100BD0003B082100A60020003C082100A7002000BF
:100BE0003D082100A80026082000DA00210027087F
:100BF0002000DB00210028082000DC002430D70082
:100C00007430D8004930D90087311427853120004D
:100C10005708E7005808E8005908E9008D316F25AA
:100C2000853120006A082100AD00200069082100FC
:100C3000AC00200068082100AB00200067082100FC
:100C4000AA0001302000B8009830B9002100310816
:100C50002000BD00210030082000BC0021002F082A
:100C60002000BB0021002E082000BA0021002D0822
:100C70002000C10021002C082000C00021002B080A
:100C80002000BF0021002A082000BE0021003208F9
:100C9000803132204E300800200028082100EC006E
:100CA000200027082100EB00FF302000A9002908C0
:100CB000AD007D1C652E01302000AD020319542EBD
:100CC000A0300032890B612E592E7D1400309731EF
:100CD0005927863100308B31312386319731612796
:100CE0008631B03097317227863121006B0886003B
:100CF0006C08870001089731722786312000AD010A
:100D00009A2E2D08013EA900003003180130AA00D8
:100D1000290821006B07860020002A0821006C3D6D
:100D20008700010897317227863101302000A90021
:100D30002908AD0721006B08013E2000A900003002
:100D400021006C3D2000AA002908A0002A08A1006B
:100D50008831BF20863120002D08AB00AC0121086E
:100D60002C02031DB52E20082B020318BB2E2030A9
:100D70002D02031C812E973152278631973140274F
:100D800086313530890BC22E0000973143278631DA
:100D90000130973159278631FF302000A9002908FA
:100DA000AD007D1CDD2E01302000AD020319542E54
:100DB000A0300032890BD92ED12EFF302000A9009F
:100DC0002908AD0021006B0886006C088700011D12
:100DD000080001302000AD02031D0F2F033020005A
:100DE000AA000830A9007730890BF42EA90BF42E45
:100DF000AA0BF42E03302000AA000830A900773097
:100E0000890B002FA90B002FAA0B002F0130200007
:100E1000A3000030A4008A31AF228631542EA030C6
:100E20000032890B102FE22E20005708DD005808F1
:100E3000DE005908DF0003105E0D5F0DE000600862
:100E4000E1006108031D2B2F0030D7000030D800CF
:100E50000030D90008005A08DD005B08DE005C089D
:100E6000DF0003105E0D5F0DE0006008E60066081D
:100E7000031D412F0030D7000030D8000030D900CA
:100E8000080066087B3EDD005D08E1075708DD00CD
:100E90005808DE005908DF001030DF36DE0CDD0CAC
:100EA000890B4D2F5D08E0006008E6005A08DD0060
:100EB0005B08DE005C08DF001030DF36DE0CDD0C86
:100EC000890B5D2F5D08E0006008E6068030DD00DC
:100ED0005D08E605D817DB17FF30DA05FF30DB05C4
:100EE0000030DC050030E2000030E3000030E400B8
:100EF0000730DD005D08E500571C842F5A08E20723
:100F00005B08E33D5C08E43D0130D936D80CD70CD2
:100F1000890B852F0130DA35DB0DDC0D890B8B2F2A
:100F20000130E502031D7C2F0930DD005D08E5007E
:100F3000571CA02F5A08E2075B08E33D5C08E43D1C
:100F40000130D936D80CD70C890BA12F0130E436EB
:100F5000E30CE20C890BA72F0130E502031D982F4B
:100F60006208A0006308A1006408A2006108DD0017
:100F70005D08A3006608DE005E08A4008C31A22490
:100F800020002008D7002108D8002208D900080036
:100F90002000A900A801AA01AA012908A000013087
:100FA000A1008831BF20873120002A08A600A701B0
:100FB00021082702031DDE2F200826020318F02F28
:100FC0002A082907A60026088600013087000108A4
:100FD000A7002708A8070130A6002608AA07CD2FDA
:100FE0000630A0000030A1002808A600A7012608AE
:100FF000A2002708A3008A31072220002008080049
:101000000100080020002808A0002908A100A20172
:101010008E30AB002B08A300A4018C31A224200049
:101020002008A8002108A9002208AA000800200022
:10103000AF002F08AB00AC01AD012B08A0002C08BD
:10104000A1002D08A2008E30AE002E08A300A4013E
:101050008C31A22420002008A8002108A900220821
:10106000AA0008002000A1002108A000A00D210076
:10107000170820002006C1392006210097006300D0
:10108000000000002000031E83193F2821001708DC
:10109000C1391A389700640008002000A401A50196
:1010A000201C56282208A4072308A53D0130A2359C
:1010B000A30D890B57280130A136A00C890B5C28A1
:1010C00020082104031D50282508A1002408A000A1
:1010D000080021000C108C108E140E110E1024002C
:1010E00095123D002108E0391138A1002208E039AD
:1010F0001938A2002008E0391838A0002400151281
:101100001417F0309505951608002000A300230859
:10111000A2002208A40024088600013087002008CD
:101120008400210885000008C03F890803190800D1
:101130000130A2002208A4070130A0070030A13D21
:101140008B2820003D083C043B040319A92880306B
:10115000BD063E08AE003F08AF004008B0003B08A7
:10116000B1003C08B2003D08B30084316424200083
:101170002E08BB002F08BC003008BD00080020006E
:101180002108A5002008A40024088600250887005F
:1011900001080319D0280130A4070030A53DC42858
:1011A0002009A2002109A300A20A0319A30A240806
:1011B0002207A0002508233DA10008002000A2006E
:1011C00000309731592788319731612788312000C5
:1011D0002208973172278831200020089731722722
:1011E00088312000A1002108A000973152278831C2
:1011F0000130973159272000200808002000A50061
:1012000006302502031C0B292614A6142615A61544
:101210002616A616172926142608A300250A112922
:10122000A335890B10292308A4002408A60026084A
:10123000A3002308A00022308831DE20080020000F
:10124000AD01A91F2A29A809A909A80A0319A90AF1
:10125000AD01AD0A2808A0002908A100A2018E3026
:10126000AB002B08A3002D08AC002C08A4008C3187
:10127000A22420002008A8002108A9002208AA0012
:10128000080088316920893197314327893103303B
:101290002000B4000830B3007730890B4D29B30B20
:1012A0004D29B40B4D2983315E2389310330200051
:1012B000B4000830B3007730890B5C29B30B5C298C
:1012C000B40B5C299731402708006E290130F007E4
:1012D0000030F13D0130F3007308F207700886001A
:1012E0007108870072088400013085000003FF3A0E
:1012F0000107F3007308F4007408031D86297008C1
:101300008600710887000108031D66297408F00033
:10131000F101F01BF103080021003408B800330884
:10132000B700370886003808870001080319A52987
:101330000130B7070030B83D91290130B7070030C0
:10134000B83D0130B5070030B63D37088600380893
:10135000870035088400360885000008C03F8908EA
:10136000031908009D292300A01D0800FD1021007D
:101370006B0886006C088700011D08006B08013EA1
:10138000F70000306C3DF8007708F0007808F100B5
:10139000A130F9007908F20089316521893170089E
:1013A0007104031D080021006B0886006C0887008B
:1013B000011100308A31702208008E302000AC000C
:1013C0002C08AD00FF302B050319F2290130AB3694
:1013D000AA0CA90CA80C890BE7290130AC002C0839
:1013E000AD07E2292808A0002908A1002A08A200C8
:1013F0002D08AC002C08A300A4018C31A2242000ED
:101400002008A8002108A9002208AA00080020003E
:101410002008210403192F2AA501A50AA11B1A2AB5
:101420000130A035A10D890B112A0130A400240838
:10143000A5070E2A21082302031D202A20082202C4
:10144000031C262A2008A2022108A33B0130A13652
:10145000A00C890B272A0130A502031D1A2A230894
:10146000A1002208A00008002000A21F4B2A20098A
:10147000A6002109A7002209A800A60A0319A70AA5
:101480000319A80A00302607A0000030273DA1005C
:101490008030283DA200A51F612A2309A600240947
:1014A000A7002509A800A60A0319A70A0319A80A74
:1014B00000302607A3000030273DA4008030283DDF
:1014C000A5008030A2068030A50625082202031D53
:1014D000080024082102031D080023082002080038
:1014E000F600F10100309731E5278A31F4007408E5
:1014F000F5007508013976060319A92A97314327A3
:101500008A31E43000320032890B822A0032003204
:10151000760801397510031D75147508F4007408F8
:10152000F10020309731E5278A31E4300032003273
:10153000890B962A0032003276080319A92A9731BE
:1015400040278A31E43000320032890BA32A00326E
:101550000032760801397D11031D7D150800200039
:10156000A00106308831DE208A312000A500250840
:10157000A6002408803AA50080302502031DC22A57
:1015800001302302031CD42A2000260C0339033A1D
:101590000319D42A260C0339A500A50AA50D26088F
:1015A0002506F9392506A6002000A41FE62A260CE8
:1015B0000339003A0319E62A260C0339A500A503CE
:1015C000A50D26082506F9392506A6002608A5003A
:1015D0002508A00026308831DE20080020003108D0
:1015E00030042F042E040319282BB701B70AB11BAE
:1015F000052B0130AE35AF0DB00DB10D890BFA2AB8
:101600000130B6003608B707F72A31083502031D46
:10161000132B30083402031D132B2F083302031D34
:10162000132B2E083202031C1D2B2E08B2022F088A
:10163000B33B3008B43B3108B53B0130B136B00C98
:10164000AF0CAE0C890B1E2B0130B702031D052B0E
:101650003508B1003408B0003308AF003208AE00DE
:1016600008002000A500A00100308831DE208B3169
:101670002000A3002308A40024080139250603192B
:101680006E2B973143278B31E43000320032890BC7
:10169000452B003200322000250801392410031D9B
:1016A00024142408A3002308A00020308831DE2061
:1016B0008B31E43000320032890B5A2B0032003279
:1016C0002000250803196E2B973140278B31E43019
:1016D00000320032890B682B0032003220002508CE
:1016E00001397D11031D7D1508002000A6009731EA
:1016F00061278B313030973172278B311D30840058
:101700009830850000082000A40000308400983044
:1017100085000008A5002508A000260897318E271F
:101720008B3120002407973172278B311C308400C5
:10173000983085000008973172278B311B30840068
:10174000983085000008973172278B311A30840059
:10175000983085000008973172278B31193084004A
:10176000983085000008973172278B3197315227C6
:101770000800F10107309731E5278B31FB007B082A
:10178000FC007C0A031DC82B0230883100208B31FD
:10179000FC1ED82B7D107D19D82B21006B088600EC
:1017A0006C088700011DD82B01308A3170228B31E3
:1017B0007C1FFA2BFD18F92BFD148C3102248B3180
:1017C000F10109309731E5278B31FB002300200818
:1017D0007B06FE397B06A0007C0C0739FB00FB0E64
:1017E00020087B068F397B06A0008931B3218B311D
:1017F000FA2B7C137C08FB007B08F1002730973123
:10180000E5270800A130F0000130F1000030F200BF
:10181000F3002030F4000030F5009731B4278C310C
:101820002300A001F10160309731E5278C31F800E9
:101830007808F900FA01973143278C3197316127F5
:101840008C316130973172278C310030973172279B
:101850008C31F80078082300A0000130F902FA0169
:10186000412C0030973172278C31F8007A08A13E64
:10187000860001308700780881000130F800780880
:10188000FA0779087A020318492C20307A02031CDF
:10189000312C973152278C31973140270800003086
:1018A0002000AC000030AB000030AA000030A900DE
:1018B00023082204210420040319992CAD01AD0A48
:1018C000A31B6E2C0130A035A10DA20DA30D890B19
:1018D000632C0130A8002808AD07602C0130A93521
:1018E000AA0DAB0DAC0D890B6F2C23082702031D2D
:1018F000832C22082602031D832C21082502031DA8
:10190000832C20082402031C8E2C2008A40221080A
:10191000A53B2208A63B2308A73B29140130A33688
:10192000A20CA10CA00C890B8F2C0130AD02031D61
:101930006E2C2C08A3002B08A2002A08A10029085D
:10194000A0000800200023080319AB2C2208210462
:101950002004031DBC2C0030A0000030A10000308A
:10196000A20008000130A5002508A3070130A23617
:10197000A10CA00C890BB72CFE3022050319D52C25
:10198000B22C0130A5002508A3070130A0070030C4
:1019900003180130A107003003180130A2070130FD
:1019A000A236A10CA00C890BD02CFF302205031904
:1019B000E22CC12C0130A3020130A035A10DA20DF3
:1019C000890BDD2CA11BE82C023023020318DA2C32
:1019D0002318F02CFF30A0057F30A105FF30A205B1
:1019E0000310A30C2308A500A601A7011030A535FC
:1019F000A60DA70D890BF72C2508A0042608A10425
:101A00002708A204240803190800A21708002100CF
:101A10003908013E2000A000003021003A3D20009E
:101A2000A1000030A200A3002030A4000030A500D7
:101A30009731CC278D3121003908013EB3000030A9
:101A40003A3DB4006E08013EB5000130B600893160
:101A50008C218D3121003908013EB30000303A3D20
:101A6000B4003130B5009830B60089318C218D3109
:101A700021003908013EB30000303A3DB4003C0873
:101A8000B6003B08B50089318C218D312100390821
:101A9000013EB30000303A3DB4003130B50098301B
:101AA000B60089318C218D3121003908013EB30007
:101AB00000303A3DB4003D08A6003E08A7003F08AC
:101AC000A800C130C0004008A90085315A258D31D9
:101AD0002100B5000130B60089318C2108002000BA
:101AE0006708EB006808EC006908ED0003106C0D56
:101AF0006D0DEE006E082100A5002508031D8A2D3E
:101B000000302000EA000030E9000030E80000303A
:101B1000E700080020006708EB006808EC0069088F
:101B2000ED001730ED36EC0CEB0C890B922D6B08A9
:101B3000EE006E082100A0002000E817FF30E70546
:101B4000FF30E8050030E90567082100A10020000A
:101B500068082100A200200069082100A300A40158
:101B60008E30A502A51FD42D2508803A8F3E03187C
:101B7000C32D00302000EA000030E9000030E8000A
:101B80000030E700080001302100A436A30CA20CAD
:101B9000A10C890BC42D01302000EB006B08210043
:101BA000A5070319F02DC32D18302502031CEC2DB9
:101BB00000302000EA000030E9000030E80000308A
:101BC000E700080001302100A135A20DA30DA40DEE
:101BD000890BE32D0130A50221002508031DE22D0C
:101BE00020080319FE2DA109A209A309A409A10A2D
:101BF0000319A20A0319A30A0319A40A240820003E
:101C0000EA00210023082000E9002100220820002A
:101C1000E800210021082000E700080023008C01D3
:101C20008E0125008C018E0127008C018E0124007D
:101C30008C018E0121008E120E1220000E120B1349
:101C40008B138F3032009905F030990568302100F0
:101C5000C400E430890B2A2EC40B2A2E00002D303C
:101C60002000A0009830A10021006E08013E8831BC
:101C700085208E31893141218E3121006E08013E4F
:101C80008731C8278E312100C4004408C5004508AB
:101C90008B3175238E31210045088831FE208E312D
:101CA00021001D1020000C1221000C1624000C1223
:101CB00025000C1623000C168E1521008E1522000F
:101CC0009716171697131708FC39023897007030CB
:101CD00021009E049E1703309E041E111D08033927
:101CE0000C389D000C1510140B108C1220008C1257
:101CF0000B178B17C6302100B9000030BA0028300E
:101D0000BB009830BC006E08113E86000130870091
:101D1000403F2000A800413FA900883102208E31B9
:101D2000200028082100BD00200029082100BE0055
:101D300020002A082100BF008D3107258E312100A7
:101D4000C6014611C6302000A7000030A800863129
:101D50004C268E310A30883132208E318131FF217C
:101D60008E31AE2E2000D3000030D4000030D500DC
:101D70000030D600E830D1000330D2005308CE0046
:101D8000CE0DCE0D21001D0820004E0603394E0653
:101D900021009D002200971721001D14003088317A
:101DA00032208E3100302100EA000030E90000309E
:101DB000E8000030E70001302000D1020030D23BC3
:101DC000510A0319520A0319202F01302100E70795
:101DD0000030E83D0030E93D0030EA3D9D1421002F
:101DE0009D1CF72E0030883132208E31EF2E1C08DA
:101DF0002000CE00CF014E08CF00CE014E082100BA
:101E00001B042000A8004F08A90089311F218E3132
:101E100020002808AE002908AF002A08B0005408A6
:101E2000B1005508B2005608B300843164248E31E5
:101E300020002E08D4002F08D5003008D600DB2E55
:101E40002200971321001D1000302000BB007A30C3
:101E5000BC004430BD005408BE005508BF00560801
:101E6000C0008F3157278E3120003B08D4003C083A
:101E7000D5003D08D6000030BB00FA30BC0043302E
:101E8000BD005408BE005508BF005608C0008F3181
:101E9000572720003B08D4003C08D5003D08D60059
:101EA0005408CB005508CC005608CD00080020008F
:101EB0003E08C1003F08C2004008C3000310420DA5
:101EC000430DC4004408C9004908031D6E2F0030AB
:101ED000BB000030BC000030BD0008003B08C10062
:101EE0003C08C2003D08C3000310420D430DC4006E
:101EF0004408CA004A08031D842F0030BB0000308C
:101F0000BC000030BD0008000030C6000030C70033
:101F10000030C80089304A07C1004108C9023E08A4
:101F2000C1003F08C2004008C3001030C336C20CD5
:101F3000C10C890B962F4108C4004408CA003B0815
:101F4000C1003C08C2003D08C3001030C336C20CBB
:101F5000C10C890BA62F4108C4004408CA06803072
:101F6000C1004108CA05BF17FF30BE05FF30BF05DD
:101F70000030C005BC17FF30BB05FF30BC0500308A
:101F8000BD051830C1004108C5000130C635C70D78
:101F9000C80D890BC62F3D084002031DD52F3C08F4
:101FA0003F02031DD52F3B083E02031CDE2F3B08DA
:101FB000BE023C08BF3B3D08C03B46140130BE3565
:101FC000BF0DC00D890BDF2F0130C502031DC52FCA
:101FD0004608A0004708A1004808A2004908C1001F
:101FE0004108A3004A08C2004208A4008C31A22480
:101FF00020002008BB002108BC002208BD0008000A
:1020000001340034003400340A3400340034003425
:102010006434003400340034E834033400340034D1
:102020001034273400340034A034863401340034B2
:10203000403442340F3400348034963498340034C1
:102040000034E134F53405340034CA349A343B3476
:102E7E00C13420000C14080020000C1008002000A3
:102E8E008C14080020008C100800640080010131B1
:102E9E00890B4D2F00341A30890B532F0032973186
:102EAE0046270800F000700C2100031C10100318B8
:102EBE00101408009731492797311A30890B652F66
:102ECE00003208002000590858045704031908005E
:102EDE008030D9060800F000700824009100200010
:102EEE000E16240014187D2F0000782F11080800EC
:102EFE002000A100A0013A30210203188C2F30309F
:102F0E002102031C8C2FA001A00A200C0800200017
:102F1E00A300A201231C972F2008A1002108A207BD
:102F2E000310A00D0310A30C2308031D912F2208DC
:102F3E0008008031022097312000A7002708A80042
:102F4E002808860001308700811C0800FF30A3008E
:102F5E00FF30A4008A31AF2208007108F700700814
:102F6E00F6000130F4020030F53B740A0319750ABD
:102F7E00031908007608860077088700720881001A
:102F8E000130F6070030F73DB82F20002108A700CA
:102F9E002008A6000130A4020030A53B240A031924
:102FAE00250A03190800260886002708870022082C
:102FBE0081000130A6070030A73DD12FF30000306D
:102FCE009731592797319731612797317308973188
:102FDE00722797317108973172279731F200720874
:102FEE00F1009731522797310130973159277108E7
:102FFE000800213425346C3475342E34253436349F
:10300E002E3436346C347534003441344E344334FB
:10301E0033346D34563400345234463450345734CD
:10302E0052340034AD3487346634BC34BB3454343B
:10303E0045344D34503400345634423441345434D3
:10304E00003442344F344F34543400345534483401
:08305E00313400342F3400343A
:020000040001F9
:08000E008CFF3DFFFFFFFFFF27
:00000001FF
