:020000040000FA
:0400000080310F2814
:100008007E1480312000101C0D288A3145222000E2
:1000180010107E1009008031112821008731FF2738
:100028008031EB00FD01E701E801E901EA01513007
:100038008400013085001530953125258031A030A8
:1000480084000130850042309531252580312030EB
:100058008400023085001C30953125257E10200053
:100068008B31972B2000CE003A30C2004208C900DD
:100078003908C3003808C200B80A0319B90A420887
:100088008400430885000008C4004408D3005308CE
:100098000319FD292530530603195F285308C200A8
:1000A8004E08860001308700420881000130C200F6
:1000B8004208CE073C28CF01D001C8013808840087
:1000C800390885000008953158258031031C9D2882
:1000D8002000CF01D0010A302000A0000030A1008C
:1000E8005008A3004F08A2008731E3278031200081
:1000F8002108D0002008CF0038088400390885007E
:100108000008D03EC200FF3003180030C300420888
:10011800CF074308D03D0130B8070030B93D380853
:100128008400390885000008953158258031031866
:100138006F282000380884003908850012002E3AFC
:10014800031DDB280130B8070030B93DD101D201C9
:100158003808840039088500000895315825803111
:10016800031CE628200038088400390885000008A8
:10017800C200C3015208A1005108A0000A30A20021
:100188000030A3008731E327803120004208200790
:10019800C4004308213DC5004408D03ED100FF30CB
:1001A800453DD2000130B8070030B93DAC282000E9
:1001B800D101D201E6284816E628C030C20042081C
:1001C800C804FE2820003908C3003808C200B80A4D
:1001D8000319B90A42088400430885000008D300BF
:1001E800003A0319FD296C3A0319DF28193A031953
:1001F800E1283C28481E0D29490886008701403F10
:10020800CA00413FCB00423FCC00433FCD00043001
:100218001B29490886008701403FC200413FC300AF
:100228004208CA004308CB00CC01CD010230C2000D
:100238004208C90751085204031D2C294D084C04D3
:100248004B044A04031D2C290130D1070030D23D4C
:10025800D301D30A0A30530603195F295308C20091
:10026800C301C235C30DC235C30D00304207840037
:100278009830433D8500003FC400013FC500023F60
:10028800C600033FC70047084D02031D552946080D
:100298004C02031D552945084B02031D55294408E6
:1002A8004A02031C5F290130C2004208D3070A3002
:1002B8005306031D32295208803A803C031D6629E3
:1002C8005108530203186E2920005108C200420841
:1002D800D300822920005208803AC20080304202AE
:1002E800031D782953085102031882292000530856
:1002F800C200C3014208D1004308D20020005008C0
:10030800803A803C031D8A294F0853020318952917
:1003180020005308C200C3014208CF024308D03B63
:1003280098292000CF01D0014F0850040319F22961
:100338002030C2004E088600013087004208810044
:100348000130C2004208CE07FF30CF07FF30D03D52
:1003580098290030B1000030B0000030AF000A30FA
:10036800AE0052088500510884008435850D843517
:10037800850D003084079830853D003FA000013F7F
:10038800A100023FA200033FA3004D08A7004C08AC
:10039800A6004B08A5004A08A4008931F221803143
:1003A80020002308B5002208B4002108B300200863
:1003B800B2008831E320803120002E08303EC20090
:1003C8004208D3005308C2004E0886000130870057
:1003D800420881000130C2004208CE07FF30D10731
:1003E800FF30D23D510A031DAD29520A03193C289A
:1003F800AD294E088600013087008101080035309C
:1004080084009830850000082000A80021006708B3
:100418000F3920002806031D642A00309731D4279D
:10042800823195313A258231B03095314B25823170
:100438002300410895314B2582312000AB01322A37
:100448002B08C23E860001308700010895314B25F4
:10045800823101302000A8002808AB07C230A00074
:100468000130A10096318926823120002B08A8008E
:10047800A90121082902031D432A2008280203187C
:10048800492A20302B02031C242A95312B2582313E
:10049800363084009830850000082000A80021002C
:1004A800670820002806F03928062100E700953162
:1004B800192582312030890B5F2A95311C2582311C
:1004C800393084009830850000082000A8002100F9
:1004D800670E0F3920002806031DF12AA130A0005D
:1004E8000130A1000030A200A3002030A400003099
:1004F800A5009531AB2582312300A0012000A00181
:1005080060309631A82682312000A8002808AA0069
:1005180095311C25823195313A25823161309531EA
:100528004B258231003095314B2582312000A800BF
:1005380028082300A00001302000AA02AB01B52A38
:10054800003095314B2582312000A8002B08A13EB0
:10055800860001308700280881000130A80028089B
:10056800AB072A082B020318BD2A20302B02031CD4
:10057800A42A95312B258231953119258231210004
:10058800680C07392000A800A80E230020082000C6
:1005980028068F3928062300A0002000A001093072
:1005A8009631A82682312000A800230020082000C8
:1005B8002806FE3928062300A0003A308400983027
:1005C800850000082000A800A80E21006708200068
:1005D80028060F3928062100E7003A3084009830B1
:1005E800850000082000A8002100670E0F392000B0
:1005F8002806031D3F2B2300A01D3F2B3730840006
:100608009830850000082000A800210067080F39ED
:1006180020002806031D3F2BC230A8002808A00090
:10062800A130973181278231200020082104031D41
:100638003F2B34308400983085000008A800210042
:10064800670820002806F03928062100E70038301E
:1006580084009830850000082000A800A80E21001A
:100668006708200028060F3928062100E700003017
:100678009731D42782313A308400983085000008B9
:100688002000A8002100670E0F3920002806031D4E
:10069800562B01302200D1070030D23D0030D33D27
:1006A8000030D43D373084009830850000082000A1
:1006B800A800210067080F3920002806031D08003C
:1006C80001302100EA026A0A031D0800353084005F
:1006D8009830850000082000A80021006708200045
:1006E8002806F03928062100E700080022005408EF
:1006F8002000AB00220053082000AA002200520864
:100708002000A900220051082000A8009731AA273C
:100718008331200028082200A60020002908220092
:10072800A70020002A082200A80030302100B900C4
:100738000130BA005030BB009830BC0022002608B7
:100748002100BD00220027082100BE002200280841
:100758002100BF008B310D238331CF302000D7001B
:100768004630D8004030D90004308C31C924833158
:1007780020004B08DA004C08DB004D08DC0087310C
:100788002F278331200057082200A900200058088D
:100798002200AA00200059082200AB0030302100B6
:1007A800B9000130BA005A30BB009830BC002200B2
:1007B80029082100BD0022002A082100BE002200CD
:1007C8002B082100BF008B310D23833130302100ED
:1007D800B9000130BA003E30BB009830BC0013307D
:1007E8008C31C924833120004B082100BD00200032
:1007F8004C082100BE0020004D082100BF008B31AD
:100808000D238331220097163D308C31C924833162
:1008180020004B08D7004C08D8004D08D900953166
:1008280042258331200057082200AC0020005808D8
:100838002200AD00200059082200AE000030200040
:10084800BB000030BC004030BD001230AE000330A9
:10085800AF004030B00022002C082000B100220078
:100868002D082000B20022002E082000B3008F318E
:100878000A27833120002E08BE002F08BF00300849
:10088800C0008D316F25833120003B082200A00075
:1008980020003C082200A10020003D082200A20000
:1008A8009712A9302000AE00D130AF004330B0001D
:1008B8000430BB00AD30BC00BA30BD0022002008B7
:1008C8002000BE00220021082000BF0022002208CC
:1008D8002000C0008D316F25833120003B08B10016
:1008E8003C08B2003D08B3008F310A27833120004D
:1008F8002E082200A30020002F082200A4002000B8
:1009080030082200A50030302100B9000130BA00BB
:100918005530BB009830BC00220023082100BD00E0
:10092800220024082100BE00220025082100BF0063
:100938008B310D2383312000A00106309631A82683
:1009480083312100C30043082200AF00303021006A
:10095800B9000130BA004530BB009830BC00220015
:100968002F0C03399531F9258331200028082100FF
:10097800BD00200029082100BE0020002A0821000F
:10098800BF008B310D230800353084009830850076
:100998000008F800210067080F397806031D212D8B
:1009A800003097310B27843195313A258431B030A6
:1009B80095314B2584312300410895314B258431ED
:1009C800FB01F32C7B08C23E86000130870001083A
:1009D80095314B2584310130F8007808FB07C23087
:1009E800F0000130F10096312F2684317B08F800A1
:1009F800F90171087902031D032D700878020318A4
:100A0800092D20307B02031CE62C95312B258431DF
:100A180036308400983085000008F8002100670807
:100A28007806F0397806E7009531192584312030A9
:100A3800890B1C2D95311C25843139308400983060
:100A480085000008F8002100670E0F397806031D9D
:100A58009D2DA130F0000130F1000030F200F300CC
:100A68002030F4000030F5009531932584312300BF
:100A7800A001F10160309531DE258431F800780855
:100A8800FA0095311C25843195313A25843161303D
:100A980095314B258431003095314B258431F80050
:100AA80078082300A0000130FA02FB016B2D00300A
:100AB80095314B258431F8007B08A13E8600013032
:100AC8008700780881000130F8007808FB077A0869
:100AD8007B020318732D20307B02031C5B2D95319C
:100AE8002B2584319531192584312100680C07396B
:100AF800F800F80E2300200878068F397806A00041
:100B0800F10109309531DE258431F80023002008F1
:100B18007806FE397806A0003A30840098308500BF
:100B28000008F800F80E2100670878060F397806E3
:100B3800E7003A308400983085000008F800670E16
:100B48000F397806031DDF2D2300A01DDF2D373058
:100B58008400983085000008F800210067080F39E4
:100B68007806031DDF2DC230F8007808F000A130A8
:100B780097315927843170087104031DDF2D3430F3
:100B88008400983085000008F8002100670878067E
:100B9800F0397806E700383084009830850000087E
:100BA800F800F80E670878060F397806E700003075
:100BB80097310B2784313A3084009830850000083B
:100BC800F8002100670E0F397806031DF42D013057
:100BD8002200D1070030D23D0030D33D0030D43D53
:100BE80037308400983085000008F8002100670835
:100BF8000F397806031D08000130EA026A0A031D4E
:100C0800080035308400983085000008F80067082F
:100C18007806F0397806E70008002000A0010030C7
:100C28009631A82686312000A70027082100E90070
:100C3800E91069082000A7002708A0002030963195
:100C4800A82686312000AA010330AA042A08A70092
:100C58002708A00023309631A826863120002908CD
:100C680080390238A9002908A7002708A0002530E4
:100C78009631A82686312000AC01AC12AC1506309E
:100C8800AC042C08A7002708A00026309631A82617
:100C98008631FF309631C82686312000A001013008
:100CA8009631A82686312000A7002708AD002D1010
:100CB800AD102D11AD112D12AD122D08A70027086A
:100CC800A00021309631A82686312000A0011D30D1
:100CD8009631A82686312000A7002708AB002B15DF
:100CE8002B142B08A7002708A0003D309631A82612
:100CF80086312000A0011C309631A82686312000BC
:100D0800A7002708AE002E14AE142E15AE152E1609
:100D1800AE162E08A7002708A0003C309631A8265A
:100D280086312000AF01B0010030300206300319CF
:100D38002F020318F82E95313A25863120002F0806
:100D48000A3E203895314B2586314F308400983043
:100D5800850000082000A7002F08A8002808A00088
:100D680028308400983085000008883100208631BA
:100D78002000270795314B258631003020003002AE
:100D8800023003192F020318E92E4E3084009830E0
:100D98008500000895314B2586314D308400983008
:100DA8008500000895314B2586314C3084009830F9
:100DB8008500000895314B2586314B3084009830EA
:100DC8008500000895314B25863195312B258631D4
:100DD80001302000AF070030B03D0030300206304F
:100DE80003192F02031C9F2E003089316921863197
:100DF8002100E8016817E816681668082000A700AF
:100E08002708A00027309631A82686312000A001A7
:100E180007309631A82686312000A7002708210030
:100E2800E8002000A001E1309631A8268631200094
:100E3800A001E2309631A826863121006910E91513
:100E48006915E91469082000A7002708A0002030C8
:100E58009631A826080020005708DD005808DE0053
:100E68005908DF0003105E0D5F0DE0006008E10027
:100E78006108031D462F0030D7000030D80000302D
:100E8800D90008005A08DD005B08DE005C08DF00B6
:100E980003105E0D5F0DE0006008E6006608031DA4
:100EA8005C2F0030D7000030D8000030D90008008F
:100EB80066087B3EDD005D08E1075708DD0058083D
:100EC800DE005908DF001030DF36DE0CDD0C890B40
:100ED800682F5D08E0006008E6005A08DD005B083E
:100EE800DE005C08DF001030DF36DE0CDD0C890B1D
:100EF800782F5D08E0006008E6068030DD005D08B8
:100F0800E605D817DB17FF30DA05FF30DB050030C0
:100F1800DC050030E2000030E3000030E400073078
:100F2800DD005D08E500571C9F2F5A08E2075B08A3
:100F3800E33D5C08E43D0130D936D80CD70C890B69
:100F4800A02F0130DA35DB0DDC0D890BA62F01301F
:100F5800E502031D972F0930DD005D08E500571CE9
:100F6800BB2F5A08E2075B08E33D5C08E43D01300B
:100F7800D936D80CD70C890BBC2F0130E436E30CDA
:100F8800E20C890BC22F0130E502031DB32F620862
:100F9800A0006308A1006408A2006108DD005D08E4
:100FA800A3006608DE005E08A4008A31A82220009B
:100FB8002008D7002108D8002208D90008002000FE
:100FC800A401A501201CEC2F2208A4072308A53D95
:100FD8000130A235A30D890BED2F0130A136A00CED
:100FE800890BF22F20082104031DE62F2508A100F4
:100FF8002408A000080020342000A300A201231C1C
:1010080009282008A1002108A2070310A00D031039
:10101800A30C2308031D0328220808002000200829
:10102800210403193A28A501A50AA11B2528013086
:10103800A035A10D890B1C280130A4002408A507A0
:10104800192821082302031D2B2820082202031C2B
:1010580031282008A2022108A33B0130A136A00CA8
:10106800890B32280130A502031D25282308A10079
:101078002208A00008002000A4011330240203184D
:1010880068282108A3002008A200240A4D28A336B6
:10109800A20C890B4B28221C5F282408A200A20D51
:1010A8002100170820002206C139220621009700D6
:1010B80063000000000001302000A2002208A407FD
:1010C80013302402031C452821001708C1391A3897
:1010D8009700640008002000A900A801AA01AA013D
:1010E8002908A0000230A100963189268831200005
:1010F8002A08A600A70121082702031D8528200821
:101108002602031897282A082907A6002608860019
:10111800023087000108A7002708A8070130A600A9
:101128002608AA0774280630A0000030A100280865
:10113800A600A7012608A2002708A30088311220CC
:101148002000200808002000A21FBE282009A600B1
:101158002109A7002209A800A60A0319A70A03194A
:10116800A80A00302607A0000030273DA1008030E3
:10117800283DA200A51FD4282309A6002409A700FA
:101188002509A800A60A0319A70A0319A80A003006
:101198002607A3000030273DA4008030283DA50085
:1011A8008030A2068030A50625082202031D08000B
:1011B80024082102031D080023082002080020003B
:1011C800310830042F042E0403191D29B701B70A6A
:1011D800B11BFA280130AE35AF0DB00DB10D890B3A
:1011E800EF280130B6003608B707EC283108350279
:1011F800031D082930083402031D08292F0833026B
:10120800031D08292E083202031C12292E08B202D7
:101218002F08B33B3008B43B3108B53B0130B13639
:10122800B00CAF0CAE0C890B13290130B702031DAB
:10123800FA283508B1003408B0003308AF00320886
:10124800AE00080096316B26893195311C2589310D
:1012580003302000B2000830B1007730890B322902
:10126800B10B3229B20B322986311126893103306C
:101278002000B2000830B1007730890B4129B10B4A
:101288004129B20B41299531192534308400983011
:10129800850000082000B100210067082000310601
:1012A800F03931062100E700383084009830850095
:1012B80000082000B100B10E2100670820003106A7
:1012C8000F3931062100E70008002000A6009531FB
:1012D8003A258931303095314B2589314F3084009A
:1012E8009830850000082000A40028308400983039
:1012F80085000008A5002508A000260888310020E0
:1013080089312000240795314B2589314E308400DE
:1013180098308500000895314B2589314D3084007F
:1013280098308500000895314B2589314C30840070
:1013380098308500000895314B2589314B30840061
:1013480098308500000895314B25893195312B253A
:101358000800C2302000A0000130A1002C08013E86
:10136800AE0000302D3DAF002E08A2002F08A300CC
:1013780096311426893120002C0886002D08870014
:101388000108AE002E082300C100353084009830D3
:10139800850000082000AE002100670820002E0606
:1013A800F0392E062100E70034308400983085009B
:1013B80000082000AE00210067080F3920002E0623
:1013C800031908000A302000A0000030A10088316D
:1013D8003F208931823103228931D8290030200009
:1013E800AC000030AB000030AA000030A900230890
:1013F80022042104200403193C2AAD01AD0AA31BD1
:10140800112A0130A035A10DA20DA30D890B062AC2
:101418000130A8002808AD07032A0130A935AA0D14
:10142800AB0DAC0D890B122A23082702031D262AAF
:1014380022082602031D262A21082502031D262A22
:1014480020082402031C312A2008A4022108A53BF5
:101458002208A63B2308A73B29140130A336A20C77
:10146800A10CA00C890B322A0130AD02031D112AF0
:101478002C08A3002B08A2002A08A1002908A00014
:101488000800F10107309531DE258A31FC007C081F
:101498002100E800E81E812A363084009830850053
:1014A8000008FC0067080F397C06031D802A23000A
:1014B800411D732A37308400983085000008FC00ED
:1014C800210067087C06F0397C06E700FF30FC0045
:1014D8007C08EA00013097310B278A31812A3430A1
:1014E8008400983085000008FC00210067087C060D
:1014F800F0397C06E700812AE8122100681F9D2A3E
:1015080038308400983085000008FC00670E0F39D9
:101518007C06031D9C2A3930840098308500000819
:10152800FC00FC0E67087C060F397C06E7009D2A44
:1015380068136808FC007C08F10027309531DE2527
:101548008A318431C8240800200023080319B12AED
:10155800220821042004031DC22A0030A000003004
:10156800A1000030A20008000130A5002508A3074B
:101578000130A236A10CA00C890BBD2AFE30220531
:101588000319DB2AB82A0130A5002508A307013072
:10159800A007003003180130A107003003180130FC
:1015A800A2070130A236A10CA00C890BD62AFF3065
:1015B80022050319E82AC72A0130A3020130A03501
:1015C800A10DA20D890BE32AA11BEE2A02302302EA
:1015D8000318E02A2318F62AFF30A0057F30A1055A
:1015E800FF30A2050310A30C2308A500A601A7013C
:1015F8001030A535A60DA70D890BFD2A2508A004D6
:101608002608A1042708A204240803190800A21721
:10161800080021003908013E2000A0000030210008
:101628003A3D2000A1000030A200A3002030A40011
:101638000030A5009531AB258B3121003908013EDA
:101648002000A000003021003A3D2000A100210028
:101658006B08013E2000A2000230A3009631142638
:101668008B3121003908013EB30000303A3DB40007
:101678006830B5009830B600973132278B31210099
:101688003908013EB30000303A3DB4003C08B600CA
:101698003B08B500973132278B3121003908013ECC
:1016A800B30000303A3DB4006830B5009830B60059
:1016B800973132278B3121003908013EB3000030C1
:1016C8003A3DB4003D08A6003E08A7003F08A80020
:1016D800C130C0004008A9008E3118268B31210086
:1016E800B5000130B600973132278B312100390817
:1016F80086003A0887008101390886003A08870081
:1017080001153A082000AD00210039082000AC007E
:101718008931AD218B3188302000A5001330A60017
:101728009531C425080023008C018E0125008C0109
:101738008E0127008C018E0124008C018E0121006E
:101748008E120E1220000E120B138B138F303200E4
:101758009905F030990568302100C400E430890B00
:10176800B32BC40BB32B000021006B08013E2000F3
:10177800A0000230A1006430A2009830A300963186
:1017880014268B31893126218B3121006B08013ECB
:1017980088316F208B312100C4004408C5004508FA
:1017A800893169218B3121001D1020000C12210084
:1017B8000C1624000C1225000C1623000C168E158E
:1017C80021008E1522009716171697131708FC3953
:1017D80002389700703021009E049E1703309E0443
:1017E8001E111D0803390C389D000C1510140B1020
:1017F8008C1220008C120B178B17C6302100B900F1
:101808000030BA005F30BB009830BC006B08113E56
:10181800860002308700403F2000A800413FA90011
:10182800953167258B31200028082100BD00200054
:1018380029082100BE0020002A082100BF008B31A2
:101848000D238B3183317A238B31262C20006708B6
:10185800EB006808EC006908ED0003106C0D6D0DD5
:10186800EE006E082100A5002508031D452C003058
:101878002000EA000030E9000030E8000030E7000E
:10188800080020006708EB006808EC006908ED0014
:101898001730ED36EC0CEB0C890B4D2C6B08EE0079
:1018A8006E082100A0002000E817FF30E705FF3090
:1018B800E8050030E90567082100A1002000680854
:1018C8002100A200200069082100A300A4018E3095
:1018D800A502A51F8F2C2508803A8F3E03187E2C61
:1018E80000302000EA000030E9000030E800003055
:1018F800E700080001302100A436A30CA20CA10CBB
:10190800890B7F2C01302000EB006B082100A50714
:101918000319AB2C7E2C18302502031CA72C003091
:101928002000EA000030E9000030E8000030E7005D
:10193800080001302100A135A20DA30DA40D890BCB
:101948009E2C0130A50221002508031D9D2C20088E
:101958000319B92CA109A209A309A409A10A031909
:10196800A20A0319A30A0319A40A24082000EA00FA
:10197800210023082000E900210022082000E800B7
:10198800210021082000E70008002000D3000030D3
:10199800D4000030D5000030D600E830D100033044
:1019A800D2005308CE00CE0DCE0D21001D08200018
:1019B8004E0603394E0621009D002200971721008C
:1019C8001D14003095317C258C3101302000D10266
:1019D8000030D23B510A0319520A0319262D21005F
:1019E8009D1421009D1CFD2C003095317C258C31E7
:1019F800F52C1C082000CE00CF014E08CF00CE01E8
:101A08004E0821001B042000A8004F08A9009631A9
:101A1800E9268C3120002808AE002908AF002A08E2
:101A2800B0005408B1005508B2005608B3008F3111
:101A38000A278C3120002E08D4002F08D500300842
:101A4800D600E92C2200971321001D100030200039
:101A5800BB007A30BC004430BD005408BE005508B5
:101A6800BF005608C0008D316F258C3120003B081F
:101A7800D4003C08D5003D08D60021001E080339D3
:101A8800033A0319602D672D00302000BB00FA309F
:101A9800BC004330BD005408BE005508BF005608BE
:101AA800C0008D316F258C3120003B08D4003C08E4
:101AB800D5003D08D600672D220017080339023AE1
:101AC8000319482D672D20005408CB005508CC0079
:101AD8005608CD00080020003E08C1003F08C2009B
:101AE8004008C3000310420D430DC4004408C90058
:101AF8004908031D862D0030BB000030BC000030B3
:101B0800BD0008003B08C1003C08C2003D08C300F6
:101B18000310420D430DC4004408CA004A08031DBF
:101B28009C2D0030BB000030BC000030BD00080018
:101B38000030C6000030C7000030C80089304A07AE
:101B4800C1004108C9023E08C1003F08C200400860
:101B5800C3001030C336C20CC10C890BAE2D41082E
:101B6800C4004408CA003B08C1003C08C2003D0844
:101B7800C3001030C336C20CC10C890BBE2D4108FE
:101B8800C4004408CA068030C1004108CA05BF170E
:101B9800FF30BE05FF30BF050030C005BC17FF3061
:101BA800BB05FF30BC050030BD051830C100410839
:101BB800C5000130C635C70DC80D890BDE2D3D089F
:101BC8004002031DED2D3C083F02031DED2D3B088F
:101BD8003E02031CF62D3B08BE023C08BF3B3D08F5
:101BE800C03B46140130BE35BF0DC00D890BF72D23
:101BF8000130C502031DDD2D4608A0004708A100DD
:101C08004808A2004908C1004108A3004A08C200C8
:101C18004208A4008A31A82220002008BB0021081D
:101C2800BC002208BD00080055302000EF006F08F6
:101C38002100B20026082000A0002100270820006B
:101C4800A100210028082000A2000030A3000030D5
:101C5800A4000030A5008831A7208E3103185E2E1D
:101C68002D302000EF002100320886000130870067
:101C780020006F0881000130EF006F082100B207D3
:101C880026082000D700210027082000D8002100BE
:101C980028082000D900953142258E3120005708A8
:101CA8002100A600200058082100A700200059089C
:101CB8002100A800210026082000E70021002708AD
:101CC8002000E800210028082000E9008C312A249F
:101CD8008E3120006A082100B10020006908210027
:101CE800B000200068082100AF002000670821002C
:101CF800AE0031082000AB00210030082000AA0007
:101D080021002F082000A90021002E082000A8008B
:101D18009731AA278E3120002808BB002908BC006B
:101D28002A08BD00210026082000BE00210027083F
:101D38002000BF00210028082000C00096314D2651
:101D48008E3120003B082100A60020003C0821001D
:101D5800A70020003D082100A80026082000DA007E
:101D6800210027082000DB00210028082000DC00D3
:101D78002430D7007430D8004930D90087312F2754
:101D88008E3120005708E7005808E8005908E90094
:101D98008C312A248E3120006A082100AD002000F1
:101DA80069082100AC00200068082100AB00200071
:101DB80067082100AA0029302000B8009830B9002F
:101DC800210031082000BD00210030082000BC009F
:101DD80021002F082000BB0021002E082000BA0097
:101DE80021002D082000C10021002C082000C0007F
:101DF80021002B082000BF0021002A082000BE0077
:101E080021003208803136205530080020002E0885
:101E1800B4002F08B5003008B6000310350D360D94
:101E2800B7003708BA003108B4003208B5003308E3
:101E3800B6000310350D360DB7003708B9003A085B
:101E48000319322F39083A020318392F3A03FF3A97
:101E58003907B40019303402031C392F3108AE0099
:101E68003208AF003308B000080039080319080029
:101E78003A0839020318482F3903FF3A3A07B400E1
:101E880019303402031808000630B4003408B800CA
:101E9800B01BB817B31B3817AF17FF30AE05FF30AC
:101EA800AF050030B005B217FF30B105FF30B205FD
:101EB8000030B30539083A020318842F0130B135D0
:101EC800B20DB30D890B632F0130B90239083A06F8
:101ED80003197F2F0130B8023808073903197F2FFB
:101EE800622F0130B036AF0CAE0C890B762F013063
:101EF800B4003408BA073A0839060319A92F752F10
:101F08003A0839020318A92F0130AE35AF0DB00DCC
:101F1800890B892F0130BA0239083A060319A52F0F
:101F28000130B802380807390319A52F882F013066
:101F3800B336B20CB10C890B9C2F0130B4003408B5
:101F4800B9073A083906031D9B2FB81FBB2FFF306E
:101F5800AE06FF30AF06FF30B0060130AE070030E6
:101F680003180130AF07003003180130B007381FDD
:101F7800CD2FFF30B106FF30B206FF30B306013077
:101F8800B107003003180130B207003003180130E0
:101F9800B307B8012E08B1072F08B23D3008B33D8A
:101FA800B31FE82FFF30B106FF30B206FF30B3068B
:101FB8000130B107003003180130B20700300318B0
:101FC8000130B307B801B80A3108A0003208A100EF
:101FD8003308A2003A08B4003408A3003808B50052
:101FE8003508A4008A31A82220002008AE00210864
:081FF800AF002208B000080050
:102A320020000C14080020000C10080020008C1448
:102A4200080020008C100800640080010131890B0D
:102A5200262D00341A30890B2C2D003295311F257A
:102A62000800F000700C2100031C10100318101451
:102A720008009531222595311A30890B3E2D0032FE
:102A82000800200059085804570403190800803030
:102A9200D9060800F00070082400910020000E16EC
:102AA20024001418562D0000512D11080800200092
:102AB200A100A0013A3021020318652D3030210215
:102AC200031C652DA001A00A200C08002000280884
:102AD200A0002908A100A2018E30AB002B08A300A0
:102AE200A4018A31A82220002008A8002108A900F8
:102AF2002208AA0008002000A1002108A000A00DC1
:102B02002100170820002006C13920062100970065
:102B120063000000000021001708C1391A3897002D
:102B2200640008007108F7007008F6000130F40232
:102B32000030F53B740A0319750A03190800760878
:102B4200860077088700720881000130F60700309E
:102B5200F73D972D20002108A7002008A60001308C
:102B6200A4020030A53B240A0319250A0319080010
:102B72002608860027088700220881000130A60760
:102B82000030A73DB02D20002608A1002508A00096
:102B920088313F200800073095317C259531073078
:102BA20095317C25953101302000A5020030A63BED
:102BB2002508260403190800CC2DF30000309531B6
:102BC2003225953195313A259531730895314B254A
:102BD2009531710895314B259531F2007208F1005B
:102BE20095312B2595310130953132257108080038
:102BF2002000AF002F08AB00AC01AD012B08A000F4
:102C02002C08A1002D08A2008E30AE002E08A300D1
:102C1200A4018A31A82220002008A8002108A900C6
:102C22002208AA00080020002108A5002008A4000C
:102C320024088600250887002208840023088500CE
:102C42000008C03F8908031908000130A4070030BA
:102C5200A53D0130A2070030A33D192E7108F500F1
:102C62007008F400740886007508870001080319CB
:102C72003F2E0130F4070030F53D332E7009F2008B
:102C82007109F300F20A0319F30A74087207F000DB
:102C92007508733DF100080020003D083C043B0428
:102CA2000319552E8030BD063E08AE003F08AF0026
:102CB2004008B0003B08B1003C08B2003D08B30038
:102CC2008F310A2720002E08BB002F08BC003008D5
:102CD200BD00080021000C108C108E140E110E1075
:102CE200240095123D002108E0391138A100220884
:102CF200E0391938A2002008E0391838A000240071
:102D0200151214171508F0390138950095160800A8
:102D120020002108A5002008A40024088600250818
:102D22008700010803199A2E0130A4070030A53D3F
:102D32008E2E2009A2002109A300A20A0319A30AC8
:102D420024082207A0002508233DA1000800200036
:102D5200A200003095313225963195313A259631CF
:102D62002000220895314B2596312000200895310C
:102D72004B2596312000A1002108A00095312B257A
:102D820096310130953132252000200808002000BC
:102D9200A50006302502031CD52E2614A6142615DE
:102DA200A6152616A616E12E26142608A300250A25
:102DB200DB2EA335890BDA2E2308A4002408A600F3
:102DC2002608A3002308A00022309631A826080076
:102DD2002000AD01A91FF42EA809A909A80A031908
:102DE200A90AAD01AD0A2808A0002908A100A20184
:102DF2008E30AB002B08A3002D08AC002C08A400D9
:102E02008A31A82220002008A8002108A90022084F
:102E1200AA000800F50021006908013975060319A6
:102E2200080095311C259731750C2100031C69108F
:102E3200031869146908F4007408F1002030953110
:102E4200DE259731C0300032890B242F7508031913
:102E52000800953119259731C0300032890B2E2F89
:102E6200080021003408B8003308B700370886008C
:102E720038088700010803194B2F0130B7070030CB
:102E8200B83D372F0130B7070030B83D0130B507E4
:102E92000030B63D370886003808870035088400C0
:102EA200360885000008C03F890803190800432F2F
:102EB200F400632F0130F2007208F4070130F200CF
:102EC2007208F007740886000130870070088400D9
:102ED200013085000003FF3A0107F2007208F30097
:102EE2007308031D7B2F74088600013087000108D8
:102EF200031D5B2F7308F000F101F01BF1030800C2
:102F02002000A4008C2F0130A2002208A407013067
:102F1200A2002208A00724088600013087002008AA
:102F22008400013085000003FF3A0107A200220855
:102F3200A3002308031DA42F240886000130870064
:102F42000108031D842F2308A000A101A01BA103D7
:102F520008008E302000AC002C08AD00FF302B059D
:102F62000319BF2F0130AB36AA0CA90CA80C890B90
:102F7200B42F0130AC002C08AD07AF2F2808A000F9
:102F82002908A1002A08A2002D08AC002C08A300E1
:102F9200A4018A31A82220002008A8002108A90043
:102FA2002208AA0008002000A400210069080139B3
:102FB200200024060319080095311C2597312000B2
:102FC200240C2100031C69100318691469082000ED
:102FD200A3002308A00020309631A8269731C030E4
:102FE2000032890BF12F20002408031908009531C3
:102FF20019259731C0300032890BFC2F08000134AB
:103002000034003400340A340034003400346434B0
:10301200003400340034E834033400340034103413
:10302200273400340034A034863401340034403470
:1030320042340F34003480349634983400340034EF
:10304200E134F53405340034CA349A343B34213443
:1030520025346C3475342E34253436342E343634DB
:103062006C347534003400340134023403340034D7
:103072000134023403340434053441344E344334CD
:1030820033346D3456340034523446345034573469
:1030920052340034AD3487346634BC34BB344434E7
:1030A2004234473431340034543445344D3450348E
:1030B20000345634423441345434003442344F34B0
:1030C2004F345434003455344834313400342F34BE
:0230D2000034C8
:020000040001F9
:08000E008CFF3DFFFFFFFFFF27
:00000001FF
