:020000040000FA
:0400000080310F2814
:100008007E1480312000101C0D28853156252000D3
:1000180010107E10090080311128F901FA014930C9
:100028008400003085002430863159268031A03084
:100038008400003085002030863159267E1020004B
:100048008231592A77302000A0008630A10065301F
:100058008531CC25803120004A08BD004908BC0004
:100068000A30BE000030BF005D3083317323803119
:100078002000C901CA01CC014C108031F92080311F
:1000880086312D26803164302000A0008630A10002
:1000980065308531CC25803100302000B10000303A
:1000A800B0000930AF00C930AE0003308231EB2216
:1000B800803120002F08BD002E08BC000A30BE0089
:1000C8000030BF005D308331732380312000CC01C4
:1000D8004C108031F920803186312D2680316930ED
:1000E8002000A0008630A10065308531CC25803104
:1000F80000302000B1000030B0000930AF00C4303B
:10010800AE0007308231EB22803120002F08BD007D
:100118002E08BC000A30BE000030BF005D308331BD
:10012800732380312000CC014C108031F9208031BC
:1001380086312D26803153302000A0008630A10062
:1001480065308531CC25803100302000B100033086
:10015800B0003030AF000430AE001D308231EB22E9
:10016800803120002E08D83EBC00FF302F3DBD0056
:100178000A30BE000030BF005D3083317323803108
:100188002000CC014C108031F920803186312D2699
:1001980080313F302000A0008630A10065308531D5
:1001A800CC25803100302000B1000030B00009308B
:1001B800AF00AB30AE001F308231EB22803120001F
:1001C8002F08BD002E08BC000A30BE000030BF005A
:1001D8005D308331732380312000CC014C10803195
:1001E800F920803186312D260800200049084A046C
:1001F800031902290130C9020030CA3BFF30A600AA
:100208002608A7002000CB1C12290130A7020319D9
:1002180002294230890B0E2900320629CB140030FE
:100228008631362680310030843128248031863169
:1002380045268031B03086312226803120004C0896
:100248008631222680312000A70137292708B03EB1
:10025800860087010108863122268031013020007E
:10026800A6002608A7072708B03E860087010108D0
:100278000319422910302702031C2A292F308631FE
:10028800222680312000A70156292708653E8600CE
:100298008701010886312226803101302000A6001E
:1002A8002608A7072708653E860087010108031965
:1002B800612908302702031C49292F30863122265C
:1002C80080312000A701752927085D3E8600870137
:1002D800010886312226803101302000A600260838
:1002E800A70727085D3E86008701010803198029B2
:1002F80008302702031C682986314C2680312000EB
:100308000C141A30890B8629003220000C10013099
:10031800863136268031FF302000A6002608A70047
:100328002000CB1CA0290130A70203190229423062
:10033800890B9C2900329429FF30A6002608A700C3
:1003480020004C1C08000130A702031DB029013011
:10035800C9070030CA3D02295030890BB129A429A8
:100368002000AB102B08A3002308A0002030853103
:10037800AC25813134302000A300F130890BC2292B
:10038800A30BC22900322000A4010330A4042408CE
:10039800A3002308A00022308531AC25813120003C
:1003A800A512A5150630A5042508A3002308A0005A
:1003B80026308531AC25813120002814A814281551
:1003C800A8152816A8162808A3002308A00022307C
:1003D8008531AC2581312000A00101308531AC2563
:1003E80081312000A3002308A9002910A910291190
:1003F800A9112912A9122908A3002308A000213055
:100408008531AC2581312000A0011D308531AC2516
:1004180081312000A3002308A600261526142608EB
:10042800A3002308A0003D308531AC258131200090
:10043800A0011C308531AC2581312000A3002308A0
:10044800AA002A14AA142A15AA152A16AA162A08CE
:10045800A3002308A0003C308531AC258131200061
:10046800A7012717A71627162708A3002308A00007
:1004780027308531AC2581312000A001E13085315C
:10048800AC2581312000A001E2308531AC258131D5
:1004980020002B14AB152B15AB142B08A300230835
:1004A800A00020308531AC25080023008C018E0186
:1004B8000B138B138F30320099058F309A05F0306B
:1004C8009905F0309A0534302000C500F130890BC9
:1004D8006B2AC50B6B2A00320030853183258231A7
:1004E8002000C801103048020318952A4808C500A2
:1004F800C6014508A0004608A1008431C9248231FC
:1005080020002008C7004808B03E86008701470839
:1005180081000130C5004508C80710304802031C97
:100528007A2A220097131708FC3901389700971781
:1005380097121712971621001D1023000C16210080
:100548000C1624000C1223008E1521008E15703015
:100558009E049E17FC309E051D0803390C389D002B
:100568001D140C1510140B101708C13916389700F4
:100578008C1220008C120B178B176E30A00086305F
:10058800A10065308531CC25823110302000A000D3
:100598000030A1008431C924823120002108BD0027
:1005A8002008BC000A30BE000030BF005D30833137
:1005B800732382312000CC014C108031F920823124
:1005C80086312D268231803126208231E72A20008B
:1005D800B6000030BB000030BA000030B90000306F
:1005E800B800FF30B2003208B7003608B200B20DCA
:1005F800B20D21001D082000320603393206210001
:100608009D00A0300032890B062B01302000B70274
:100618000319332B21009D1421009D1C152B00006C
:10062800102B1B082000B200B301B401B501320839
:10063800B8073308B93D3408BA3D3508BB3D210039
:100648001C082000B200B3013208B300B20132081E
:10065800B8073308B93D0030BA3DBB3D092B00301F
:10066800A3000030A2000030A1006430A0003B08C5
:10067800A7003A08A6003908A5003808A400843164
:10068800F924823120002308BB002208BA0021087F
:10069800B9002008B8003108A3003008A2002F08CC
:1006A800A1002E08A0003B08A7003A08A6003908B8
:1006B800A5003808A4008331D52320002308BB00F7
:1006C8002208BA002108B9002008B8003B08B10088
:1006D8003A08B0003908AF003808AE00080020001A
:1006E800C4003D08C2003C08C1003F08A1003E0804
:1006F800A0004208A3004108A20084315F2483318E
:1007080020002108C2002008C1000130C0004008B4
:10071800C40741084204031D792B44088600870159
:1007280081010130C4023F08A1003E08A0003D0835
:10073800A3003C08A2008531292583312000200828
:10074800C0004008C3003F08A1003E08A0003D08C3
:10075800A3003C08A20084315F24833120002108D3
:10076800BD002008BC000A304302031CBF2B073021
:10077800C0004008C3073030C0004008C307430822
:10078800C000440886008701400881000130C40287
:100798003C083D04031D972B0130C0004008C407E6
:1007A800080000302000AC000030AB000030AA0088
:1007B8000030A900230822042104200403191F2C57
:1007C800AD01AD0AA31BF42B0130A035A10DA20D7C
:1007D800A30D890BE92B0130A8002808AD07E62BEB
:1007E8000130A935AA0DAB0DAC0D890BF52B2308EB
:1007F8002702031D092C22082602031D092C2108A3
:100808002502031D092C20082402031C142C20088F
:10081800A4022108A53B2208A63B2308A73B2914CC
:100828000130A336A20CA10CA00C890B152C0130A9
:10083800AD02031DF42B2C08A3002B08A2002A08E4
:10084800A1002908A00008002000A500A001003090
:100858008531AC2584312000A3002308A400240896
:10086800013925060319582C0C10A0300032890BC9
:100878003A2C2000250801392410031D24142408CB
:10088800A3002308A00020308531AC258431A03096
:100898000032890B4C2C200025080319582C0C1405
:1008A800A0300032890B552C200025080139CB11C6
:1008B800031DCB1508002000A501A601200821046E
:1008C80003198F2CA701A70AA11B742C0130A0358E
:1008D800A10D890B6B2C0130A4002408A707682CF4
:1008E8000130A535A60D890B752C21082302031D9F
:1008F8007F2C20082202031C862C2008A202210833
:10090800A33B25140130A136A00C890B872C01309C
:10091800A702031D742C2608A1002508A0000800C2
:10092800F600F10100308531E7258431F4007408C0
:10093800F5007508013976060319C22C20000C1041
:10094800A0300032890BA52C760801397510031DDB
:1009580075147508F4007408F10020308531E72516
:100968008431A0300032890BB62C76080319C22CCA
:1009780020000C14A0300032890BBF2C76080139F6
:100988002000CB11031DCB1508008B1331009501F6
:10099800EE302000A7001F30A80027083100910082
:1009A80020002808310092001514000000002000E3
:1009B800A501A601310013082000A200A301220806
:1009C800A5002308A600310014082000A200A301F6
:1009D8002208A300A2012208A5042308A6048B1755
:1009E8002608A1002508A000080000302000AB0060
:1009F8000030AA000030A9000030A800201C0C2DEF
:100A08002408A8072508A93D2608AA3D2708AB3DC4
:100A18000130A435A50DA60DA70D890B0D2D0130AC
:100A2800A336A20CA10CA00C890B142D23082204B8
:100A380021042004031D022D2B08A3002A08A2006C
:100A48002908A1002808A000080020002008210487
:100A58000319512DA501A50AA11B3C2D0130A03574
:100A6800A10D890B332D0130A4002408A507302DD2
:100A780021082302031D422D20082202031C482DB1
:100A88002008A2022108A33B0130A136A00C890B43
:100A9800492D0130A502031D3C2D2308A100220881
:100AA800A0000800F10107308531E7258531F700FE
:100AB8007708F8007808031D652D013086317B26FC
:100AC8008531780A031D6C2D023086317B268531ED
:100AD800F81E772D2000CB10CB1D4C1C772D013034
:100AE800843194248531781F7B2D20004B1578089C
:100AF800F7007708F10027308531E7250800200046
:100B0800AE0086311426853120000C1002302000FA
:100B1800AD000430AC00BA30890B902DAC0B902D91
:100B2800AD0B902D000020002E088131B4218531B5
:100B380002302000AD000430AC00BA30890BA22D81
:100B4800AC0BA22DAD0BA22D000020000C14080048
:100B58002000A200003086313626853186314526B0
:100B68008531200022088631222685312000200880
:100B78008631222685312000A1002108A000863177
:100B88004C268531013086313626200020080800A1
:100B98002000A4002408A2002208A300230886003D
:100BA800870120088400210885000008C03F8908C3
:100BB800031908000130A2002208A3070130A0078A
:100BC8000030A13DD22DF300003086313626853124
:100BD800863145268531730886312226853171088C
:100BE800863122268531F2007208F10086314C26C2
:100BF80085310130863136267108080055346E3447
:100C080063346F346E3466346934673475347234DF
:100C18006534643400340034003400340034003463
:100C280021000C108C108E140E110E102400951239
:100C380015121417F030950595160800F000700885
:100C480024009100240014182B2E0000262E1108D1
:100C580008006300000000002000031A2D2E831DE9
:100C680008002D2EF000700C2100031C1010031832
:100C780010140800213441344434433433343134BB
:100C8800003420008C100D30890B482E000008001D
:100C98000D30890B4D2E000020008C1408004134C3
:100CA800443443343234393400346400800101312F
:100CB800890B5A2E0034AD3487346634BC34BB34C7
:100CC80041344434433433340034413444344334B9
:100CD8003734003442344F344F34543400344134C0
:100CE80043344B340034443442344734003408002D
:020000040001F9
:08000E008CFFFDFFFFFFFFFF67
:00000001FF
