:020000040000FA
:0400000080310F2814
:100008007E1480312000101C0D2886311726200010
:1000180010107E100900803111284D308400003006
:10002800850016308F3121278031A03084000030C0
:10003800850033308F312127803120308400013012
:10004800850040308F3121278031A0308400013075
:10005800850040308F3121277E1020008131EE2924
:1000680064008731B827803120004E08C4004D084D
:10007800C3000A30C5000030C600533083319D23C9
:10008800803130302000A7009030A8002030863121
:100098009C26803153302000A7000030A800203073
:1000A80086319C2680312000CD01CE01D20152102C
:1000B8008331172380318F313E2780318731B8272C
:1000C800803100302000B8000030B7000930B60099
:1000D800C930B500043082318F22803120003608C3
:1000E800C4003508C3000A30C5000030C6005330CC
:1000F80083319D2380311F302000A7009030A80055
:10010800203086319C26803153302000A7000030F3
:10011800A800203086319C2680312000D20152145C
:100128008331172380318F313E2780318731B827BB
:10013800803100302000B8000030B7000930B60028
:10014800C430B500133082318F2280312000360848
:10015800C4003508C3000A30C5000030C60053305B
:1001680083319D23803113302000A7009030A800F0
:10017800203086319C26803153302000A700003083
:10018800A800203086319C2680312000D2015210F0
:100198008331172380318F313E2780318731B8274B
:1001A800803100302000B8000330B7003030B6008E
:1001B8000430B5003F3082318F228031200035086D
:1001C800D83EC300FF30363DC4000A30C5000030B9
:1001D800C600533083319D23803135302000A7007D
:1001E8009030A800203086319C2680315330200082
:1001F800A7000030A800203086319C2680312000DE
:10020800D20152108331172380318F313E2780313C
:100218008731B827803100302000B8000030B7009F
:100228000930B600AB30B5003D3082318F228031C5
:1002380020003608C4003508C3000A30C500003065
:10024800C600533083319D23803119302000A70028
:100258009030A800203086319C2680315330200011
:10026800A7000030A800203086319C26803120006D
:10027800D20152108331172380318F313E27080075
:100288002000B3103308AA002A08A70020308731BD
:10029800592781312000AC010330AC042C08AA0096
:1002A8002A08A700223087315927813120002B08DE
:1002B80080390238AB002B08AA002A08A70025308D
:1002C8008731592781312000AE01AE12AE150630B4
:1002D800AE042E08AA002A08A7002630873159271D
:1002E800813120003014B0143015B0153016B01616
:1002F8003008AA002A08A7002230873159278131FF
:100308002000A70101308731592781312000AA0038
:100318002A08B1003110B1103111B1113112B112E6
:100328003108AA002A08A7002130873159278131CE
:100338002000A7011D308731592781312000AA00EC
:100348002A08AD002D152D142D08AA002A08A7008B
:100358003D308731592781312000A7011C30873172
:10036800592781312000AA002A08B2003214B21499
:100378003215B2153216B2163208AA002A08A7009A
:100388003C308731592781312000AF012F17AF1634
:100398002F162F08AA002A08A700273087315927C7
:1003A80081312000A701E1308731592781312000B0
:1003B800A701E23087315927813120003314B31562
:1003C8003315B3143308AA002A08A7002030873150
:1003D8005927080023008C018E0125008C018E010D
:1003E80027008C018E0124008C018E0121008E12C1
:1003F8000E1220000E120B138B138F30320099054A
:10040800F030990534302000CC00F130890B0A2AED
:10041800CC0B0A2A00328731992781310530210017
:10042800400603192C2A05302000CC004C08210076
:10043800C0003A302000A7009030A800C1308F31AA
:10044800AD2781312100D101D20187313727813190
:10045800003086317226813121001D1023000C16D0
:1004680021000C1624000C1223008E1521008E1575
:10047800220097121712971697131708FC3901389C
:1004880097009717703021009E049E17FC309E0538
:100498001D0803390C389D001D140C1510140B1081
:1004A8001708C139143897008C1220008C120B17CA
:1004B8008B178731B8278131210052082000C400EA
:1004C800210051082000C3000A30C5000030C600D2
:1004D800533083319D23813125302000A70090308F
:1004E800A800203086319C26813153302000A70097
:1004F8000030A800203086319C2681312000D201AE
:1005080052108331172381318F313E278131803159
:10051800342081318B2A2000BD000030C200003019
:10052800C1000030C0000030BF00FF30B9003908FA
:10053800BE003D08B900B90DB90D21001D08200005
:1005480039060339390621009D00A0300032890B95
:10055800AA2A01302000BE020319D72A21009D14BF
:1005680021009D1CB92A0000B42A1B082000B900EC
:10057800BA01BB01BC013908BF073A08C03D3B08B6
:10058800C13D3C08C23D21001C082000B900BA0149
:100598003908BA00B9013908BF073A08C03D003028
:1005A800C13DC23DAD2A0030AA000030A90000308C
:1005B800A8006430A7004208AE004108AD0040081A
:1005C800AC003F08AB008531B725823120002A08EE
:1005D800C2002908C1002808C0002708BF00380841
:1005E800AA003708A9003608A8003508A70042085D
:1005F800AE004108AD004008AC003F08AB008331B5
:10060800FF2320002A08C2002908C1002808C000CA
:100618002708BF004208B8004108B7004008B600E4
:100628003F08B5000800FF302000AF002F08B100D8
:100638002000D11C282B0130B1020319172B42309E
:10064800890B242B00321C2BD11400308F312E271C
:10065800833100308431DE2483318F313627833172
:10066800B0308731F2278331200052088731F227D2
:1006780083312000B1014E2B3108203E8600013025
:10068800870001088731F227833101302000AF004D
:100698002F08B10720308631EC268331200031083D
:1006A800AF00B00128083002031D5C2B27082F0279
:1006B8000318622B40303102031C402B8F3127274F
:1006C80083318F31152783311A30890B692B00321A
:1006D8008F311827833101308F312E278331FF3036
:1006E8002000AF002F08B1002000D11C842B01305E
:1006F800B1020319172B1A30890B802B0032782B83
:10070800FF30AF002F08B1002000521C0800013054
:10071800B1020319172B0130CD070030CE3D03304D
:100728002000AF009730890B972BAF0B972B003227
:10073800882B2000CB004408C9004308C80046089D
:10074800A8004508A7004908AA004808A90085315B
:100758005025833120002808C9002708C800013027
:10076800C7004708CB0748084904031DA32B4B08BB
:100778008600870181010130CB024608A8004508A0
:10078800A7004408AA004308A900863145268331FA
:1007980020002708C7004708CA004608A8004508DF
:1007A800A7004408AA004308A900853150258331D1
:1007B80020002808C4002708C3000A304A02031C86
:1007C800E92B0730C7004708CA073030C700470879
:1007D800CA074A08C7004B088600870147088100F6
:1007E8000130CB0243084404031DC12B0130C7006C
:1007F8004708CB07080000302000B3000030B200E3
:100808000030B1000030B0002A0829042804270469
:100818000319492CB401B40AAA1B1E2C0130A735B0
:10082800A80DA90DAA0D890B132C0130AF002F08B4
:10083800B407102C0130B035B10DB20DB30D890BD2
:100848001F2C2A082E02031D332C29082D02031DF4
:10085800332C28082C02031D332C27082B02031CD9
:100868003E2C2708AB022808AC3B2908AD3B2A08D8
:10087800AE3B30140130AA36A90CA80CA70C890B82
:100888003F2C0130B402031D1E2C3308AA00320885
:10089800A9003108A8003008A70008002000A2011C
:1008A8000030F800F900A030873112278431710830
:1008B800FB007008FA00A0308F31C8278431F1019D
:1008C80060308F3192278431FD007D082000A3001D
:1008D800A4018F31182784318F3136278431613054
:1008E8008731F227843100308731F2278431FD00C7
:1008F8007D082000CF000130A302A401942C003011
:100908008731F2278431FD0020002408A03E8600AC
:10091800013087007D0881000130FD007D08A407B3
:100928002308240203189C2C40302402031C832C27
:100938008F31272784318F31152708008B13310019
:10094800950120002708E03EAB001F30283DAC0091
:100958002B083100910020002C0831009200151658
:10096800151555309600AA30960095140000000021
:1009780031001511950120002B083100910020004D
:100988002C0831009200151295161515200029081B
:100998003100930020002A08310094009512553048
:1009A8009600AA3096009514000000003100151139
:1009B8008B1708002000AC00A701003087315927A9
:1009C80084312000AA002A08AB002B0801392C0624
:1009D8000319122D8F3118278431A0300032890B6A
:1009E800F22C20002C0801392B10031D2B142B0886
:1009F800AA002A08A7002030873159278431A0305F
:100A08000032890B042D20002C080319122D8F3178
:100A180015278431A0300032890B0F2D20002C08B7
:100A28000139D111031DD1150800F600F10100307C
:100A38008F3192278531F4007408F5007508013963
:100A480076060319492D8F3118278531A0300032D9
:100A5800890B2B2D760801397510031D751475083F
:100A6800F4007408F10020308F3192278531A030CE
:100A78000032890B3C2D76080319492D8F31152733
:100A88008531A0300032890B462D760801392000C7
:100A9800D111031DD11508002000AC01AD012708B4
:100AA80028040319802DAE01AE0AA81B652D01305C
:100AB800A735A80D890B5C2D0130AB002B08AE07BC
:100AC800592D0130AC35AD0D890B662D28082A0249
:100AD800031D702D27082902031C772D2708A9025A
:100AE8002808AA3B2C140130A836A70C890B782DAE
:100AF8000130AE02031D652D2D08A8002C08A700A3
:100B080008008B133100950120002708E03EAE0055
:100B18001F30283DAF002E083100910020002F081B
:100B2800310092001514000000002000AC01AD0156
:100B3800310013082000A900AA012908AC002A08DE
:100B4800AD00310014082000A900AA012908AA0054
:100B5800A9012908AC042A08AD048B172D08A800A0
:100B68002C08A700080000302000B2000030B100B7
:100B78000030B0000030AF00271CCA2D2B08AF078B
:100B88002C08B03D2D08B13D2E08B23D0130AB35E3
:100B9800AC0DAD0DAE0D890BCB2D0130AA36A90CCD
:100BA800A80CA70C890BD22D2A082904280427048D
:100BB800031DC02D3208AA003108A9003008A8007A
:100BC8002F08A70008008B13310095017008E03E3C
:100BD800F4001F30713DF50074089100750892000B
:100BE8001516151555309600AA3096009514000074
:100BF80000003100151195017408910075089200E4
:100C0800151295161515720893007308940095121D
:100C180055309600AA309600951400000000310067
:100C280015118B170800F10107308F319227863193
:100C38002000A5002508A600260A031D272E02303D
:100C48008F31472786312000A61E322ED110D11DA4
:100C5800521C322E01308531192586312000261F7D
:100C68003C2E51158431522486318F315F278631CD
:100C780020002608A5002508F10027308F3192278B
:100C8800080020002708280403196D2EAC01AC0ABF
:100C9800A81B582E0130A735A80D890B4F2E0130FF
:100CA800AB002B08AC074C2E28082A02031D5E2E29
:100CB80027082902031C642E2708A9022808AA3B32
:100CC8000130A836A70C890B652E0130AC02031D34
:100CD800582E2A08A8002908A70008002000B600F6
:100CE8008731D62786318F31182786310230200088
:100CF800B5000430B400BA30890B802EB40B802EB6
:100D0800B50B802E00002000360881314421863141
:100D180002302000B5000430B400BA30890B922E9E
:100D2800B40B922EB50B922E00008F3115270800B8
:100D38002000AB002B08A9002908AA002A08860071
:100D48000130870001080319B62E0130A9002908CF
:100D5800AA07A22E0130A9002908AA070130A7076F
:100D68000030A83D2A088600013087002708840043
:100D7800280885000008C03F890803190800AE2E1E
:100D8800F400CE2E0130F2007208F4070130F200B0
:100D98007208F00774088600013087007008840024
:100DA800013085000003FF3A0107F2007208F300E2
:100DB8007308031DE62E74088600013087000108B9
:100DC800031DC62E7308F000F101F01BF1030800A3
:100DD8002000AE002E08A9002908AD002D088600C5
:100DE8000130870001080319FE2E0130A9002908E7
:100DF800AD07F22E2E08A9000130AA00A909AA09F8
:100E0800A90A0319AA0A2D08AB000130AC00290869
:100E18002B07A7002A082C3DA8000800F600760832
:100E2800F2007208F7007708860001308700010891
:100E38000319232F0130F2007208F707172F7608DD
:100E4800F2000130F300F209F309F20A0319F30A78
:100E58007708F4000130F50072087407F000730891
:100E6800753DF10008002000AF01B00100303002EC
:100E7800203003192F02031808003008A8002F0893
:100E8800A7002F08A03E860087010108AD00AE012B
:100E98002D08A9002E08AA008431A2248731013028
:100EA8002000AF070030B03D3A2F2000A9000030E5
:100EB8008F312E2787318F31362787312000290837
:100EC8008731F2278731200027088731F2278731B9
:100ED8002000A8002808A7008F3127278731013074
:100EE8008F312E27200027080800F801F90100306B
:100EF8007902203003197802031808007908F100F4
:100F08007808F0007808A03E860087010108F600FE
:100F1800F7017608F2007708F3008531E725873175
:100F28000130F8070030F93D7B2F2000B101B201F4
:100F38000030320220300319310203180800320849
:100F4800A8003108A70085318525873120002708AA
:100F5800B0003108A03E86008701300881000130CA
:100F6800B1070030B23D9C2F00302000A700A80038
:100F78004030A9000030AA0020308F31E4278731A3
:100F8800C1302000A7000030A800203086319C2600
:100F9800873117302000A7009030A8002030863114
:100FA8009C26080021000C108C108E140E110E10B7
:100FB800240095123D002108E0391138A1002208CB
:100FC800E0391938A2002008E0391838A0002400B8
:100FD80015121417F030950595160800F0007008E2
:100FE8002400910020000E1624001418FD2F000084
:060FF800F82F11080800AB
:101E2A0020000C14080020000C10080020008C145C
:101E3A00080020008C100800640080010131890B21
:101E4A00222F00340D30890B282F00008F311B27D9
:101E5A000800F000700C2100031C10100318101465
:101E6A0008008F311E278F310D30890B3A2F000061
:101E7A0008006300000000002000031A3E2F831DA3
:101E8A0008003E2FFC007C08FA00FB017A08F000EB
:101E9A007B08F1000A30F2000030F3008F31772717
:101EAA008F3171082100D2007008D100873179275B
:101EBA00010008002000CF1C08005111521C080024
:101ECA00A030F7007708F00020308631C4268F3121
:101EDA0070087104031D080020005210003085317B
:101EEA0019250800F401F501701C7F2F7208F40708
:101EFA007308F53D0130F235F30D890B802F01305F
:101F0A00F136F00C890B852F70087104031D792FA7
:101F1A007508F1007408F0000800F30000308F31F2
:101F2A002E278F318F3136278F3173088731F22769
:101F3A008F3171088731F2278F31F2007208F10070
:101F4A008F3127278F3101308F312E2771080800F2
:101F5A002000AA002A08A9002908AB002B0886003D
:101F6A00870127088400280885000008C03F8908DF
:101F7A00031908000130A9002908AB070130A70797
:101F8A000030A83DB32F2000A1002108FC007C08E6
:101F9A00A0000130FA020030FB3B7A0A03197B0ADF
:101FAA00031908007808FC00200886000130870021
:101FBA007C0881000130FC007C08A007CE2F20009D
:101FCA00AD002D08AB002B08AC000130A90200308F
:101FDA00AA3B290A03192A0A031908002708AB0091
:101FEA002C088600013087002B0881000130AB00E5
:101FFA002B08AC07EA2FAA3455346E3463346F3495
:10200A006E346634693467347534723465346434D2
:10201A0000340034003400340034003441344E3487
:10202A00433433342F340034543445344D3450342B
:10203A002F34003456344234413454342F3400346B
:10204A0042344F344F3454342F340034AD3487344F
:10205A006634BC34BB344434423447342F340034FD
:10206A004634563452342F340034553457343134CC
:04207A0000342134D9
:103FC0000034003400340034003400340034003451
:103FD0000034003400340034003400340034003441
:103FE0000034003400340034003400340034003431
:103FF0000034003400340034003400340034003421
:020000040001F9
:08000E008CFF3DFFFFFFFFFF27
:00000001FF
