:020000040000FA
:0400000080310F2814
:100008007E1480312000101C0D2885310B2520001E
:1000180010107E100900803111284730840000300C
:100028008500263086318B268031A0308400003050
:100038008500333086318B268031203084000130B2
:100048008500203086318B267E1020008231CF2A11
:100058006400A5302000A1008630A20065308531FB
:10006800EF25803120004808BE004708BD000A304F
:10007800BF000030C0005D3083314F238031200045
:10008800C701C801CC014C10813100218031863173
:100098005F26803196302000A1008630A2006530AE
:1000A8008531EF25803100302000B2000030B100EA
:1000B8000930B000C930AF000330823147228031A7
:1000C80020003008BE002F08BD000A30BF000030F5
:1000D800C0005D3083314F2380312000CC014C10AB
:1000E80081310021803186315F2680319B302000AC
:1000F800A1008630A20065308531EF2580310030BF
:100108002000B2000030B1000930B000C430AF00A8
:10011800073082314722803120003008BE002F0886
:10012800BD000A30BF000030C0005D3083314F236E
:1001380080312000CC014C10813100218031863182
:100148005F26803185302000A1008630A20065300E
:100158008531EF25803100302000B2000330B10036
:100168003030B0000430AF001D308231472280317A
:1001780020002F08D83EBD00FF30303DBE000A30B9
:10018800BF000030C0005D3083314F238031200034
:10019800CC014C1081310021803186315F268031BD
:1001A8007F302000A1008630A20065308531EF2520
:1001B800803100302000B2000030B1000930B000BA
:1001C800AB30AF001F308231472280312000300829
:1001D800BE002F08BD000A30BF000030C0005D30EF
:1001E80083314F2380312000CC014C108131002114
:1001F800803186315F26080020004708480403192B
:1002080009290130C7020030C83B02302000A8008D
:100218000430A700BA30890B0F29A70B0F29A80BA8
:100228000F29000002302000A8000430A700BA30CF
:10023800890B1C29A70B1C29A80B1C2900000230BC
:100248002000A8000430A700BA30890B2929A70B81
:100258002929A80B292900002000CB140030863159
:10026800702681310030843104248131863168263A
:100278008131B0308631462681312000A9015129CB
:100288002908C33E86008701010886314626813148
:1002980001302000A7002708A9072908C33E8600C7
:1002A8008701010803195C2910302902031C44291D
:1002B8002F308631462681312000A901702929086E
:1002C800653E860087010108863146268131013066
:1002D8002000A7002708A9072908653E860087018E
:1002E800010803197B2908302902031C63292F30D0
:1002F8008631462681312000A9018F2929085D3ED3
:1003080086008701010886314626813101302000A8
:10031800A7002708A90729085D3E8600870101086C
:1003280003199A2908302902031C82298631782664
:1003380081318631B22681311A30890BA1290032E8
:100348008631AF26813101308631702608002000C1
:10035800AC102C08A4002408A10020308531B12558
:1003680081312000A5010330A5042508A400240834
:10037800A10022308531B12581312000A612A615B1
:100388000630A6042608A4002408A10026308531DA
:10039800B125813120002914A9142915A915291678
:1003A800A9162908A4002408A10022308531B12506
:1003B80081312000A10101308531B1258131200032
:1003C800A4002408AA002A10AA102A11AA112A1285
:1003D800AA122A08A4002408A10021308531B125D9
:1003E80081312000A1011D308531B12581312000E6
:1003F800A4002408A700271527142708A400240808
:10040800A1003D308531B12581312000A1011C308A
:100418008531B12581312000A4002408AB002B14BC
:10042800AB142B15AB152B16AB162B08A400240800
:10043800A1003C308531B12581312000A801281761
:10044800A81628162808A4002408A10027308531FA
:10045800B12581312000A101E1308531B1258131FB
:100468002000A101E2308531B125813120002C1412
:10047800AC152C15AC142C08A4002408A1002030BD
:100488008531B12508002000B7000030BC000030DD
:10049800BB000030BA000030B900FF30B3003308A9
:1004A800B8003708B300B30DB30D21001D082000B4
:1004B80033060339330621009D00A0300032890B32
:1004C800622A01302000B80203198F2A21009D14E6
:1004D80021009D1C712A00006C2A1B082000B30013
:1004E800B401B501B6013308B9073408BA3D350877
:1004F800BB3D3608BC3D21001C082000B300B401F8
:100508003308B400B3013308B9073408BA3D0030E2
:10051800BB3DBC3D652A0030A4000030A30000307C
:10052800A2006430A1003C08A8003B08A7003A08D4
:10053800A6003908A5008431AB24823120002408A4
:10054800BC002308BB002208BA002108B900320801
:10055800A4003108A3003008A2002F08A1003C081D
:10056800A8003B08A7003A08A6003908A50083316F
:10057800B12320002408BC002308BB002208BA00CD
:100588002108B9003C08B2003B08B1003A08B000A5
:100598003908AF00080023008C018E0125008C016A
:1005A8008E0126008C018E0127008C018E0121000E
:1005B8008E120E1220000E120B138B1334302000F3
:1005C800C600F130890BE62AC60BE62A003238301D
:1005D8002000A1008630A200C3308531EF2582318A
:1005E8000030853166258231220097131708FC39BF
:1005F80001389700971797121712971621001D10A8
:1006080023000C1621000C1624000C1223008E1552
:1006180021008E1570309E049E17FC309E051D0823
:1006280003390C389D001D140C153D001208E039E3
:1006380002389200210010140B101708C139143821
:1006480097008C1220008C120B178B17A030A1007A
:100658008630A20065308531EF25823121003208CD
:100668002000BE00210031082000BD000A30BF0074
:100678000030C0005D3083314F2382312000CC012F
:100688004C1081310021823186315F2682318031E0
:100698002C2082314B2B2000C5003E08C3003D08AA
:1006A800C2004008A2003F08A1004308A400420875
:1006B800A30084317624833120002208C300210856
:1006C800C2000130C1004108C50742084304031DA8
:1006D800552B45088600870181010130C502400875
:1006E800A2003F08A1003E08A4003D08A3008531F0
:1006F8003925833120002108C1004108C400400881
:10070800A2003F08A1003E08A4003D08A3008431D0
:100718007624833120002208BE002108BD000A305B
:100728004402031C9B2B0730C1004108C40730302A
:10073800C1004108C4074408C10045088600870174
:10074800410881000130C5023D083E04031D732B9A
:100758000130C1004108C507080000302000AD0085
:100768000030AC000030AB000030AA00240823049D
:10077800220421040319FB2BAE01AE0AA41BD02BC3
:100788000130A135A20DA30DA40D890BC52B013095
:10079800A9002908AE07C22B0130AA35AB0DAC0D54
:1007A800AD0D890BD12B24082802031DE52B230846
:1007B8002702031DE52B22082602031DE52B21082D
:1007C8002502031CF02B2108A5022208A63B2308BA
:1007D800A73B2408A83B2A140130A436A30CA20C7A
:1007E800A10C890BF12B0130AE02031DD02B2D0873
:1007F800A4002C08A3002B08A2002A08A1000800C6
:100808002000A600A10100308531B12584312000E7
:10081800A4002408A5002508013926060319382C48
:100828008631AF268431A0300032890B182C200085
:10083800260801392510031D25142508A4002408BD
:10084800A10020308531B1258431A0300032890BD8
:100858002A2C200026080319382C8631B226843128
:10086800A0300032890B352C200026080139CB1125
:10087800031DCB150800F600F101003086310A2669
:100888008431F4007408F5007508013976060319F7
:100898006F2C8631AF268431A0300032890B512C61
:1008A800760801397510031D75147508F40074086D
:1008B800F100203086310A268431A0300032890BBD
:1008C800622C760803196F2C8631B2268431A03049
:1008D8000032890B6C2C760801392000CB11031DDE
:1008E800CB1508002000A601A7012108220403193E
:1008F800A62CA801A80AA21B8B2C0130A135A20D99
:10090800890B822C0130A5002508A8077F2C01300F
:10091800A635A70D890B8C2C22082402031D962CC2
:1009280021082302031C9D2C2108A3022208A43BB2
:1009380026140130A236A10C890B9E2C0130A80286
:10094800031D8B2C2708A2002608A10008000030F0
:100958002000AC000030AB000030AA000030A90035
:10096800211CBE2C2508A9072608AA3D2708AB3D4F
:100978002808AC3D0130A535A60DA70DA80D890B9B
:10098800BF2C0130A436A30CA20CA10C890BC62CD9
:100998002408230422042104031DB42C2C08A400D9
:1009A8002B08A3002A08A2002908A10008008B131D
:1009B800310095017008E03EF4001F30713DF500EC
:1009C8007408910075089200151615155530960093
:1009D800AA30960095140000000031001511950109
:1009E800740891007508920015129516151572086D
:1009F800930073089400951255309600AA3096001B
:100A0800951400000000310015118B170800F10142
:100A1800073086310A268531FD007D082000A000B8
:100A28002008031D1B2D01308631532685312000F7
:100A3800200A031D232D02308631532685312000DC
:100A4800A01E2E2DCB10CB1D4C1C2E2D0130843119
:100A58003F2485312000201B4B152008FD007D0810
:100A6800F100273086310A260800200021082204D8
:100A78000319612DA601A60AA21B4C2D0130A13530
:100A8800A20D890B432D0130A5002508A607402D8E
:100A980022082402031D522D21082302031C582D6D
:100AA8002108A3022208A43B0130A236A10C890B1D
:100AB800592D0130A602031D4C2D2408A20023083D
:100AC800A10008002000AF008531D125853186318D
:100AD800AF26853102302000AE000430AD00BA30B8
:100AE800890B742DAD0B742DAE0B742D00002000F6
:100AF8002F088131AB21853102302000AE0004304F
:100B0800AD00BA30890B862DAD0B862DAE0B862D28
:100B180000008631B2260800F801F9010030790298
:100B2800203003197802031808007908F1007808C2
:100B3800F0007808203E8600013087000108F600A2
:100B4800F7017608F2007708F3008431DB24853159
:100B58000130F8070030F93D922D2000A300003045
:100B68008631702685318631682685312000230834
:100B78008631462685312000210886314626853172
:100B88002000A2002208A100863178268531013094
:100B98008631702620002108080021000C108C10D6
:100BA8008E140E110E10240095123D002108E03914
:100BB8001138A1002208E0391938A2002008E039CC
:100BC8001838A0002400151214171508F039023837
:100BD8009500951608002000A5002508A300230805
:100BE800A4002408860087012108840022088500C3
:100BF8000008C03F8908031908000130A300230832
:100C0800A4070130A1070030A23DF52DF300003004
:100C1800863170268631863168268631730886319A
:100C2800462686317108863146268631F2007208DA
:100C3800F1008631782686310130863170267108B8
:100C48000800AA3455346E3463346F346E34663415
:100C5800693467347534723465346434003400346C
:100C6800003400340034003455346E3463346F3447
:100C78006E34663469346734753472346534643478
:100C880048340034F00070082400910020000E164B
:100C980024001418512E00004C2E11080800FC00E6
:100CA8007C08FA00FB017A082100B1007B08B20039
:100CB8008531902508006300000000002000031A19
:100CC8005F2E831D08005F2E8631A92686310D30E0
:100CD800890B6C2E00000800F000700C2100031C2A
:100CE80010100318101408000D30890B792E00001D
:100CF8008631AC260800413444344334333431342B
:100D080000344134443443343234393400346400D8
:100D180080010131890B8C2E0034AD348734663460
:100D2800BC34BB3441344434433433340034413468
:100D3800443443343734003442344F344F34543419
:100D48000034443442344734003420008C10080006
:100D580020008C14080020000C10080020000C143F
:040D6800080021342A
:103FC0000034003400340034003400340034003451
:103FD0000034003400340034003400340034003441
:103FE0000034003400340034003400340034003431
:103FF0000034003400340034003400340034003421
:020000040001F9
:08000E008CFF3DFFFFFFFFFF27
:00000001FF
