:020000040000FA
:0400000080310F2814
:100008007E1480312000101C0D2885311925200010
:1000180010107E100900803111284730840000300C
:1000280085002630863199268031A0308400003042
:1000380085003330863199268031203084000130A4
:1000480085002030863199267E1020008231DD2AF5
:100058006400B3302000A1008630A20065308531ED
:10006800FD25803120004808BE004708BD000A3041
:10007800BF000030C0005D3083315D238031200037
:10008800C701C801CC014C10813100218031863173
:100098006D268031A4302000A1008630A200653092
:1000A8008531FD25803100302000B2000030B100DC
:1000B8000930B000C930AF00033082315522803199
:1000C80020003008BE002F08BD000A30BF000030F5
:1000D800C0005D3083315D2380312000CC014C109D
:1000E80081310021803186316D268031A930200090
:1000F800A1008630A20065308531FD2580310030B1
:100108002000B2000030B1000930B000C430AF00A8
:10011800073082315522803120003008BE002F0878
:10012800BD000A30BF000030C0005D3083315D2360
:1001380080312000CC014C10813100218031863182
:100148006D26803193302000A1008630A2006530F2
:100158008531FD25803100302000B2000330B10028
:100168003030B0000430AF001D308231552280316C
:1001780020002F08D83EBD00FF30303DBE000A30B9
:10018800BF000030C0005D3083315D238031200026
:10019800CC014C1081310021803186316D268031AF
:1001A8008D302000A1008630A20065308531FD2504
:1001B800803100302000B2000030B1000930B000BA
:1001C800AB30AF001F30823155228031200030081B
:1001D800BE002F08BD000A30BF000030C0005D30EF
:1001E80083315D2380312000CC014C108131002106
:1001F800803186316D26080020004708480403191D
:1002080009290130C7020030C83BFF30A700270882
:10021800A8002000CB1C19290130A80203190929BC
:100228004230890B152900320D29CB140030863154
:100238007E26813100308431122481318631762640
:100248008131B0308631542681312000A801392906
:100258002808C33E8600870101088631542681316B
:1002680001302000A7002708A8072808C33E8600F9
:10027800870101080319442910302802031C2C297E
:100288002F308631542681312000A80158292808AA
:10029800653E860087010108863154268131013088
:1002A8002000A7002708A8072808653E86008701C0
:1002B80001080319632908302802031C4B292F3031
:1002C8008631542681312000A801772928085D3E0F
:1002D80086008701010886315426813101302000CB
:1002E800A7002708A80728085D3E8600870101089F
:1002F8000319822908302802031C6A2986318626B8
:1003080081318631C02681311A30890B8929003222
:100318008631BD268131013086317E268131FF301C
:100328002000A7002708A8002000CB1CA429013022
:10033800A802031909294230890BA02900329829FB
:10034800FF30A7002708A80020004C1C0800013037
:10035800A802031DB4290130C7070030C83D092988
:10036800A0300032890BB529A8292000AC102C0830
:10037800A4002408A10020308531BF258131200048
:10038800A5010330A5042508A4002408A1002230F3
:100398008531BF2581312000A612A6150630A60496
:1003A8002608A4002408A10026308531BF25813104
:1003B80020002914A9142915A9152916A9162908F0
:1003C800A4002408A10022308531BF2581312000F6
:1003D800A10101308531BF2581312000A400240806
:1003E800AA002A10AA102A11AA112A12AA122A0847
:1003F800A4002408A10021308531BF2581312000C7
:10040800A1011D308531BF2581312000A4002408B9
:10041800A700271527142708A4002408A1003D30A9
:100428008531BF2581312000A1011C308531BF25D0
:1004380081312000A4002408AB002B14AB142B1529
:10044800AB152B16AB162B08A4002408A1003C30D2
:100458008531BF2581312000A8012817A816281644
:100468002808A4002408A10027308531BF25813140
:100478002000A101E1308531BF2581312000A10193
:10048800E2308531BF25813120002C14AC152C15A4
:10049800AC142C08A4002408A10020308531BF2505
:1004A80008002000B7000030BC000030BB0000305E
:1004B800BA000030B900FF30B3003308B80037087D
:1004C800B300B30DB30D21001D0820003306033916
:1004D800330621009D00A0300032890B702A0130BC
:1004E8002000B80203199D2A21009D1421009D1C9B
:1004F8007F2A00007A2A1B082000B300B401B50146
:10050800B6013308B9073408BA3D3508BB3D36088B
:10051800BC3D21001C082000B300B4013308B4001E
:10052800B3013308B9073408BA3D0030BB3DBC3DC0
:10053800732A0030A4000030A3000030A200643009
:10054800A1003C08A8003B08A7003A08A600390803
:10055800A5008431B924823120002408BC00230876
:10056800BB002208BA002108B9003208A4003108EB
:10057800A3003008A2002F08A1003C08A8003B08EF
:10058800A7003A08A6003908A5008331BF23200038
:100598002408BC002308BB002208BA002108B900BF
:1005A8003C08B2003B08B1003A08B0003908AF0077
:1005B800080023008C018E0125008C018E01260085
:1005C8008C018E0127008C018E0121008E120E12E3
:1005D80020000E120B138B1334302000C600F130AC
:1005E800890BF42AC60BF42A003246302000A100F9
:1005F8008630A200C3308531FD2582310030853137
:1006080074258231220097131708FC3901389700A6
:10061800971797121712971621001D1023000C1612
:1006280021000C1624000C1223008E1521008E15B3
:1006380070309E049E17FC309E051D0803390C3847
:100648009D001D140C153D001208E0390238920077
:10065800210010140B101708C139143897008C1298
:1006680020008C120B178B17AE30A1008630A20029
:1006780065308531FD258231210032082000BE0019
:10068800210031082000BD000A30BF000030C00042
:100698005D3083315D2382312000CC014C108131E3
:1006A8000021823186316D26823180312C208231C1
:1006B800592B2000C5003E08C3003D08C200400871
:1006C800A2003F08A1004308A4004208A300843107
:1006D8008424833120002208C3002108C20001308D
:1006E800C1004108C50742084304031D632B4508A0
:1006F8008600870181010130C5024008A2003F0839
:10070800A1003E08A4003D08A30085314725833198
:1007180020002108C1004108C4004008A2003F0889
:10072800A1003E08A4003D08A3008431842483313D
:1007380020002208BE002108BD000A304402031C24
:10074800A92B0730C1004108C4073030C100410857
:10075800C4074408C1004508860087014108810094
:100768000130C5023D083E04031D812B0130C10044
:100778004108C507080000302000AD000030AC007B
:100788000030AB000030AA0024082304220421040E
:100798000319092CAE01AE0AA41BDE2B0130A135CA
:1007A800A20DA30DA40D890BD32B0130A900290894
:1007B800AE07D02B0130AA35AB0DAC0DAD0D890BB2
:1007C800DF2B24082802031DF32B23082702031D0F
:1007D800F32B22082602031DF32B21082502031CF4
:1007E800FE2B2108A5022208A63B2308A73B2408C4
:1007F800A83B2A140130A436A30CA20CA10C890B27
:10080800FF2B0130AE02031DDE2B2D08A4002C089F
:10081800A3002B08A2002A08A10008002000A600B7
:10082800A10100308531BF2584312000A4002408AF
:10083800A5002508013926060319462C8631BD2650
:100848008431A0300032890B262C2000260801397B
:100858002510031D25142508A4002408A100203014
:100868008531BF258431A0300032890B382C200017
:1008780026080319462C8631C0268431A030003260
:10088800890B432C200026080139CB11031DCB15F9
:100898000800F600F1010030863118268431F40092
:1008A8007408F50075080139760603197D2C863120
:1008B800BD268431A0300032890B5F2C76080139BF
:1008C8007510031D75147508F4007408F1002030C4
:1008D800863118268431A0300032890B702C7608B6
:1008E80003197D2C8631C0268431A0300032890B53
:1008F8007A2C760801392000CB11031DCB1508008E
:100908002000A601A701210822040319B42CA8017C
:10091800A80AA21B992C0130A135A20D890B902C95
:100928000130A5002508A8078D2C0130A635A70D94
:10093800890B9A2C22082402031DA42C21082302C7
:10094800031CAB2C2108A3022208A43B2614013067
:10095800A236A10C890BAC2C0130A802031D992CDE
:100968002708A2002608A100080000302000AC00DB
:100978000030AB000030AA000030A900211CCC2CAC
:100988002508A9072608AA3D2708AB3D2808AC3D3D
:100998000130A535A60DA70DA80D890BCD2C01306A
:1009A800A436A30CA20CA10C890BD42C2408230474
:1009B80022042104031DC22C2C08A4002B08A30028
:1009C8002A08A2002908A10008008B13310095010C
:1009D8007008E03EF4001F30713DF5007408910086
:1009E800750892001516151555309600AA30960010
:1009F800951400000000310015119501740891004C
:100A0800750892001512951615157208930073084B
:100A18009400951255309600AA309600951400005F
:100A28000000310015118B170800F10107308631DD
:100A380018268531FD007D082000A0002008031D30
:100A4800292D01308631612685312000200A031DB9
:100A5800312D02308631612685312000A01E3C2DC3
:100A6800CB10CB1D4C1C3C2D013084314D248531DD
:100A78002000201B4B152008FD007D08F1002730C1
:100A880086311826080020002108220403196F2D3A
:100A9800A601A60AA21B5A2D0130A135A20D890B69
:100AA800512D0130A5002508A6074E2D2208240245
:100AB800031D602D21082302031C662D2108A302B3
:100AC8002208A43B0130A236A10C890B672D013006
:100AD800A602031D5A2D2408A2002308A10008001D
:100AE8002000AF008531DF2585318631BD2685316F
:100AF80002302000AE000430AD00BA30890B822DE0
:100B0800AD0B822DAE0B822D000020002F08813105
:100B1800B921853102302000AE000430AD00BA3072
:100B2800890B942DAD0B942DAE0B942D00008631BE
:100B3800C0260800F801F9010030790220300319B5
:100B48007802031808007908F1007808F00078089E
:100B5800203E8600013087000108F600F70176087C
:100B6800F2007708F3008431E92485310130F80771
:100B78000030F93DA02D2000A300003086317E26EC
:100B88008531863176268531200023088631542622
:100B98008531200021088631542685312000A200A5
:100BA8002208A100863186268531013086317E26CD
:100BB80020002108080021000C108C108E140E1142
:100BC8000E10240095123D002108E0391138A100CB
:100BD8002208E0391938A2002008E0391838A000A6
:100BE8002400151214171508F039023895009516C7
:100BF80008002000A5002508A3002308A400240855
:100C08008600870121088400220885000008C03F6B
:100C18008908031908000130A3002308A40701303C
:100C2800A1070030A23D032EF300003086317E2656
:100C38008631863176268631730886315426863188
:100C48007108863154268631F2007208F100863127
:100C580086268631013086317E2671080800AA343E
:100C680055346E3463346F346E34663469346734A3
:100C7800753472346534643400340034003400341C
:100C88000034003455346E3463346F346E34663453
:100C980069346734753472346534643448340034E4
:100CA800F00070082400910020000E16240014188B
:100CB8005F2E00005A2E11080800FC007C08FA007C
:100CC800FB017A082100B1007B08B20085319E251E
:100CD80008006300000000002000031A6D2E831D29
:100CE80008006D2E8631B72686310D30890B7A2E95
:100CF80000000800F000700C2100031C10100318FD
:100D0800101408000D30890B872E00008631BA2692
:100D180008004134443443343334313400344134EA
:100D280044344334323439340034640080010131AE
:100D3800890B9A2E0034AD3487346634BC34BB3406
:100D48004134443443343334003441344434433438
:100D58003734003442344F344F345434003444343C
:100D680042344734003420008C10080020008C14D2
:100D7800080020000C10080020000C140800213482
:103FC0000034003400340034003400340034003451
:103FD0000034003400340034003400340034003441
:103FE0000034003400340034003400340034003431
:103FF0000034003400340034003400340034003421
:020000040001F9
:08000E008CFF3DFFFFFFFFFF27
:00000001FF
