:020000004C288A
:100008007E14803120007F08F400111F43286430DB
:100018007806031D4128F501F60121001B08F000B0
:10002800F1017008F5007108F6001C08F000F101F4
:100038007008F100F0017008F5047108F6047508FD
:10004800F0007608F1000030F11BFF30F200F300F9
:1000580070082000D2077108D33D7208D43D730898
:10006800D53D7708031D3D286530F0007008F8007D
:100078003F2821009D140130F702200011138B1C2A
:100088004728B8268B1074082000FF007E1009004E
:100098004D28B526F800B626E000F7015230840056
:1000A800003085000E30A5267E1020009E2C0730DB
:1000B8007806031981296400812963000000000083
:1000C8002000031A0800831908006008CE004E08B3
:1000D800F8000800902617262F30B0264230B026A8
:1000E8004F30B0264F30B0265430B0262F30B026CF
:1000F8003130B026862602302000CE004E08F800A7
:10010800080007302000CE004E08F8000330CE006B
:100118004E08E00008000330502504302000CE00CF
:100128004E08E00008000730502505302000CE00BA
:100138004E08E00008001F30502506302000CE0091
:100148004E08E00008001D30502502302000CE0087
:100158004E08E000080000302000A3000030A20094
:100168000030A1001630162900302000A30000300E
:10017800A2000030A1001930162920005508AB0054
:100188005408AA005308A9005208A800DF24200038
:100198002808B3002908B4002A08B5006630B00062
:1001A800C630B1004130B2009C2120003008C000A8
:1001B8003108C1003208C200D42220004308D5000B
:1001C8004208D4004108D300400828290030200004
:1001D800A3000030A2000830A1002930A000550873
:1001E800A7005408A6005308A5005208A4005B23E2
:1001F80020002308D5002208D4002108D3002008B5
:10020800D200D830D207FF30D33DFF30D43DFF3085
:10021800D53D3B2900302000A3000030A20000306B
:10022800A100FF30A0005508A7005408A6005308F5
:10023800A5005208A4005B2320002308D50022084B
:10024800D4002108D3002008D2003B2921001D0C2E
:10025800890C1F39033A0319AF28043A0319B8283F
:100268001A3A0319EA28023A0319C1280E2920006C
:100278005308B2005208B1000A30B3000030B4008D
:100288005730F42521001D0C890C1F392000CE00A1
:10029800CF014E08B1004F08B2000A30B300003059
:1002A800B4005D30F425902617262F30B026413053
:1002B800B0264430B0264330B0265D3036262F3085
:1002C800B0262000D0015008573E8600870101085B
:1002D80003197A295008573E860087010108B0267D
:1002E80001302000CE004E08D0076729862620005E
:1002F8006008CE004E08F80008007808013A031993
:100308006E28033A03198528013A03198F28073AFA
:1003180003199728013A03199F28033A0319A728B4
:10032800013A03196128623A03192A299B2908000E
:1003380020003308B6003408B7003508B8000310A9
:10034800370D380DB9003908BE003E08031DB32922
:100358000030B0000030B1000030B20008003008B2
:10036800B6003108B7003208B8000310370D380D51
:10037800B9003908BF003F08031DC9290030B00083
:100388000030B1000030B20008000030BB0000307F
:10039800BC000030BD0089303F07B6003608BE02F9
:1003A8003308B6003408B7003508B8001030B8363E
:1003B800B70CB60C890BDB293608B9003908BF0021
:1003C8003008B6003108B7003208B8001030B83627
:1003D800B70CB60C890BEB293608B9003908BF06EB
:1003E8008030B6003608BF05B417FF30B305FF30BC
:1003F800B4050030B505B117FF30B005FF30B105C1
:100408000030B2051830B6003608BA000130BB35E6
:10041800BC0DBD0D890B0B2A32083502031D1A2AA3
:1004280031083402031D1A2A30083302031C232A18
:100438003008B3023108B43B3208B53B3B140130F5
:10044800B335B40DB50D890B242A0130BA02031D4A
:100458000A2A3B08A0003C08A1003D08A2003E086B
:10046800B6003608A3003F08B7003708A400DD230C
:1004780020002008B0002108B1002208B2000800BE
:100488002000A1012030662634302000A400F1307D
:10049800890B4C2AA40B4C2A00322000A5010330FA
:1004A800A5042508A4002408A10022306626F030FF
:1004B8002000A6040F30A6042608A4002408A100E2
:1004C800243066262000A812A8150630A80428089B
:1004D800A4002408A1002630662620002914A915A6
:1004E8002915A9142908A4002408A100203066268B
:1004F80020002A14AA142A15AA152A16AA162A08A8
:10050800A4002408A100223066262000A1010130A1
:1005180066262000A4002408AB002B10AB102B117A
:10052800AB112B12AB122B08A4002408A100213018
:1005380066262000A1011D3066262000A40024089C
:10054800A70027152708A4002408A1003D30662627
:100558002000A1011C3066262000A4002408AC005D
:100568002C14AC142C15AC152C16AC162C08A400A5
:100578002408A1003C3066262000D6015617D6165E
:1005880056165608A4002408A10027306626200025
:10059800A101E13066262000A101E23066260800AC
:1005A80020004008C4004108C5004208C6000310E6
:1005B800450D460DC7004708CD004D08031DED2A1F
:1005C8000030C3000030C2000030C1000030C0005D
:1005D80008004008C4004108C5004208C60017309A
:1005E800C636C50CC40C890BF42A4408C700470852
:1005F800C800C117FF30C005FF30C1050030C20573
:100608004008C9004108CA004208CB00CC018E301E
:10061800CD02CD1F2B2B4D08803A8F3E03181D2B82
:100628000030C3000030C2000030C1000030C000FC
:1006380008000130CC36CB0CCA0CC90C890B1E2B18
:100648000130C4004408CD070319442B1D2B183072
:100658004D02031C412B0030C3000030C2000030A3
:10066800C1000030C00008000130C935CA0DCB0DEB
:10067800CC0D890B392B0130CD024D08031D382BC9
:1006880048080319522BC909CA09CB09CC09C90A58
:100698000319CA0A0319CB0A0319CC0A4C08C30068
:1006A8004B08C2004A08C1004908C00008002000E1
:1006B800AA01A31F6C2BA009A109A209A309A00ADA
:1006C8000319A10A0319A20A0319A30AAA01AA0A6B
:1006D800A71F7D2BA409A509A609A709A40A031920
:1006E800A50A0319A60A0319A70A0130A8002808B1
:1006F800AA060030AE000030AD000030AC0000307B
:10070800AB0023082204210420040319C62BA901E5
:10071800A90AA31B9B2B0130A035A10DA20DA30D87
:10072800890B902B0130A8002808A9078D2B0130D0
:10073800AB35AC0DAD0DAE0D890B9C2B23082702F4
:10074800031DB02B22082602031DB02B2108250209
:10075800031DB02B20082402031CBB2B2008A40275
:100768002108A53B2208A63B2308A73B2B140130F0
:10077800A336A20CA10CA00C890BBC2B0130A9023A
:10078800031D9B2B2A080319D42BAB09AC09AD090F
:10079800AE09AB0A0319AC0A0319AD0A0319AE0A6C
:1007A8002E08A3002D08A2002C08A1002B08A000E9
:1007B8000800200023080319E62B2208210420043E
:1007C800031DF72B0030A0000030A1000030A2006C
:1007D80008000130A5002508A3070130A236A10CA6
:1007E800A00C890BF22BFE3022050319102CED2BDF
:1007F8000130A5002508A3070130A0070030031821
:100808000130A107003003180130A2070130A236D9
:10081800A10CA00C890B0B2CFF30220503191D2CF1
:10082800FC2B0130A3020130A035A10DA20D890BCC
:10083800182CA11B232C023023020318152C231873
:100848002B2CFF30A0057F30A105FF30A205031037
:10085800A30C2308A500A601A7011030A535A60DF5
:10086800A70D890B322C2508A0042608A104270807
:10087800A204240803190800A21708002000B000E9
:100888002908AE002808AD002B08A1002A08A000FE
:100898002E08A3002D08A2001B2520002108AE0069
:1008A8002008AD000130AC002C08B0072D082E043C
:1008B800031D482C30088600870181010130B002F1
:1008C8002B08A1002A08A0002908A3002808A200D4
:1008D8007E2520002008AC002C08AF002B08A100C2
:1008E8002A08A0002908A3002808A2001B25200028
:1008F8002108A9002008A8000A302F02031C882C10
:100908000730AC002C08AF073030AC002C08AF071C
:100918002F08AC003008860087012C0881000130C0
:10092800B00228082904031D642C0130AC002C08EF
:10093800B00708000B138B137830210099041908AD
:10094800FC390238990034302000D100F130890B8D
:10095800AB2CD10BAB2C0032AB2521009513220018
:1009680097131708FC390138970097179712171231
:10097800971621001D1023000C1621000C162400C8
:100988000C1223008E1521008E1570309E049E17C0
:10099800FC309E0511171D0883390C389D001D1465
:1009A8000C150B1615131708C139183897000B17B3
:1009B8008B175B20DD2C2000AF018E30AC002C089B
:1009C800AE00AB1FF42CA809A909AA09AB09A80A0B
:1009D8000319A90A0319AA0A0319AB0AAF01AF0A36
:1009E800FF302B050319042D0130AB36AA0CA90CD6
:1009F800A80C890BF92C0130AC002C08AE07F42C9C
:100A08002808A0002908A1002A08A2002E08AC0086
:100A18002C08A3002F08AD002D08A400DD2320001A
:100A28002008A8002108A9002208AA000800200020
:100A3800A501A6012008210403194B2DA701A70A27
:100A4800A11B302D0130A035A10D890B272D0130B8
:100A5800A4002408A707242D0130A535A60D890B6D
:100A6800312D21082302031D3B2D20082202031CDF
:100A7800422D2008A2022108A33B25140130A136EB
:100A8800A00C890B432D0130A702031D302D260829
:100A9800A1002508A00008002000A1000030D50012
:100AA8000030D4000030D3000030D200FF30A00066
:100AB8002008F70021001D0C890C1F392000210691
:100AC8000319762D2108A000A00DA00D21001D08F6
:100AD800200020068339200621009D00A030003226
:100AE800890B732D21009D1464302000A00020087C
:100AF800F80008002000200821040319A62DA501EC
:100B0800A50AA11B912D0130A035A10D890B882DB7
:100B18000130A4002408A507852D21082302031D00
:100B2800972D20082202031C9D2D2008A2022108CF
:100B3800A33B0130A136A00C890B9E2D0130A502E4
:100B4800031D912D2308A1002208A0000800210000
:100B58000C1023008C018E0121008C108E140E11B4
:100B68000E102400951215121417F03095059516DD
:100B780020000C103A302000AD002330890BC22D24
:100B8800AD0BC22D44220B302000AD006230890B22
:100B9800CB2DAD0BCB2D000008008B132300950146
:100BA80020002008E03E2300910020002008E03EBD
:100BB800A2000730213DA30023082300920015144A
:100BC80000000000230014082000A50023001308DB
:100BD8002000A4008B172508A1002408A000080005
:100BE8002000B7003708B5003508B600B21F0C2E34
:100BF8002D30B5003708860087013508810001309F
:100C0800B5003508B707B109B209B10A0319B20A24
:100C18003208A9003108A8003408AB003308AA003C
:100C28003708422408002000A801A9010030290241
:100C3800103003192802031808002908A100280801
:100C4800A000D12520002008A6002608A700270814
:100C5800031908002708B02601302000A807003033
:100C6800A93D1A2E2000A300A40124082307A200EE
:100C780022088600870101080319080024082307B1
:100C8800A2002208860087010108B0260130200052
:100C9800A2002208A407392E2000A10100306626F0
:100CA8002000A4002408A500251C080025102508FC
:100CB800A4002408A10020306626AD30890B622EDE
:100CC800000008002000A3009726200023087A26A9
:100CD8002000A2002208D60021087A262000A200BF
:100CE8002208A1009E262000210808002000A0005C
:100CF80020082400910024001418842E00007F2E60
:100D0800110808009E2620000C144230890B8A2EF8
:100D1800003220000C10080020000C1050269726E6
:100D2800A0307A26080020008C100D30890B9A2EEE
:100D3800000008000D30890B9F2E000020008C1445
:100D48000800640080010131890BA62E0034AD34FF
:100D580087346634BC34BB342000A10021087A26CD
:0A0D680008000134013421340800B2
:100FC00055346E3463346F346E3466346934673448
:100FD00075347234653464340034003400340034C1
:100FE0000034003400340034003400340034003461
:100FF0000034003400340034003400340034003451
:020000040001F9
:04000E009CFFFFFF55
:00000001FF
